:020000040000FA
:100000000C94AF000C94D9000C94D9000C94D90036
:100010000C94D9000C94D9000C94D9000C94D900FC
:100020000C94D9000C94D9000C94D9000C94D900EC
:100030000C94D9000C94D9000C94D9000C94D900DC
:100040000C94C1130C94D9000C9492140C94681461
:100050000C94D9000C94D9000C94D9000C94D900BC
:100060000C94D9000C94D9000C94D9000C94D900AC
:100070000C94D9000C94D9000C9432140C940814EC
:100080000C94D9000C94C8140C94D90000003A00C8
:1000900037003400310022006100640000003B00A2
:1000A000380035003200230062006500000039008E
:1000B00036003300300021002000630005050505EF
:1000C00005050505020202020202020207070404F6
:1000D00004040404040407070303030303030303E2
:1000E00007010101010101010106060606060606D7
:1000F000060102040810204080010204081020407C
:10010000800810010204081020408001020102044E
:1001100008102040800480402010080402010102E1
:100120000408102040800000000A0B0C00000000B2
:1001300000000104050600000000000000000000AF
:1001400000000000000000000000000000000000AF
:10015000000000000000000000000000B920112491
:100160001FBECFEFD0E1DEBFCDBF18E0A0E0B1E011
:10017000E2E2FBE600E00BBF02C007900D92A03662
:10018000B107D9F72AE0A0E6B8E001C01D92A23D70
:10019000B207E1F710E0CFEAD0E004C02197FE01FA
:1001A0000E946C35CE3AD107C9F70E9436210C94D3
:1001B0008F350C940000CF93DF93CDB7DEB7D250CC
:1001C0000FB6F894DEBF0FBECDBF80E092E0E8E04E
:1001D000F1E0DE01119601900D920197E1F7A8E39D
:1001E000B9E024E539E090E080E06D917D91582FF1
:1001F0004427E92FFF27E627EE0FFF1F81E090E05D
:100200008C0F9D1FE80FF91F80819181842795270E
:100210002A173B0751F7DE5F0FB6F894DEBF0FBE1B
:10022000CDBFDF91CF910895FB01A485B585ED91F8
:10023000FC9111970190F081E02D682FCD01099577
:1002400090E080E0089590913709809136092FEF72
:100250003FEF981748F4E92FF0E0EA5EF64F20816F
:1002600030E09F5F90933709C90108959091370955
:10027000809136092FEF3FEF981748F4E92FF0E00F
:10028000EA5EF64F208130E09F5F90933709C90105
:100290000895282F9091150981E0913208F042C00D
:1002A0008091F1088111FCCF8091140932E03093E4
:1002B000F1082093F0082FEF2093EF0824EF38E0A7
:1002C0003093EE082093ED081092EC089093EB0821
:1002D0001092EA089091EA08880F892B8093EA0827
:1002E0008091E908813029F51092E9088091EA08A7
:1002F000809373008091740083FDF8CF85EC809328
:1003000074008091F1088230E1F38091EF088F3F13
:1003100091F08091EF08803281F08091EF08803376
:1003200071F084E01092F308109215091092F2080F
:10033000089585EEE4CF80E0F5CF82E0F3CF83E04F
:10034000F1CF91E09093F208809314091092F30892
:1003500010921509089581E00C94490181508C3068
:1003600088F5E82FF0E0E954FE4F0C946C35DF017E
:10037000DF01E201C301C701CA01CD01E201E201CF
:10038000D101D701DB018FB58F778FBD08958FB570
:100390008F7DFBCF8FB5877FF8CF85B58F7D85BDEE
:1003A000089580918B008F7780938B0008958091C2
:1003B0008B008F7DF9CF80918B00877FF5CF83B73E
:1003C0008F7D83BF0895CF93DF93282F30E0F9010D
:1003D000EA5DFE4F8491F901EF50FF4FD491F9018E
:1003E000E454FF4FC491CC23A1F081110E94AE01CF
:1003F000EC2FF0E0EE0FFF1FE455FF4FA591B491F5
:10040000EC91ED2381E090E009F480E0DF91CF9161
:10041000089580E090E0FACF1F93CF93DF93282FC9
:1004200030E0F901EA5DFE4F8491F901EF50FF4F92
:10043000D491F901E454FF4FC491CC23A9F0162FB5
:1004400081110E94AE01EC2FF0E0EE0FFF1FE45689
:10045000FF4FA591B4918FB7F894EC91111108C09A
:10046000D095DE23DC938FBFDF91CF911F9108954C
:10047000DE2BF8CFCF93DF9390E0FC01EF50FF4FDE
:10048000249184549F4FFC0184918823C9F090E00B
:10049000880F991FFC01E457FF4FA591B491FC010F
:1004A000E456FF4FC591D49161110DC09FB7F894E8
:1004B0008C91209582238C938881282328839FBF49
:1004C000DF91CF910895623051F49FB7F8943C9139
:1004D000822F809583238C93E8812E2BEFCF8FB7CB
:1004E000F894EC912E2B2C938FBFEACF1F93CF93D0
:1004F000DF93182FEB0161E00E943A02209739F454
:1005000060E0812FDF91CF911F910C940C02CF3FBF
:10051000D10511F461E0F5CFE12FF0E0EA5DFE4F87
:10052000E491E150EC3008F050C0F0E0E656FD4FA9
:100530000C946C35A602A602E502AE02B402BA0221
:10054000C202E502E502C702D102DB0283B7806284
:1005500083BFC1BFDF91CF911F9108958FB5806890
:100560008FBDDBBDCABDF6CF8FB580628FBDD9BD53
:10057000C8BDF0CF8FB588608FBDD0937900C09390
:100580007800E8CF85B5806285BDC3BDE3CF80919B
:100590008B00806880938B00D0938700C093860087
:1005A000D9CF80918B00806280938B00D09385009F
:1005B000C0938400CFCF80918B00886080938B00A4
:1005C000D0938300C0938200C5CFC038D1050CF012
:1005D000A1CF96CF8D52806487B9369A3699FECFD7
:1005E00084B195B108958330910588F09C01220F64
:1005F000331F280F391FC90107972031310528F013
:10060000AEEEBBEE0E9475350D970197F1F7089598
:10061000CF92DF92EF92FF926FB7F8948091E50846
:100620009091E608A091E708B091E8085091E4089D
:1006300022B736B7432F417030FF04C041E02F3F4F
:1006400009F440E06FBF6C017D0137E0CC0CDD1C8C
:10065000EE1CFF1C3A95D1F7C50ED11CE11CF11C14
:10066000C81AD90AEA0AFB0A880F991FAA1FBB1FDA
:10067000C81AD90AEA0AFB0A63E0CC0CDD1CEE1C9E
:10068000FF1C6A95D1F730E0A9ECB5E00E94753502
:10069000672F782F892F99276C0D7D1D8E1D9F1D2B
:1006A000442321F067537A4F8F4F9F4FFF90EF9075
:1006B000DF90CF9008958F929F92AF92BF92CF928A
:1006C000DF92EF92FF924B015C010E9408036B01E5
:1006D0007C010E9408036C197D098E099F09683E00
:1006E000734081059105A8F321E0821A9108A108C1
:1006F000B10888EEC80E83E0D81EE11CF11C8114FD
:100700009104A104B10429F7FF90EF90DF90CF90FE
:10071000BF90AF909F908F90089508950895AF92E5
:10072000BF92CF92DF92EF92FF920F931F93CF93DE
:10073000DF936C017B018B01040F151FEB015E0140
:10074000AE18BF08C017D10759F06991D601ED91D5
:10075000FC910190F081E02DC6010995892B79F774
:10076000C501DF91CF911F910F91FF90EF90DF9026
:10077000CF90BF90AF900895FC01538D448D252FED
:1007800030E0842F90E0821B930B541710F0CF962B
:10079000089501970895FC01918D828D981761F05D
:1007A000A28DAE0FBF2FB11D5D968C91928D9F5F74
:1007B0009F73928F90E008958FEF9FEF0895FC0153
:1007C000918D828D981731F0828DE80FF11D858D06
:1007D00090E008958FEF9FEF0895FC01918D228D99
:1007E000892F90E0805C9F4F821B91098F7399271E
:1007F000089584E799E00E94ED0321E0892B09F434
:1008000020E0822F089581E19AE00E94ED0321E02B
:10081000892B09F420E0822F0895FC01A48DA80FF4
:10082000B92FB11DA35ABF4F2C91848D90E0019632
:100830008F739927848FA689B7892C93A089B18952
:100840008C91837080648C93938D848D981306C0F3
:100850000288F389E02D80818F7D80830895EF9257
:10086000FF920F931F93CF93DF93EC0181E0888F6A
:100870009B8D8C8D98131AC0E889F989808185FF3A
:1008800015C09FB7F894EE89FF896083E889F989DC
:1008900080818370806480839FBF81E090E0DF91DE
:1008A000CF911F910F91FF90EF900895F62E0B8D31
:1008B00010E00F5F1F4F0F731127E02E8C8D8E11EC
:1008C0000CC00FB607FCFACFE889F989808185FF53
:1008D000F5CFCE010E940D04F1CFEB8DEC0FFD2F73
:1008E000F11DE35AFF4FF0829FB7F8940B8FEA890E
:1008F000FB8980818062CFCFCF93DF93EC01888D1D
:100900008823B9F0AA89BB89E889F9898C9185FD8A
:1009100003C0808186FD0DC00FB607FCF7CF8C9118
:1009200085FFF2CF808185FFEDCFCE010E940D04BF
:10093000E9CFDF91CF91089580E090E0892B29F0F5
:100940000E94030481110E94000080E090E0892B46
:1009500029F00E94F90381110C940000089585ED9F
:10096000809374008091740084FDFCCF1092F10894
:10097000089520919C08260F3327331F213231051B
:10098000ECF42091F108FC0190E080E0243069F063
:1009900082E00895A0919C082191AC014458574FE2
:1009A000A40FB52FB11D2C930196861798F3809153
:1009B0009C08680F60939C0880E0089581E008958A
:1009C0000895E091370980913609E81730F4F0E096
:1009D000EA5EF64F808190E008958FEF9FEF0895D3
:1009E0008091360990913709891B990B0895CF9210
:1009F000DF92EF92FF920F931F93CF93DF937C01CF
:100A0000CB018A012091F208222389F0EB016B01CE
:100A1000C40ED51ECC15DD0569F06991D701ED91A5
:100A2000FC910190F081E02DC7010995F3CF642F6F
:100A30000E94B904C801DF91CF911F910F91FF90DF
:100A4000EF90DF90CF900895CF93DF931F92CDB7B3
:100A5000DEB769832091F2082223F9F0209115096D
:100A6000203258F021E030E0FC013383228390E013
:100A700080E00F90DF91CF9108958091F308E82FE7
:100A8000F0E0EC50F74F998190838F5F8093F308EB
:100A90008093150981E090E0ECCF61E0CE010196F2
:100AA0000E94B904F7CFCF93DF93EC0160E08E8111
:100AB0000E940C0281E090E00E94F30261E08E81CE
:100AC0000E940C0281E090E00E94F30260E08E81BF
:100AD0000E940C0284E690E0DF91CF910C94F30227
:100AE000CF92DF92EF92FF920F931F93CF93DF93FA
:100AF0006C017C0187E0E80EF11CD0E0C0E0062F1D
:100B000010E0B8010C2E02C0759567950A94E2F7C3
:100B10006170F70181917F010E940C022196C4301F
:100B2000D10579F7C601DF91CF911F910F91FF9009
:100B3000EF90DF90CF900C945305CF92DF92EF921D
:100B4000FF920F931F93CF93DF93EC01F62E642F48
:100B50008C810E940C028D818F3F19F060E00E9411
:100B60000C020F2D10E08F8584FF25C06E0187E0F9
:100B7000C80ED11CF12CE12CB8010E2C02C07595C9
:100B800067950A94E2F76170F60181916F010E9406
:100B90000C02FFEFEF1AFF0A88E0E816F10461F794
:100BA000CE01DF91CF911F910F91FF90EF90DF90D9
:100BB000CF900C945305B80184E0759567958A959C
:100BC000E1F7CE010E9470056F2DCE01DF91CF912C
:100BD0001F910F91FF90EF90DF90CF900C947005D4
:100BE00040E0682F8AEB9AE00C949D0581E00E941A
:100BF000F00580ED97E00C94F302CF93DF93613022
:100C000029F09091C90A98609093C90A6093CD0A1F
:100C10001092CE0A90E49093CF0A8093D00A805C21
:100C20008093D10A61E08091BE0A0E943A028091CD
:100C3000BF0A8F3F19F061E00E943A0261E08091A3
:100C4000C00A0E943A02CAEBDAE09E012A5B3A40EF
:100C50008091C90A84FD0BC084E090E0219628179A
:100C6000390744F461E08E810E943A02EECF88E0B9
:100C700090E0F4CF80E593EC0E94F30260E0809175
:100C8000BE0A0E940C0260E08091C00A0E940C0221
:100C90008091BF0A8F3F19F060E00E940C028091A2
:100CA000C90A84FD35C063E08AEB9AE00E947005B2
:100CB00084E991E10E94F30263E08AEB9AE00E94EA
:100CC000700584E991E10E94F30263E08AEB9AE007
:100CD0000E94700586E990E00E94F30262E08AEBD0
:100CE0009AE00E9470058091C90A80620E94F00516
:100CF00084E08093CA0A8CE00E94F0050E94F60509
:100D000082E08093CB0A86E0DF91CF910C94F005CE
:100D100080620E94F00584E991E10E94F3028091D3
:100D2000C90A80620E94F00586E990E00E94F30201
:100D30008091C90A80620E94F005D5CF643008F026
:100D400063E09091CD0A691710F06FEF690FE62FFD
:100D5000F0E0E654F54F9489890F80680C94F00513
:100D600041E00E949D0581E090E00895089590E0A3
:100D700080E008951F93CF93DF93D82FC62F142FB1
:100D8000682F61708CE20E940C02D1FB662760F92B
:100D90008BE20E940C026D2F659565958AE20E9498
:100DA0000C0211110FC08DE2CC2339F08EE2C1305C
:100DB00021F08FE2C23009F080E3DF91CF911F91E3
:100DC0000C94E3018DE2CC2339F08EE2C13021F0A6
:100DD0008FE2C23009F080E30E94EA0225E0289FFA
:100DE000B001299F700D1124072E000C880B990B60
:100DF0000E94E6332AE939E94CEC52E40E943C3384
:100E00000E94AE33CB01DF91CF911F9108950F93D4
:100E10001F93CF93DF9300271127061B170B8130F9
:100E20002FEF92070CF446C08F3F910509F0CCF5E7
:100E3000CC27DD27C81BD90B61302FEF72072CF1AF
:100E40006F3F710509F024F597FD29C060E082E04D
:100E50000E940C02662777276C1B7D0B83E00E94A3
:100E60007602CC27DD27C01BD10B60E010161106DF
:100E70000CF461E084E00E940C02BE0185E0DF9189
:100E8000CF911F910F910C9476020FEF10E0DCCF01
:100E900001E01FEFD9CF0FEF10E0CFEFD0E061E01E
:100EA000D6CF61308FEF780784F40FEF10E0C1E008
:100EB000DFEFCCCF61302FEF72076CF36F3F71051E
:100EC00061F35CF301E01FEFE8CF6F3F710579F349
:100ED00074F301E01FEFEBCFCF92DF92EF92FF921E
:100EE0000F931F93CF93DF938B01EA011DBC1CBCB2
:100EF0008C309105C1F18D30910509F448C00B97F4
:100F0000F1F034E6E32EF12C8CB59DB5B7010E94CB
:100F100003356017710728F4BE01CE010E94070750
:100F2000F3CF70E060E090E080E0DF91CF911F911F
:100F30000F91FF90EF90DF90CF900C94070724E67D
:100F4000C22ED12CEE24FF24E41AF50A8CB59DB5EF
:100F5000B6010E9403356017710718F7BE01C7017B
:100F60000E940707F3CF94E6C92ED12CEE24FF246C
:100F7000E41AF50A8CB59DB5B6010E9403356017D9
:100F8000710778F6B701CE010E940707F3CF84E618
:100F9000E82EF12CD195C195D1098CB59DB5B7013D
:100FA0000E9403356017710708F0BBCFBE01CE0168
:100FB0000E940707F2CF40E060E080E00E94BA069E
:100FC000019729F46FEF70E08FEF90E00BC040E0E5
:100FD00061E081E00E94BA06019731F468E770E0B1
:100FE0008CED90E00C94070740E061E082E00E9405
:100FF000BA0665E570E0019739F340E061E083E00F
:101000000E94BA0667E97FEF0197F1F240E061E0E4
:1010100084E00E94BA0661E57FEF0197A9F240E003
:1010200061E085E00E94BA06019719F461E07FEF64
:10103000CBCF40E061E086E00E94BA060197B1F3B1
:1010400040E060E081E00E94BA06019729F46FEF6A
:1010500070E08BE990E0C6CF40E060E082E00E9463
:10106000BA06019729F46FEF70E085E590E0BACFFA
:1010700040E060E083E00E94BA06019729F46FEF38
:1010800070E087E99FEFAECF40E060E084E00E942F
:10109000BA06019729F46FEF70E081E59FEFA2CFC8
:1010A00040E060E085E00E94BA06019729F46FEF06
:1010B00070E081E09FEF96CF40E060E086E00E9424
:1010C000BA06019709F07ECFF2CF0F931F93CF930B
:1010D000DF938C01D0E0C0E061E083E20E940C026B
:1010E00062E370E080E090E00E945B0360E083E2F6
:1010F0000E940C0262E370E080E090E00E945B03DB
:1011000021960C171D0741F7DF91CF911F910F9189
:1011100008959FEF909366089093670880936808FE
:1011200087E08093690883E080936A088EE180936A
:101130006B0860936C0870936D0840936E08509331
:101140006F0861E086E10E940C02E8E6F8E080E0CA
:1011500092E02191820F9F5F9A30D9F7809580931A
:101160007008E6E6F8E080E090919B0095FFFCCFE8
:10117000919190939C008F5F8B30B1F780919B0091
:1011800086FFFCCF6AE070E080E090E00C945B03A7
:101190000F931F93CF93DF938C01EB01AB01BC0145
:1011A0008BE00E9489086FEF73E0601B710BAE014A
:1011B0008AE0DF91CF911F910F910C9489082FEF56
:1011C00030E0309339092093380930933B0920935C
:1011D0003A092DEF30E030933D0920933C091092FD
:1011E0003F0910923E09082E000C990B909341097B
:1011F0008093400989E090E09093430980934209ED
:10120000109245091092440983E090E090934709B9
:10121000809346098EE190E09093490980934809B4
:1012200010924B0910924A09CB01992790934D09CE
:1012300080934C0970934E0910924F09CA01992767
:101240009093510980935009509352091092530979
:101250000E94DB009C0133273093550920935409E9
:10126000909356091092570961E086E10E940C02A2
:10127000E8E3F9E080919B0085FFFCCF8081329606
:1012800080939C0089E0E835F807A1F780919B00E6
:1012900086FFFCCF6FE070E080E090E00C945B0391
:1012A000CF93DF93CDB7DEB72E970FB6F894DEBF9E
:1012B0000FBECDBF84E191E09A8789871C861B868B
:1012C00082E08C838AEB9AE09E878D87AE01495E2F
:1012D0005F4F6D897E89CE0101960E947B302E96EC
:1012E0000FB6F894DEBF0FBECDBFDF91CF9108954A
:1012F000AC018091F1088111FCCF962F81E08093A1
:10130000F1088093F0082FEF2093EF0826E139E0F1
:101310003093EE082093ED081092EC082FEF260F83
:101320002093EB088093EA082091EA08440F551FA8
:10133000822F842B8093EA088091E9088130E9F4B8
:101340001092E9088091EA088093730080917400FC
:1013500083FDF8CF85EC809374008091F108813093
:10136000E1F38091EC08861710F49091EC0810924C
:10137000370990933609892F089585EEECCF8F9227
:101380009F92AF92BF920F931F93CF93DF93CDB7EE
:10139000DEB7A1970FB6F894DEBF0FBECDBF19A27E
:1013A000423008F44AE08E010F5D1F4F842E912CCD
:1013B000B12CA12CA50194010E942B35E62FB90177
:1013C000CA01EA3044F5E05DD801EE938D01232B8C
:1013D000242B252B79F790E080E0109769F0FD0130
:1013E00001900020E9F73197AF014A1B5B0BBD016B
:1013F0008AEB9AE00E948F03A1960FB6F894DEBFA5
:101400000FBECDBFDF91CF911F910F91BF90AF90D5
:101410009F908F900895E95CD7CFCF92DF92EF92A3
:10142000FF926C01990FEE08FF08F7FE16C041E02D
:101430006DE28AEB9AE00E949D0566277727CB0133
:101440006C197D098E099F094AE00E94BF09019627
:10145000FF90EF90DF90CF9008954AE0C701B6016A
:10146000FF90EF90DF90CF900C94BF09FC010190AA
:101470000020E9F73197AF01481B590BBC018AEBFB
:101480009AE00C948F031F93CF93DF93EC01162FF8
:10149000672F0E942A33612FCE010196DF91CF91F1
:1014A0001F910C942A330F931F93CF938C010E94AA
:1014B0002233C82FC80101960E9422332C2F30E01E
:1014C000322F2227820F932F911DCF911F910F91C1
:1014D0000895AF92BF92CF92DF92EF92FF920F9357
:1014E0001F93CF93DF93D82E81E0D812F5C060E030
:1014F0008AE20E940C0260E08BE20E940C0260E033
:101500008CE20E940C028AE090E00E94F30289E3E0
:101510000E94A10160E88EEA9AE00E94240563E03F
:101520008EEA9AE00E9424050E94AB0189E30E94A2
:10153000A1016FE88EEA9AE00E94240561E08EEA3C
:101540009AE00E9424050E94AB0189E30E94A10158
:1015500064E98EEA9AE00E9424050E94AB0168E0EB
:1015600070E089E390E00E947809809136099091BB
:101570003709891B990B0897D4F10E943601EC01B9
:101580000E9436011FEFDD27819FC00DD11D112460
:10159000D093C408C093C3080E943601EC010E9496
:1015A0003601DD27819FC00DD11D1124D093CA08BB
:1015B000C093C9080E943601EC010E943601DD2764
:1015C000819FC00DD11D1124D093C808C093C708B6
:1015D0000E943601EC010E943601DD27819FC00D7B
:1015E000D11D11242A97D093C608C093C508E09056
:1015F000C908F090CA080091C7081091C80881E096
:10160000D812B1C1C090C508D090C6088AE990E050
:101610000E94530AEC010E151F050CF075C0CE1484
:10162000DF040CF0BAC084E190E00E94530A9C01F0
:101630002C0F3D1FE216F3060CF0B3C08C1B9D0B64
:101640008E159F050CF0ADC086E190E00E94530A14
:101650009C012C0F3D1F021713070CF0A2C08C1B1E
:101660009D0B801791070CF09CC088E190E00E94D0
:10167000530A9C012C0F3D1FC216D3060CF091C0DB
:101680008C1B9D0B8C159D050CF08BC08AE190E0A6
:101690000E94530A2091C3083091C408AC014C0F3A
:1016A0005D1F241735070CF07CC08C1B9D0B821727
:1016B00093070CF076C010927B0810927A08809104
:1016C0007A08DF91CF911F910F91FF90EF90DF90FB
:1016D000CF90BF90AF90089582E0D8120AC060E02A
:1016E0008AE20E940C0260E08BE20E940C0261E040
:1016F00007CF61E08CE20E940C0261E08BE20E9465
:101700000C0260E08AE2FDCEE016F1060CF045C066
:10171000C016D1060CF041C08CE190E00E94530A43
:101720009C012C0F3D1FE216F306BCF58C1B9D0B94
:101730008E159F0594F58EE190E00E94530A9C015E
:101740002C0F3D1F0217130744F58C1B9D0B8017B0
:1017500091071CF580E290E00E94530A9E01280F39
:10176000391FC216D306CCF48C1B9D0B8C159D051E
:10177000A4F482E290E00E94530A2091C3083091C1
:10178000C408AE01480F591F2417350734F48C1BC9
:101790009D0B821793070CF41DC2EC14FD040CF48E
:1017A0004FC08CE290E00E94530A9E01280F391F1F
:1017B000E216F3060CF497C084E390E00E94530A0B
:1017C0009E01280F391F2E153F05BCF18C1B9D0B68
:1017D000E816F90694F186E390E00E94530A9C0112
:1017E0002C1B3D0B0217130744F18C0F9D1F801714
:1017F00091071CF188E390E00E94530A9C012C1B86
:101800003D0BC216D306CCF08C0F9D1F8C159D0589
:10181000A4F08AE390E00E94530A2091C30830911B
:10182000C408AE01480F591F4217530734F08C1BF0
:101830009D0B281739070CF00EC287E090E04EC0D0
:101840000C151D050CF0ADCF84E290E00E94530A08
:101850009E01280F391FE216F3060CF0A2CF8C1B55
:101860009D0B8E159F050CF09CCF86E290E00E94A8
:10187000530A9E01280F391F021713070CF091CF4E
:101880008C1B9D0B801791070CF08BCF88E290E0AA
:101890000E94530A9E01280F391FC216D3060CF06E
:1018A00080CF8C1B9D0B8C159D050CF07ACF8AE2A6
:1018B00090E00E94530A2091C3083091C408AE0101
:1018C000480F591F241735070CF06BCF8C1B9D0B4D
:1018D000821793070CF065CF82E090E090937B082D
:1018E00080937A08ECCE8C1B9D0B8E159F050CF017
:1018F00063CF8EE290E00E94530A9E01280F391FA9
:10190000021713070CF058CF8C1B9D0B8017910703
:101910000CF052CF80E390E00E94530A9E01280F02
:10192000391FC216D3060CF047CF8C1B9D0B8C15AC
:101930009D050CF041CF82E390E00E94530A209174
:10194000C3083091C408AE01480F591F241735074A
:101950000CF032CF8C1B9D0B821793070CF02CCF11
:1019600084E090E0BBCF82E0D81278C1C090C50877
:10197000D090C6088AE990E00E94530AEC010E1547
:101980001F050CF086C0CE14DF040CF086C08CE37B
:1019900090E00E94530A9E01280F391FE216F306B9
:1019A000BCF58C1B9D0B8E159F0594F58EE390E086
:1019B0000E94530A9E01280F391F0217130744F58E
:1019C0008C1B9D0B801791071CF580E490E00E9412
:1019D000530A9E01280F391FC216D306CCF48C1B64
:1019E0009D0B8C159D05A4F482E490E00E94530A9F
:1019F0002091C3083091C408AE01480F591F241725
:101A0000350734F48C1B9D0B821793070CF453CECF
:101A100084E590E00E94530A9E01280F391FE216C8
:101A2000F3060CF4DAC08CE590E00E94530A9E01A4
:101A3000280F391F2E153F050CF4FFCE8C1B9D0B74
:101A4000E816F9060CF4F9CE8EE590E00E94530AF0
:101A50009C012C1B3D0B021713070CF4EECE8C0FD0
:101A60009D1F801791070CF4E8CE80E690E00E945D
:101A7000530A9C012C1B3D0BC216D3060CF4DDCE81
:101A80008C0F9D1F8C159D050CF4D7CE82E690E03F
:101A9000C2CEE016F1060CF451C0EC14FD040CF0BB
:101AA000B7CF0C151D050CF0B3CF8CE490E00E946D
:101AB000530A9E01280F391FE216F3060CF0A8CF37
:101AC0008C1B9D0B8E159F050CF0A2CF8EE490E031
:101AD0000E94530A9E01280F391F021713070CF0AA
:101AE00097CF8C1B9D0B801791070CF091CF80E551
:101AF00090E00E94530A9E01280F391FC216D30698
:101B00000CF086CF8C1B9D0B8C159D050CF080CFA7
:101B100082E590E00E94530A2091C3083091C408E6
:101B2000AE01480F591F241735070CF071CF8C1BDD
:101B30009D0B821793070CF4CFCE6ACFC016D10647
:101B40000CF0ABCF84E490E00E94530A9E01280F72
:101B5000391FE216F3060CF0A0CF8C1B9D0B8E15DF
:101B60009F050CF09ACF86E490E00E94530A9E01F4
:101B7000280F391F021713070CF08FCF8C1B9D0BFA
:101B8000801791070CF089CF88E490E00E94530AF7
:101B90009E01280F391FC216D3060CF07ECF8C1B76
:101BA0009D0B8C159D050CF078CF8AE490E00E9487
:101BB000530A2091C3083091C408AE01480F591F41
:101BC000241735070CF069CF8C1B9D0B82179307E8
:101BD0000CF063CF81E090E081CE8C1B9D0B8E15C5
:101BE0009F050CF020CF86E590E00E94530A9E01ED
:101BF000280F391F021713070CF015CF8C1B9D0BF4
:101C0000801791070CF00FCF88E590E00E94530AEF
:101C10009E01280F391FC216D3060CF004CF8C1B6F
:101C20009D0B8C159D050CF0FECE8AE590E00E9480
:101C3000530A2091C3083091C408AE01480F591FC0
:101C4000241735070CF0EFCE8C1B9D0B82179307E2
:101C50000CF486CEE8CE85E090E040CE0E151F0550
:101C60000CF057C0C090C508D090C608CE14DF0451
:101C70000CF0E3CD84E690E00E94530A5C018AE90F
:101C800090E00E94530AEC01C5018C0F9D1FE816DD
:101C9000F9060CF0D2CDAC1ABD0AAE14BF040CF09C
:101CA000CCCD86E690E00E94530A9E01280F391F92
:101CB000021713070CF0C1CD8C1B9D0B80179107E9
:101CC0000CF0BBCD88E690E00E94530A9E01280FDD
:101CD000391FC216D3060CF0B0CD8C1B9D0B8C1592
:101CE0009D050CF0AACD8AE690E00E94530A20914F
:101CF000C3083091C408AE01480F591F2417350797
:101D00000CF09BCD8C1B9D0B821793070CF4D3CC4E
:101D100094CDE016F1060CF090CDC090C508D0909F
:101D2000C608C016D1060CF088CD8CE690E00E9463
:101D3000530A5C018AE990E00E94530AEC01C50154
:101D40008C0F9D1FE816F9060CF077CDAC1ABD0A72
:101D5000AE14BF040CF071CD8EE690E00E94530AE1
:101D60009E01280F391F021713070CF066CD8C1B3C
:101D70009D0B801791070CF060CD80E790E00E94EA
:101D8000530A9E01280F391FC216D3060CF055CDF9
:101D90008C1B9D0B8C159D050CF04FCD82E790E0C0
:101DA0000E94530A2091C3083091C408AE01480F25
:101DB000591F241735070CF040CD8C1B9D0B821743
:101DC00093070CF407CF39CD0F931F93CF93DF9375
:101DD00088E990E00E94530AEC0140E060E080E076
:101DE0000E94BA06892BB9F040E062E082E00E94CE
:101DF000BA06892BF1F040E060E080E00E94BA066C
:101E0000892B09F44DC040E063E082E00E94BA06ED
:101E1000892B79F014C040E060E081E00E94BA06AE
:101E2000892B11F740E061E081E00E94BA06892B1E
:101E3000D9F681E00E94690A873009F442C0CE01D8
:101E400063E070E00E9417358B0146E950E08AE0BC
:101E500090E00E946C07BE01DD0F880B990B0E9479
:101E6000E63326E636E646EA5FE30E943C330E940C
:101E7000AE3346E950E08BE090E00E946C0746E903
:101E800050E0B8018AE090E00E946C076CE370E0DB
:101E90008CE390E0DF91CF911F910F910C94070795
:101EA00040E060E081E00E94BA06892B09F0ABCFE8
:101EB00040E061E081E00E94BA06892B09F4B9CFC5
:101EC000A2CF82E00E94690A873009F0B8CF0E9451
:101ED000DB0783CF0E94F605CAEBDAE04BE0C42EA5
:101EE000D12CE12CF12C88E00E94E301892BA9F48C
:101EF00088E00E94E301892BD9F362E370E080E07F
:101F000090E00E945B03809100018F5F87300CF0AE
:101F10005DC1809300010E94F60589E00E94E30103
:101F2000892BA9F489E00E94E301892BD9F362E3AC
:101F300070E080E090E00E945B038091000181509E
:101F400018160CF045C1809300010E94F6058AE046
:101F50000E94E301892B09F03DC168E270E088E24C
:101F600090E00E94070780910001813009F095C13F
:101F700060E080E00E949E0640E063E082E00E9414
:101F8000BA06B82EA92E40E060E080E00E94BA06B2
:101F9000182F092F40E062E082E00E94BA06AF925B
:101FA000BF920F931F939F938F9387E395E09F9327
:101FB0008F93DF93CF930E94500961E080E00E94ED
:101FC0009E0640E061E083E00E94BA06582E492E4A
:101FD00040E061E082E00E94BA06782E692E40E07F
:101FE00061E081E00E94BA06982E892E40E060E010
:101FF00081E00E94BA06B82EA92E40E060E082E09F
:102000000E94BA06182F092F40E060E083E00E948A
:10201000BA064F925F926F927F928F929F92AF9289
:10202000BF920F931F939F938F938BE495E09F93A1
:102030008F93DF93CF930E94500962E080E00E946B
:102040009E0640E061E086E00E94BA06382E292E06
:1020500040E061E085E00E94BA06582E492E40E03B
:1020600061E084E00E94BA06782E692EACB4BDB45B
:1020700040E060E084E00E94BA06982E892E40E09D
:1020800060E085E00E94BA06182F092F40E060E06A
:1020900086E00E94BA069C012F923F924F925F9277
:1020A0006F927F92C50164E670E00E9403357F93D2
:1020B0006F938F929F920F931F933F932F9382E67C
:1020C00095E09F938F93DF93CF930E9450092DB794
:1020D0003EB7245D3F4F0FB6F8943EBF0FBE2DBFF5
:1020E00063E080E00E949E0640E060E087E00E949E
:1020F000BA06B82EA92E40E062E080E00E94BA063F
:10210000182F092F40E062E081E00E94BA06AF92EA
:10211000BF920F931F939F938F9302E715E01F9336
:102120000F93DF93CF930E94500963E08DE00E94EC
:102130009E0640E063E081E00E94BA06982E892E58
:1021400040E063E080E00E94BA06B82EA92E40E08D
:1021500061E087E00E94BA068F929F92AF92BF9291
:102160009F938F931F930F93DF93CF930E945009F8
:1021700063E084E00E949E0681E00E94690A2DB718
:102180003EB72C5E3F4F0FB6F8943EBF0FBE2DBF3B
:1021900081112FC08AE694E00E94360A63E089E04C
:1021A0000E949E0682E00E94690A811145C08EE766
:1021B00095E00E94360A86E00E94E301892B09F02F
:1021C00092CE1DBC1CBC1DBC1CBC8DCE81E0A1CE22
:1021D00086E0B9CE8BE00E94E301892B29F468EDFB
:1021E0007FEF88ED9FEFBDCE70E060E090E080E093
:1021F000B8CE81E00E94690A813019F481E894E048
:10220000CBCF81E00E94690A823019F485E694E020
:10221000C3CF81E00E94690A843019F489E795E010
:10222000BBCF81E00E94690A853019F489E994E006
:10223000B3CF8EE994E0B0CF82E00E94690A81308A
:1022400019F482E895E0B5CF82E00E94690A8230F5
:1022500019F486E895E0ADCF82E00E94690A8430E7
:1022600019F48AE895E0A5CF41E061E086E00E949C
:10227000BA06BC01990F880B990B0E94E63326E63B
:1022800036E646E65FE30E94373387FF03C08EE8F9
:1022900095E08FCF82E995E08CCF823009F092C033
:1022A00060E080E00E949E0641E060E080E00E94E5
:1022B000BA06182F092F41E062E082E00E94BA06B8
:1022C0000F931F939F938F9386E995E09F938F932E
:1022D000DF93CF930E94500961E085E00E949E0643
:1022E00041E060E081E00E94BA06B82EA92E41E0EC
:1022F00060E082E00E94BA06182F092F41E060E0FA
:1023000083E00E94BA06AF92BF920F931F939F93F0
:102310008F938BEA95E09F938F93DF93CF930E94E7
:10232000500962E082E00E949E0641E060E084E0A5
:102330000E94BA06B82EA92E41E060E085E00E9416
:10234000BA06182F092F41E060E086E00E94BA0625
:10235000AF92BF920F931F939F938F930CEB15E057
:102360001F930F93DF93CF930E94500963E080E0A7
:102370000E949E0641E060E087E00E94BA06982E27
:10238000892E41E062E080E00E94BA06B82EA92EB4
:1023900041E062E081E00E94BA068F929F92AF9284
:1023A000BF929F938F931F930F93DF93CF930E94BE
:1023B0005009EDB7FEB7B6960FB6F894FEBF0FBE44
:1023C000EDBF91CD833009F090C060E080E00E94C5
:1023D0009E0641E063E082E00E94BA06182F092FB2
:1023E00041E060E080E00E94BA060F931F939F9344
:1023F0008F938EEC95E09F938F93DF93CF930E9402
:10240000500961E082E00E949E0641E061E083E0C5
:102410000E94BA06B82EA92E41E061E082E00E9437
:10242000BA06182F092F41E061E081E00E94BA0648
:10243000AF92BF920F931F939F938F930CEB15E076
:102440001F930F93DF93CF930E94500962E084E0C3
:102450000E949E0641E061E086E00E94BA06982E46
:10246000892E41E061E085E00E94BA06B82EA92ECF
:1024700041E061E084E00E94BA068F929F92AF92A1
:10248000BF929F938F931F930F93DF93CF930E94DD
:10249000500963E086E00E949E0641E063E081E02F
:1024A0000E94BA06982E892E41E063E080E00E94E7
:1024B000BA06B82EA92E41E061E087E00E94BA0674
:1024C0008F929F92AF92BF929F938F931F930F9380
:1024D000DF93CF930E9450098DB79EB786960FB6B3
:1024E000F8949EBF0FBE8DBFFECC843009F07EC035
:1024F00060E080E00E949E0640E063E084E00E948D
:10250000BA06B82EA92E40E063E083E00E94BA0626
:10251000182F092F40E062E084E00E94BA06AF92D3
:10252000BF920F931F939F938F93E3EEF5E0FF937A
:10253000EF93DF93CF930E94500961E080E00E9407
:102540009E0641E062E086E00E94BA06182F092F3D
:1025500040E062E086E00E94BA060F931F939F93CB
:102560008F93E6EFF5E0FF93EF93DF93CF930E9415
:10257000500962E080E00E949E0641E062E085E052
:102580000E94BA06182F092F40E062E085E00E9401
:10259000BA060F931F939F938F93E7E0F6E0FF93A4
:1025A000EF93DF93CF930E94500963E080E00E9495
:1025B0009E0686E20E94E301182F092F85E20E9401
:1025C000E3010F931F939F938F93E7E1F6E0FF934F
:1025D000EF93DF93CF930E945009EDB7FEB7B29609
:1025E0000FB6F894FEBF0FBEEDBF7DCC853009F06D
:1025F0009AC060E080E00E949E0661E089E10E944E
:102600003A0260E089E10E940C0282E090E00E94C0
:10261000F30261E089E10E940C028AE090E00E94EE
:10262000F30260E089E10E940C0260E080E10E9418
:102630003A02E1E0F1E06491ECECF0E08491E82F03
:10264000F0E0EE0FFF1FE455FF4F859194910CE8E9
:102650001DE72AE030E0462F0E94F8159B01AC01EF
:10266000211531054105510579F06F5F7F4F8F4F7F
:102670009F4F24E0660F771F881F991F2A95D1F777
:10268000A70196010E942B35AAE0B0E00E94843594
:102690002AE330E040E050E00E944D353F932F9315
:1026A00028E236E03F932F93DF93CF930E945009A7
:1026B00061E080E00E949E0683E00E9442169F93A4
:1026C0008F9322E336E03F932F93DF93CF930E94C3
:1026D000500962E080E00E949E0681E00E9442165E
:1026E000182F092F82E00E9442160F931F939F9389
:1026F0008F9321E436E03F932F93DF93CF930E9493
:10270000500968EC70E080E090E00E945B030E945A
:10271000F6052DB73EB72C5E3F4F0FB6F8943EBF7F
:102720000FBE2DBFE0CB863009F0DDCB60E080E04E
:102730000E949E0683E090E00E94F816B82EA92E13
:1027400082E090E00E94F816182F092F81E090E0B7
:102750000E94F816AF92BF920F931F939F938F938F
:1027600082E596E09F938F93DF93CF930E94500969
:102770008DB79EB70A960FB6F8949EBF0FBE8DBF59
:10278000B2CB1F920F920FB60F9211244F935F930B
:102790006F937F938F939F934091E5085091E60844
:1027A0006091E7087091E8088091E4089091E3084F
:1027B0009A3119F51092E3089091E308953008F1E9
:1027C000845C8D3700F18D574E5F5F4F6F4F7F4FA9
:1027D0008093E4084093E5085093E6086093E70887
:1027E0007093E8089F918F917F916F915F914F91C6
:1027F0000F900FBE0F901F9018959F5F9093E30866
:10280000DBCF835CDECF4F5F5F4F6F4F7F4FE0CFFB
:102810001F920F920FB60F9211240BB60F922F93A7
:102820003F934F935F936F937F938F939F93AF9358
:10283000BF93EF93FF9384E799E00E940D04FF910B
:10284000EF91BF91AF919F918F917F916F915F9128
:102850004F913F912F910F900BBE0F900FBE0F9095
:102860001F9018951F920F920FB60F9211240BB65E
:102870000F922F938F939F93EF93FF93E09184098F
:10288000F09185098081E0918A09F0918B0982FDA0
:102890001DC0908180918D098F5F8F7320918E096B
:1028A000821741F0E0918D09F0E0EC58F64F958FDA
:1028B00080938D09FF91EF919F918F912F910F90B0
:1028C0000BBE0F900FBE0F901F9018958081F2CF16
:1028D0001F920F920FB60F9211240BB60F922F93E7
:1028E0003F934F935F936F937F938F939F93AF9398
:1028F000BF93EF93FF9381E19AE00E940D04FF9153
:10290000EF91BF91AF919F918F917F916F915F9167
:102910004F913F912F910F900BBE0F900FBE0F90D4
:102920001F9018951F920F920FB60F9211240BB69D
:102930000F922F938F939F93EF93FF93E091210A30
:10294000F091220A8081E091270AF091280A82FD05
:102950001DC0908180912A0A8F5F8F7320912B0A6E
:10296000821741F0E0912A0AF0E0EF5EF54F958F73
:1029700080932A0AFF91EF919F918F912F910F9051
:102980000BBE0F900FBE0F901F9018958081F2CF55
:102990001F920F920FB60F9211240BB60F922F9326
:1029A0003F934F935F936F937F938F939F93AF93D7
:1029B000BF93EF93FF9380917100887F803609F475
:1029C0004DC008F040C0883209F4A9C028F5803114
:1029D00009F49DC0C8F4882309F407C1883009F4BC
:1029E00096C0FF91EF91BF91AF919F918F917F9191
:1029F0006F915F914F913F912F910F900BBE0F9070
:102A00000FBE0F901F901895883109F488C080324E
:102A100041F78093EF0814C0803409F4A5C040F456
:102A20008033B9F38833E9F68093EF0885ECBCC0B6
:102A3000803509F489C0883509F49EC0883489F648
:102A40000E94AF04CECF883909F494C038F5883796
:102A500029F050F4883611F0803719F683E080931E
:102A6000F1081092BE0857C0883809F483C0803935
:102A700019F0803809F0B5CF8091BE08803208F097
:102A800079C0E091BE0881E08E0F8093BE088091EE
:102A90007300F0E0E256F74F80833DC0803B39F091
:102AA000E0F4803A09F485C0883A09F09ACF84E0CE
:102AB0008093F10810929D0810929C08E091C10843
:102AC000F091C208099580919C0881110FC081E0A6
:102AD00080939C0810927C0809C0803C09F4A6CF22
:102AE000883C09F4A3CF883B09F07BCFE0919D0897
:102AF00081E08E0F80939D08F0E0E458F74F8081CD
:102B00008093730090919D0880919C0831C08091C2
:102B1000EA088093730085EC8093740062CF9091F3
:102B2000EC088091EB089817B8F58091ED0890912A
:102B3000EE08E091EC0821E02E0F2093EC08E80F5E
:102B4000F92FF11D8081E5CF2091ED083091EE083D
:102B5000E091EC0881E08E0F8093EC088091730087
:102B6000E20FF32FF11D80839091EC088091EB0828
:102B7000981788F285E8D0CF2091ED083091EE08C3
:102B8000E091EC0881E08E0F8093EC088091730057
:102B9000E20FF32FF11D80838091F008811150CF57
:102BA00081E08093E90884EA809374001092F10830
:102BB00018CF85EC809374001092F1088091BE08C4
:102BC000803230F4E091BE08F0E0E256F74F108218
:102BD0006091BE0870E0E091BF08F091C0088EE9F6
:102BE00098E009951092BE08FCCE1092EF0828CF0D
:102BF000CF92DF92EF92FF920F931F93E82FF92F5E
:102C000005C0015011092109310961F19081962314
:102C10009417B9F305C0015011092109310911F1C7
:102C2000908196239413F7CFC12CD12CE12CF12C59
:102C30000AC08FEFC81AD80AE80AF80A0C151D0551
:102C40002E053F0579F080818623841791F36C2D42
:102C50007D2D8E2D9F2D1F910F91FF90EF90DF9076
:102C6000CF90089560E070E080E090E01F910F91B8
:102C7000FF90EF90DF90CF900895682F8EEA9AE052
:102C80000C942405CF93DF93C82F60E0813009F4C2
:102C90003FC061E08230E1F560E08CE20E940C020E
:102CA00060E08BE20E940C0261E08AE20E940C026A
:102CB00089E20E94A10190E080E00E943D1681E03F
:102CC00090E00E943D160E94AB016AE070E080E057
:102CD00090E00E945B0389E20E94A1018EE190E0F6
:102CE0000E943D1680E00E94490162E070E089E2A6
:102CF00090E00E9478098091360990913709891BEC
:102D0000990B029774F481E090E0DF91CF910895E0
:102D10008CE20E940C0261E08BE20E940C0260E0F7
:102D2000C4CF0E943601D82F0E94360120E03D2FEB
:102D3000A901482BCA018431910539F76AE070E096
:102D400080E090E00E945B0360E0C13009F447C07E
:102D500061E0C23009F043C060E08CE20E940C02E6
:102D600060E08BE20E940C0261E08AE20E940C02A9
:102D700089E20E94A10190E080E00E943D1681E07E
:102D800090E00E943D160E94AB016AE070E080E096
:102D900090E00E945B0389E20E94A1018EE190E035
:102DA0000E943D1680E00E94490162E070E089E2E5
:102DB00090E00E9478098091360990913709891B2B
:102DC000990B02970CF49FCF0E943601C82F0E94E6
:102DD000360120E03C2FA901482BCA0196CF8CE296
:102DE0000E940C0261E08BE20E940C0260E0BDCF09
:102DF000BF92CF92DF92EF92FF920F931F93CF93E8
:102E0000DF938C0161E08CE20E940C0261E08BE2B6
:102E10000E940C0260E08AE20E940C0280E60E949E
:102E2000A10182E090E00E943D160E94AB0164E0A7
:102E300070E080E690E00E947809809136099091D8
:102E40003709891B990B049794F10E943601D82FFA
:102E500020E0C22F0E9436018C2B9D2B6AE070E08F
:102E60000E9417358091DB089091DC08EB01C81BAC
:102E7000D90B0E94360124EBD22E9C01D29EC001B8
:102E8000D39E900D1124EE24EA94F12CB7010E94F8
:102E90001735B62EC72E0E9436019C01D29EC00166
:102EA000D39E900D1124B7010E9417357B01D7FFE7
:102EB00002C0C859DE4F0130110529F0023011055A
:102EC00069F0CE2DDF2DCE01DF91CF911F910F91B3
:102ED000FF90EF90DF90CF90BF900895CB2DDC2D29
:102EE000F2CF0E94F60584EA90E00E94530A5C014A
:102EF00086EA90E00E94530A6C0188EA90E00E9402
:102F0000530A4C018AEA90E00E94530A3C018CEA81
:102F100090E00E94530A2C018EEA90E00E94530A2E
:102F20007C0180EB90E00E94530A8C01D0E0C0E06D
:102F30008AEB282E8AE0382E88E00E94E301892B54
:102F4000A9F488E00E94E301892BD9F362E370E0E1
:102F500080E090E00E945B03809101018F5F8930E7
:102F60000CF059C0809301010E94F60589E00E948F
:102F7000E301892BA9F489E00E94E301892BD9F3AD
:102F800062E370E080E090E00E945B0380910101C9
:102F9000815018160CF041C0809301010E94F60583
:102FA00080910101813009F044C060E080E00E941E
:102FB0009E06DF93CF93DF93CF9388E393E09F93B5
:102FC0008F933F922F920E9450098AE00E94E30162
:102FD0002DB73EB7285F3F4F0FB6F8943EBF0FBEE8
:102FE0002DBF892BE1F4E29660E971E080E090E08A
:102FF0000E945B03C1303FEFD30714F4C1E0DFEF61
:10300000CF3FD10519F014F0CFEFD0E0BE01CE01D3
:103010000E94070791CF81E0A5CF88E0BDCF8BE06C
:103020000E94E301892B11F4E297DECFD0E0C0E0EB
:10303000EDCF823009F055C060E080E00E949E062E
:10304000BF92AF921F928AE08F9385E493E09F93A3
:103050008F933F922F920E94500986E00E94E301D5
:103060002DB73EB7285F3F4F0FB6F8943EBF0FBE57
:103070002DBF892B61F4B50184EA90E00E94430AD8
:1030800046E950E0B5018AE00E94890855CF8AE000
:103090000E94E301892B81F462E370E080E090E01C
:1030A0000E945B0338E0A31632E0B3060CF044CF75
:1030B00085E0A80EB11C40CF8BE00E94E301892B74
:1030C00009F03ACF62E370E080E090E00E945B0399
:1030D0009BEFA916B1040CF42FCF25E0A21AB1087A
:1030E0002BCF833009F052C060E080E00E949E0642
:1030F000DF92CF921F928AE08F9386E593E09F93B1
:103100008F933F922F920E94500986E00E94E30124
:103110002DB73EB7285F3F4F0FB6F8943EBF0FBEA6
:103120002DBF892B49F4B60186EA90E00E94430A3C
:1031300046E950E0B601A7CF8AE00E94E301892B5F
:1031400081F462E370E080E090E00E945B0338E08D
:10315000C31632E0D3060CF0EFCE85E0C80ED11CCA
:10316000EBCE8BE00E94E301892B09F0E5CE62E310
:1031700070E080E090E00E945B039BEFC916D104F1
:103180000CF4DACE25E0C21AD108D6CE843009F08C
:1031900055C060E080E00E949E069F928F921F9231
:1031A0008AE08F938BE693E09F938F933F922F92C9
:1031B0000E94500986E00E94E3012DB73EB7285FC8
:1031C0003F4F0FB6F8943EBF0FBE2DBF892B61F461
:1031D00046E950E0B4018BE00E948908B40188EA16
:1031E00090E00E94430AA8CE8AE00E94E301892B66
:1031F00081F462E370E080E090E00E945B0330E2E3
:10320000831633E093060CF097CE85E0880E911C70
:1032100093CE8BE00E94E301892B09F08DCE62E30F
:1032200070E080E090E00E945B0397E989169104CA
:103230000CF482CE25E0821A91087ECE853009F00A
:1032400053C060E080E00E949E067F926F921F92C2
:103250008AE08F938DE793E09F938F933F922F9215
:103260000E94500986E00E94E3012DB73EB7285F17
:103270003F4F0FB6F8943EBF0FBE2DBF892B51F4C0
:10328000B3018AEA90E00E94430A46E950E0B301A4
:103290008BE0FACE8AE00E94E301892B81F462E39D
:1032A00070E080E090E00E945B0330E2631633E060
:1032B00073060CF041CE85E0680E711C3DCE8BE0AC
:1032C0000E94E301892B09F037CE62E370E080E0D1
:1032D00090E00E945B0397E9691671040CF42CCE10
:1032E00025E0621A710828CE863009F053C060E0EC
:1032F00080E00E949E065F924F921F928AE08F9319
:103300008DE893E09F938F933F922F920E945009F4
:1033100086E00E94E3012DB73EB7285F3F4F0FB60E
:10332000F8943EBF0FBE2DBF892B49F4B2018CEA41
:1033300090E00E94430A46E950E0B201A9CF8AE03A
:103340000E94E301892B81F462E370E080E090E069
:103350000E945B0338EE431633E053060CF0ECCDCD
:1033600085E0480E511CE8CD8BE00E94E301892BDB
:1033700009F0E2CD62E370E080E090E00E945B0340
:103380009DE2491691E059060CF4D6CD25E0421A8B
:103390005108D2CD873009F065C060E080E00E941E
:1033A0009E06FF92EF921F928AE08F9381EA93E04C
:1033B0009F938F933F922F920E94500986E00E9424
:1033C000E3012DB73EB7285F3F4F0FB6F8943EBFDD
:1033D0000FBE2DBF892BD9F4B7018EEA90E00E9471
:1033E000430A44E650E0B7018EE10E94DF0862E341
:1033F00070E080E090E00E945B0344E650E065E40A
:1034000074E06E197F098FE10E94DF0895CD8AE094
:103410000E94E301892B81F462E370E080E090E098
:103420000E945B033AE7E31633E0F3060CF084CD29
:1034300085E0E80EF11C80CD8BE00E94E301892B32
:1034400009F07ACD62E370E080E090E00E945B03D7
:103450009BE3E91692E0F9060CF46ECD25E0E21A42
:10346000F1086ACD883009F067CD60E080E00E9405
:103470009E061F930F931F928AE08F9386EB93E033
:103480009F938F933F922F920E94500986E00E9453
:10349000E3012DB73EB7285F3F4F0FB6F8943EBF0C
:1034A0000FBE2DBF892BC1F4B80180EB90E00E94C4
:1034B000430A44E650E0B8018EE10E94DF0862E36F
:1034C00070E080E090E00E945B0344E650E065E439
:1034D00074E0601B710B97CF8AE00E94E301892B97
:1034E00071F462E370E080E090E00E945B030A37D1
:1034F00033E013070CF020CD0B5F1F4F1DCD8BE089
:103500000E94E301892B09F017CD62E370E080E0AF
:1035100090E00E945B030B3382E018070CF40CCDA3
:103520000550110909CD0E94F6058BEE882E83E027
:10353000982ECAEBDAE09FE6E92E94E0F92E21EB13
:10354000C22E24E0D22E3FEBA32E34E0B32E03E0B4
:1035500014E088E00E94E301892B79F488E00E945E
:10356000E301892BD9F3809102018F5F89300CF040
:10357000A8C0809302010E94F60589E00E94E30141
:10358000892B71F489E00E94E301892BD9F38091A2
:103590000201815009F499C0809302010E94F6054E
:1035A0008AE00E94E301892B09F091C068E270E093
:1035B00088E290E00E94070780910201813009F0C3
:1035C000A8C160E080E00E949E068AEC93E00E9421
:1035D000360A61E080E00E949E0686ED93E00E943C
:1035E000360A62E080E00E949E068091C4088F93B4
:1035F0008091C3088F938091C6088F938091C508EE
:103600008F938091C8088F938091C7088F93809182
:10361000CA088F938091C9088F939F928F92DF93EE
:10362000CF930E94500964E670E080E090E00E9431
:103630005B0381E00E94690A2DB73EB7245F3F4FCC
:103640000FB6F8943EBF0FBE2DBF81114FC060E092
:103650008CE00E949E068CEF93E00E94360A63E0A5
:1036600080E00E949E068AE190E00E94530A382E74
:10367000292E88E190E00E94530A582E492E86E1B7
:1036800090E00E94530A782E692E84E190E00E9417
:10369000530A2F923F924F925F926F927F929F9325
:1036A0008F931F930F93DF93CF930E9450092DB7F1
:1036B0003EB7245F3F4F0FB6F8943EBF0FBE2DBFFD
:1036C00048CF21E02093020156CF88E065CF8BE000
:1036D0000E94E301892B29F468ED7FEF88ED9FEFCD
:1036E00069CF70E060E090E080E064CF81E00E940C
:1036F000690A8130D1F560E08CE00E949E0684E189
:1037000094E00E94360A63E080E00E949E0682E216
:1037100090E00E94530A382E292E80E290E00E9409
:10372000530A582E492E8EE190E00E94530A782EBB
:10373000692E8CE190E00E94530A2F923F924F92A3
:103740005F926F927F929F938F931F930F93DF935C
:10375000CF930E9450092DB73EB7245F3F4F0FB65D
:10376000F8943EBF0FBE2DBFF4CE81E00E94690ADF
:103770008230D1F560E08CE00E949E068BE194E0FF
:103780000E94360A63E080E00E949E068AE290E092
:103790000E94530A382E292E88E290E00E94530A94
:1037A000582E492E86E290E00E94530A782E692E08
:1037B00084E290E00E94530A2F923F924F925F92D0
:1037C0006F927F929F938F931F930F93DF93CF936B
:1037D0000E9450092DB73EB7245F3F4F0FB6F894B3
:1037E0003EBF0FBE2DBFB5CE81E00E94690A843076
:1037F000D1F560E08CE00E949E0682E294E00E9497
:10380000360A63E080E00E949E0682E390E00E9418
:10381000530A382E292E80E390E00E94530A582E36
:10382000492E8EE290E00E94530A782E692E8CE297
:1038300090E00E94530A2F923F924F925F926F92B4
:103840007F929F938F931F930F93DF93CF930E9449
:1038500050092DB73EB7245F3F4F0FB6F8943EBFD7
:103860000FBE2DBF76CE81E00E94690A8530D1F56A
:1038700060E08CE00E949E0689E294E00E94360A95
:1038800063E080E00E949E068AE390E00E94530A73
:10389000382E292E88E390E00E94530A582E492E94
:1038A00086E390E00E94530A782E692E84E390E02C
:1038B0000E94530A2F923F924F925F926F927F9293
:1038C0009F938F931F930F93DF93CF930E94500981
:1038D0002DB73EB7245F3F4F0FB6F8943EBF0FBEE3
:1038E0002DBF37CE81E00E94690A873009F031CEC2
:1038F00060E08CE00E949E0680E394E00E94360A1D
:1039000063E080E00E949E0687E394E00E94360A0E
:1039100020CE823009F089C160E080E00E949E06DE
:103920008CE494E00E94360A61E080E00E949E06EA
:1039300089E594E00E94360A62E080E00E949E06DB
:103940008091C4088F938091C3088F938091C6089B
:103950008F938091C5088F938091C8088F93809131
:10396000C7088F938091CA088F938091C9088F935D
:103970009F928F92DF93CF930E94500960E08CE07A
:103980000E949E0682E00E94690A2DB73EB7245F1E
:103990003F4F0FB6F8943EBF0FBE2DBF81113AC006
:1039A00060E08CE00E949E068AE694E00E94360A5F
:1039B00063E080E00E949E0682E490E00E94530A49
:1039C000382E292E80E490E00E94530A582E492E6A
:1039D0008EE390E00E94530A782E692E8CE390E0EB
:1039E0000E94530A2F923F924F925F926F927F9262
:1039F0009F938F93FF92EF92DF93CF930E94500992
:103A00002DB73EB7245F3F4F0FB6F8943EBF0FBEB1
:103A10002DBF9FCD82E00E94690A8130D1F560E020
:103A20008CE00E949E0681E894E00E94360A63E0E2
:103A300080E00E949E068AE490E00E94530A382E9D
:103A4000292E88E490E00E94530A582E492E86E4DD
:103A500090E00E94530A782E692E84E490E00E9440
:103A6000530A2F923F924F925F926F927F929F9351
:103A70008F93FF92EF92DF93CF930E9450092DB75F
:103A80003EB7245F3F4F0FB6F8943EBF0FBE2DBF29
:103A900060CD82E00E94690A8230D1F560E08CE05E
:103AA0000E949E0686E894E00E94360A63E080E069
:103AB0000E949E0682E590E00E94530A382E292E2D
:103AC00080E590E00E94530A582E492E8EE490E043
:103AD0000E94530A782E692E8CE490E00E94530ACB
:103AE0002F923F924F925F926F927F929F938F930C
:103AF0001F930F93DF93CF930E9450092DB73EB7CA
:103B0000245F3F4F0FB6F8943EBF0FBE2DBF21CDAF
:103B100082E00E94690A8430E1F560E08CE00E9456
:103B20009E0682E294E00E94360A63E080E00E94F2
:103B30009E068AE590E00E94530A382E292E88E5D9
:103B400090E00E94530A582E492E86E590E00E948C
:103B5000530A782E692E84E590E00E94530A2F9232
:103B60003F924F925F926F927F929F938F938BE8D9
:103B700094E09F938F93DF93CF930E9450092DB7CA
:103B80003EB7245F3F4F0FB6F8943EBF0FBE2DBF28
:103B9000E0CC82E00E94690A8530D1F560E08CE0DB
:103BA0000E949E0689E994E00E94360A63E080E064
:103BB0000E949E0682E690E00E94530A382E292E2B
:103BC00080E690E00E94530A582E492E8EE590E040
:103BD0000E94530A782E692E8CE590E00E94530AC9
:103BE0002F923F924F925F926F927F929F938F930B
:103BF0001F930F93DF93CF930E9450092DB73EB7C9
:103C0000245F3F4F0FB6F8943EBF0FBE2DBFA1CC2F
:103C100082E00E94690A873009F09BCC60E08CE06A
:103C20000E949E068EE994E069CE833009F059C067
:103C300060E080E00E949E0683EA94E00E94360ADB
:103C400061E080E00E949E0689E594E00E94360AC9
:103C500062E080E00E949E0688E190E00E94530AA4
:103C6000582E492E86E190E00E94530A782E692E44
:103C700084E190E00E94530A4F925F926F927F928C
:103C80009F938F93DF92CF92DF93CF930E9450093F
:103C900063E080E00E949E0680E490E00E94530A68
:103CA000582E492E8EE390E00E94530A782E692EFA
:103CB0008CE390E00E94530A4F925F926F927F9242
:103CC0009F938F93BF92AF92DF93CF930E9450093F
:103CD0008DB79EB744960FB6F8949EBF0FBE8DBFAA
:103CE00038CC843009F05AC060E080E00E949E0623
:103CF0008DEC94E00E94360A61E080E00E949E060E
:103D000089E594E00E94360A62E080E00E949E0607
:103D100080E290E00E94530A582E492E8EE190E0F6
:103D20000E94530A782E692E8CE190E00E94530A7B
:103D30004F925F926F927F929F938F93DF92CF9279
:103D4000DF93CF930E94500963E080E00E949E06BB
:103D500088E490E00E94530A582E492E86E490E0B1
:103D60000E94530A782E692E84E490E00E94530A40
:103D70004F925F926F927F929F938F93BF92AF9279
:103D8000DF93CF930E9450092DB73EB72C5E3F4F73
:103D90000FB6F8943EBF0FBE2DBFDBCB853009F0C8
:103DA00059C060E080E00E949E068BED94E00E9486
:103DB000360A61E080E00E949E0689E594E00E9458
:103DC000360A62E080E00E949E0688E290E00E944F
:103DD000530A582E492E86E290E00E94530A782E0C
:103DE000692E84E290E00E94530A4F925F926F9294
:103DF0007F929F938F93DF92CF92DF93CF930E9416
:103E0000500963E080E00E949E0680E590E00E94F9
:103E1000530A582E492E8EE490E00E94530A782EC1
:103E2000692E8CE490E00E94530A4F925F926F9249
:103E30007F929F938F93BF92AF92DF93CF930E9415
:103E400050098DB79EB744960FB6F8949EBF0FBE2B
:103E50008DBF7FCB863009F05AC060E080E00E94C1
:103E60009E0689EE94E00E94360A61E080E00E949E
:103E70009E0689E594E00E94360A62E080E00E9496
:103E80009E0680E390E00E94530A582E492E8EE24F
:103E900090E00E94530A782E692E8CE290E00E94F6
:103EA000530A4F925F926F927F929F938F93DF920C
:103EB000CF92DF93CF930E94500963E080E00E948D
:103EC0009E0688E590E00E94530A582E492E86E50A
:103ED00090E00E94530A782E692E84E590E00E94BB
:103EE000530A4F925F926F927F929F938F93BF92EC
:103EF000AF92DF93CF930E9450092DB73EB72C5E4F
:103F00003F4F0FB6F8943EBF0FBE2DBF22CB873078
:103F100009F06DC060E080E00E949E0687EF94E0AB
:103F20000E94360A61E080E00E949E0689E594E0E6
:103F30000E94360A62E080E00E949E068AE390E0DA
:103F40000E94530A382E292E88E390E00E94530ADB
:103F5000582E492E86E390E00E94530A782E692E4F
:103F600084E390E00E94530A2F923F924F925F9217
:103F70006F927F929F938F9388E095E09F938F93AA
:103F8000DF93CF930E94500963E080E00E949E0679
:103F900082E690E00E94530A382E292E80E690E0B7
:103FA0000E94530A582E492E8EE590E00E94530A33
:103FB000782E692E8CE590E00E94530A2F923F9252
:103FC0004F925F926F927F929F938F9329E135E09A
:103FD0003F932F93DF93CF930E9450098DB79EB7E5
:103FE00048960FB6F8949EBF0FBE8DBFB2CA8830F8
:103FF00009F0AFCA60E080E00E949E068AE295E088
:104000000E94360A61E080E00E949E0689E594E005
:104010000E94360A62E080E00E949E068091C408F9
:104020008F938091C3088F938091C6088F9380915E
:10403000C5088F938091C8088F938091C7088F938C
:104040008091CA088F938091C9088F939F928F9215
:10405000DF93CF930E94500960E08CE00E949E069F
:1040600083E00E94690A2DB73EB7245F3F4F0FB629
:10407000F8943EBF0FBE2DBF81113AC060E08CE0C6
:104080000E949E068AE694E00E94360A63E080E081
:104090000E949E068AE690E00E94530A382E292E3E
:1040A00088E690E00E94530A582E492E86E690E05A
:1040B0000E94530A782E692E84E690E00E94530AEB
:1040C0002F923F924F925F926F927F929F938F9326
:1040D000FF92EF92DF93CF930E9450092DB73EB726
:1040E000245F3F4F0FB6F8943EBF0FBE2DBF31CABD
:1040F00083E00E94690A8130D1F560E08CE00E9483
:104100009E0681E894E00E94360A63E080E00E9407
:104110009E0682E790E00E94530A382E292E80E7FF
:1041200090E00E94530A582E492E8EE690E00E949D
:10413000530A782E692E8CE690E00E94530A2F9243
:104140003F924F925F926F927F929F938F93FF92D5
:10415000EF92DF93CF930E9450092DB73EB7245FB3
:104160003F4F0FB6F8943EBF0FBE2DBFF2C983E09C
:1041700050CDE4E7F9E01382128288EE93E0A0E0EC
:10418000B0E084839583A683B7832CE033E031834A
:10419000208348E950E05587448749E950E0578734
:1041A00046874BE950E0518B408B4AE950E0538BF6
:1041B000428B4DE950E0558B448B4CE950E0578BD6
:1041C000468B118E128E138E148EE1E1FAE013826B
:1041D000128284839583A683B7833183208320E969
:1041E00030E03587248729E230E0378726872BE2C5
:1041F00030E0318B208B2AE230E0338B228B25E9B3
:1042000030E0358B248B2CE230E0378B268B118EFF
:10421000128E138E148EEEEAFAE0138212828483D9
:104220009583A683B7838EE193E091838083EAEB45
:10423000FAE01382128280E393E0918380838CE121
:1042400084838FEF85838EE186838FE1878380E28D
:10425000808781E2818782E28287138614861586B1
:104260001686178661E080E10C94FD05789483B78B
:104270008C6483BF87B7816087BFC2E0CEBD8EB537
:1042800081608EBD8FB581608FBD85B5846085BD31
:1042900085B5806485BD80918A00836080938A00A3
:1042A00080918B00816080938B0086E886B91AB874
:1042B0001FBC8FB58FBD8EB58EBD8EB584608EBD93
:1042C00061E08DE00E943A0261E08CE00E943A02D7
:1042D00062E086E00E943A0261E083E20E943A02D4
:1042E00062E085E20E943A0262E086E20E943A02BF
:1042F00062E086E00E943A0262E088E00E943A02B0
:1043000062E089E00E943A0262E08AE00E943A029A
:1043100062E08BE00E943A0261E08CE20E943A0285
:1043200061E08BE20E943A0261E08AE20E943A0276
:1043300010923709109236091092F308109215095D
:104340001092F10881E08093F0081092E90861E092
:1043500083E10E940C0261E082E10E940C028091E4
:1043600071008C7F809371008FE28093700085E4F0
:10437000809374008DE893E09093C2088093C10805
:104380008EE893E09093C0088093BF08E091210AE3
:10439000F091220AC083E0911D0AF0911E0A10825A
:1043A000E0911F0AF091200A1BE010831092290A65
:1043B000E091250AF091260AD6E0D083E091230A05
:1043C000F091240A808188698083E091230AF0912A
:1043D000240A80818F7D808361E085E10E943A021A
:1043E00061E086E10E943A02E0918409F09185093A
:1043F000C083E0918009F09181091082E0918209E7
:10440000F0918309108310928C09E0918809F09152
:104410008909D083E0918609F091870980818869B4
:104420008083E0918609F091870980818F7D808368
:1044300064E084E10E94FD0560E273E080E090E0CA
:104440000E945B0388E890E09093E2088093E10883
:104450008FEF90E09093E0088093DF0884E190E094
:104460009093DE088093DD0868E870E088E990E0CA
:104470000E94430A6091DF087091E00886E990E0AD
:104480000E94430A6091DD087091DE088AE990E09D
:104490000E94430A80E690E09093DC088093DB085A
:1044A0008CEB90E09093DA088093D90885E191E055
:1044B0009093D8088093D70860E670E08CE990E08C
:1044C0000E94430A6091D9087091DA088EE990E061
:1044D0000E94430A6091D7087091D80880EA90E062
:1044E0000E94430A84EF91E09093D6088093D50808
:1044F00084E992E09093D4088093D3088EEB90E007
:104500009093D2088093D10880E293E09093D008F2
:104510008093CF0884E893E09093CE088093CD08F1
:104520008EE492E09093CC088093CB0863E171E035
:1045300084EA90E00E94430A6091D5087091D60801
:1045400086EA90E00E94430A6091D3087091D408F3
:1045500088EA90E00E94430A6091D1087091D208E5
:104560008AEA90E00E94430A6091CF087091D008D7
:104570008CEA90E00E94430A6091CD087091CE08C9
:104580008EEA90E00E94430A6091CB087091CC08BB
:1045900080EB90E00E94430A0E94F60588E696E0D0
:1045A0000E94360A61E080E00E949E0686E20E9438
:1045B000E301EC0185E20E94E301DF93CF939F9337
:1045C0008F938CE796E09F938F93CAEBDAE0DF93AB
:1045D000CF930E94500963E080E00E949E0686E02F
:1045E0000E94E301F82EE92E88E00E94E301182FD3
:1045F000092F89E00E94E301EF92FF920F931F932E
:104600009F938F938CE896E09F938F93DF93CF9344
:104610000E94500986E00E94E3012DB73EB72E5E4E
:104620003F4F0FB6F8943EBF0FBE2DBF892B09F048
:1046300018C38AE090E00E9465080E94F605DD2418
:10464000D39456E0C52E65E0B62ECFEFD6E00AEB48
:104650001AE088E00E94E301892BA9F488E00E9417
:10466000E301892BD9F362E370E080E090E00E94DF
:104670005B03809105018F5F873008F00BC3809347
:1046800005010E94F60589E00E94E301892BA1F44F
:1046900089E00E94E301892BD9F362E370E080E0B6
:1046A00090E00E945B0380910501815009F4F5C2FE
:1046B000809305010E94F6058091050160E0853038
:1046C00008F0EEC282E00E949E0684EA96E00E9414
:1046D000360A61E082E00E949E068BEA96E00E9424
:1046E000360A62E082E00E949E068AEB96E00E9413
:1046F000360A63E082E00E949E0689EC96E00E9402
:10470000360A60910501615080E00E949E0681EBAF
:1047100097E00E94360A80910501813009F01FC39D
:1047200086E00E94E301892B09F0CDC286E00E9459
:10473000E301892BD9F30E94F60583EF96E00E94EE
:10474000360A81E090E00E9465086CE370E08CE33B
:1047500090E00E94070740E060E080E00E94BA0617
:10476000EC0140E060E081E00E94BA06C80FD91F6A
:1047700040E060E082E00E94BA06C80FD91F40E026
:1047800060E083E00E94BA06C80FD91F40E060E0F5
:1047900084E00E94BA06C80FD91F40E060E085E0BF
:1047A0000E94BA06C80FD91F40E060E086E00E9470
:1047B000BA06C80FD91F40E061E081E00E94BA0646
:1047C000C80FD91F40E061E082E00E94BA06C80F1E
:1047D000D91F40E061E083E00E94BA06C80FD91FEC
:1047E00040E061E084E00E94BA06C80FD91F40E0B3
:1047F00061E085E00E94BA06C80FD91F40E061E081
:1048000086E00E94BA068C0F9D1F06970CF0A3CF7E
:104810006091E1087091E20877FF02C06F5F7F4FFF
:104820007595679544EB50E08AE090E00E946C0734
:1048300086E0882E912C95E0692E712C0E94DB0772
:1048400081E00E94690A082E000C990B90930701E1
:10485000809306018730910511F40C94A62F0197DF
:1048600009F09DC070E060E090E080E00E940707E2
:1048700081E00E94690A813009F06AC10E94F60550
:104880008CE198E00E94360A88E990E00E94530A81
:10489000EC010E94DB0740E060E080E00E94BA0685
:1048A000892B11F40C94752C40E062E082E00E94A8
:1048B000BA06892B71F340E060E080E00E94BA06FE
:1048C000892B11F40C94892C40E063E082E00E9473
:1048D000BA06892BF1F270E060E090E080E00E947F
:1048E0000707BE01D7FF02C0695F7F4F13E07595D0
:1048F00067951A95E1F744E650E08DE090E00E945C
:104900006C0783E090E00E946508CE01B4010E942C
:1049100017358B0144E650E08CE090E00E946C0774
:10492000BE01D7FF02C06D5F7F4F75956795759586
:1049300067954CE350E08AE090E00E946C0768EED7
:1049400073E086E292E00E94C80868EE73E080E0BF
:1049500090E00E945B0364EF71E084E690E00E94C7
:10496000C80868EE73E080E090E00E945B0344E6D4
:1049700050E0B8018DE090E00E946C07BE01660F28
:10498000771F46E950E08BE090E00E946C076CE3F3
:1049900070E08CE390E00E9407070E94E40E809193
:1049A000060190910701059709F0D2C070E060E020
:1049B00090E080E00E94070781E00E94690A85304C
:1049C00011F00C94F62D0E94F60585E298E00E9405
:1049D000360A88E990E00E94530AEC0140E060E06A
:1049E00080E00E94BA06892B09F4A7C740E062E084
:1049F00082E00E94BA06892B09F4AFC770E060E03C
:104A000090E080E00E94070782E090E00E94650845
:104A1000BE01D7FF02C0695F7F4FF3E075956795D0
:104A2000FA95E1F744E650E08AE090E00E946C07D6
:104A300064E670E084E690E00E94070740E060E0F2
:104A400080E00E94BA06892B09F4A8C740E062E022
:104A500082E00E94BA06892B59F340E060E080E0D2
:104A60000E94BA06892B09F4AAC740E063E082E0FD
:104A70000E94BA06892BE1F26CE370E08CE390E0CF
:104A80000E94070740E060E080E00E94BA06892BA0
:104A900009F4A6C740E062E082E00E94BA06892BD2
:104AA00089F740E060E080E00E94BA06892B09F4B3
:104AB000A8C740E063E082E00E94BA06892B11F7A4
:104AC000BE01D7FF02C06D5F7F4F759567957595E5
:104AD00067954CE350E08AE090E00E946C07CE01BD
:104AE00063E070E00E94173544E650E08AE090E011
:104AF0000E946C07BE01DD0F880B990B0E94E63304
:104B00006B017C012AE939E949ED5FE30E949634A3
:104B10000E94AE3346E950E08DE090E00E946C07C1
:104B200023E333E343EF5FE3C701B6010E9496340A
:104B30000E94AE3346E950E08BE090E00E946C07A3
:104B40006CE370E08CE390E00E9407070E94E40EA3
:104B50008091060190910701029711F00C94F62DB7
:104B600070E060E090E080E00E94070781E00E9432
:104B7000690A823011F00C943B2F0E94F6058EE2F8
:104B800098E00E94360A88E990E00E94530A6C017E
:104B900062E370E080E090E00E945B0360E971E016
:104BA00080E293E00E94C80864EF71E080E090E04A
:104BB0000E945B0360E570E080E590E00E940707DB
:104BC0008601D7FE02C00F5F1F4F15950795C601DE
:104BD000B3010E9417357B01D0E0C0E00E94F605CA
:104BE000CE010E940D0A0E94DB0740E060E080E0F9
:104BF0000E94BA06892B09F415C740E062E082E002
:104C00000E94BA06892B09F41DC740E060E080E0ED
:104C10000E94BA06892B09F457C740E063E082E09E
:104C20000E94BA06892B09F40DC7209709F08DC799
:104C300062E370E082E390E00E94070740E060E0FA
:104C400080E00E94BA06892B09F44FC740E062E079
:104C500082E00E94BA06892B09F058C7C1E0D0E073
:104C6000BDCF88E00E94E301892B09F4E2CC89E002
:104C70000E94E301892B09F4DCCC85E20E94E30168
:104C8000892B09F4D6CC86E20E94E301892B09F432
:104C9000D0CCD3CCD0920501F4CCC09205010ACD82
:104CA00082E00E949E0688ED96E00E94360A61E04E
:104CB00082E00E949E0686EE96E00E94360A60918F
:104CC0000501655021CD84E30E94EA02B89EB0013F
:104CD000B99E700D1124072E000C880B990B0E94B1
:104CE000E6332AE939E94CEC52E40E943C3326E6EB
:104CF00036E646E450E40E9496340E94AE33A62E77
:104D0000972EE62EF72E60E088E00E949E069F9286
:104D1000AF92DF93CF931F930F930E9450090F9090
:104D20000F900F900F900F900F9099E6E916F104F5
:104D30000CF08FCC61E08DE00E940C0262E370E029
:104D400080E090E00E945B0360E08DE00E940C0236
:104D500062E370E080E090E00E945B037ACC8230F6
:104D600069F486E00E94E301892B09F072CC86E0A9
:104D70000E94E301892BD9F30E946A0F833009F066
:104D800044C286E00E94E301892B09F062CC86E0F0
:104D90000E94E301892BD9F386E990E00E94530A2F
:104DA0008C0188E990E00E94530A7C018AE990E036
:104DB0000E94530A6C018CE990E00E94530A982EDD
:104DC000892E8EE990E00E94530A782E692E80EA9F
:104DD00090E00E94530A582E492E82EA90E00E94E9
:104DE000530A1C010E94F605CAEBDAE088E00E9433
:104DF000E301892BA9F488E00E94E301892BD9F310
:104E000062E370E080E090E00E945B038091030128
:104E10008F5F89300CF08FC0809303010E94F605EC
:104E200089E00E94E301892BA9F489E00E94E30153
:104E3000892BD9F362E370E080E090E00E945B038D
:104E400080910301815018160CF077C08093030104
:104E50000E94F6058091030185300CF070C060E07F
:104E600082E00E949E061F930F9328E037E03F9355
:104E70002F93DF93CF930E94500961E082E00E945C
:104E80009E06FF92EF9287E197E09F938F93DF93C7
:104E9000CF930E94500962E082E00E949E068AE958
:104EA00090E00E94530A9F938F9326E237E03F934E
:104EB0002F93DF93CF930E94500963E082E00E941A
:104EC0009E0685E397E09F938F93DF93CF930E9495
:104ED000500960910301615080E00E949E0685E4C4
:104EE00097E00E94360A2DB73EB72A5E3F4F0FB6B5
:104EF000F8943EBF0FBE2DBF80910301813009F0B1
:104F00009BC08AE00E94E301892B09F06BC068E72F
:104F100070E080E090E00E945B03065F1F4F0F3F50
:104F2000110519F014F00FEF10E0B80186E990E0D8
:104F30000E94430A5BCF81E06FCF88E087CF893042
:104F4000DCF660E082E00E949E0681E090E00E9434
:104F5000F8169F938F938F929F9287E497E09F9389
:104F60008F93DF93CF930E94500961E082E00E940B
:104F70009E066F927F9228E537E03F932F93DF9351
:104F8000CF930E94500962E082E00E949E064F92F9
:104F90005F9280E697E09F938F93DF93CF930E9479
:104FA000500963E082E00E949E063F922F9228E61D
:104FB00037E03F932F93DF93CF930E945009609186
:104FC0000301655080E00E949E0685E497E00E9400
:104FD000360A8DB79EB74A960FB6F8949EBF0FBE9D
:104FE0008DBF8ACF8BE00E94E301892B79F468E7BB
:104FF00070E080E090E00E945B030A5011090A30E3
:1050000011050CF092CF0AE010E08FCF86E00E94ED
:10501000E301892B09F0EACEB801C8010E94070715
:1050200086E00E94E301892BD9F370E060E090E014
:1050300080E00E94070779CF8230D9F58AE00E948C
:10504000E301892B69F468EC70E080E090E00E9455
:105050005B039FEFE91AF90AB70188E990E068CF8E
:105060008BE00E94E301892B51F468EC70E080E052
:1050700090E00E945B0321E0E21AF108EDCF86E0A8
:105080000E94E301892B09F0B1CE86E00E94E30182
:10509000892BD9F30E94F605B70188E990E00E94B8
:1050A000430A48EC50E0B7018BE090E00E946C07A7
:1050B0009DCE833081F58AE00E94E301892BA1F423
:1050C00064E670E080E090E00E945B033FEFC31A6B
:1050D000D30A81E5C816D1041CF040E5C42ED12CBA
:1050E000B6018AE990E024CF8BE00E94E301892B8E
:1050F00009F07CCE64E670E080E090E00E945B0303
:1051000091E0C91AD10825E0C216D1044CF735E068
:10511000C32ED12CE5CF8430D1F486E00E94E30188
:105120005C01892B09F062CE0E94F60586E00E94A0
:10513000E301892BD9F360E0C5010E942A333FEFD8
:10514000A31AB30A88ECA816B104A9F74FCE85308C
:10515000B1F486E00E94E301892B09F047CE86E096
:105160000E94E301892BD9F381E090E00E94F816B8
:10517000982E892E682F792F8CE990E0D9CE863031
:10518000A9F40E94E301892B09F030CE86E00E9449
:10519000E301892BD9F381E090E00E94F816782E84
:1051A000692E682F792F8EE990E0C2CE8730B1F456
:1051B00086E00E94E301892B09F018CE86E00E9468
:1051C000E301892BD9F381E090E00E94F816582E74
:1051D000492E682F792F80EA90E0AACE883009F016
:1051E00005CE86E00E94E301892B09F0FFCD86E021
:1051F0000E94E301892BD9F370E060E082EA90E03D
:105200000E94430A212C312CF1CD843079F486E0C0
:105210000E94E301892B09F01CCA0E94F60586E072
:105220000E94E301892BD9F30E94931A853069F417
:1052300086E00E94E301892B09F00BCA86E00E94F8
:10524000E301892BD9F30E947117863009F001CA56
:105250000E94E301892B09F0FCC90E94F60586E053
:105260000E94E301892BD9F368EC70E080E090E0C4
:105270000E945B030E94F605812CC0E000E010E074
:10528000D0E0912CA12CB12CC12CD12CE12CF12CF3
:10529000772473942CE0622E88E00E94E301892B2E
:1052A00079F488E00E94E301892BD9F3809104010D
:1052B0008F5F8D300CF0A1C0809304010E94F60531
:1052C00089E00E94E301892B79F489E00E94E301DF
:1052D000892BD9F380910401815018160CF090C0ED
:1052E000809304010E94F60586E00E94E301892B69
:1052F00041F40E94F60568EC70E080E090E00E94C6
:105300005B038091040160E085300CF07CC083E099
:105310000E949E0687E797E00E94360A91E0F91204
:1053200004C084E897E00E94360A61E083E00E94AE
:105330009E0689E897E00E94360A21E0E21204C046
:1053400084E897E00E94360A62E083E00E949E06AD
:1053500086E997E00E94360A31E0D31204C084E85F
:1053600097E00E94360A63E083E00E949E0683EA8B
:1053700097E00E94360A81E0C81204C084E897E0F2
:105380000E94360A60910401615080E00E949E06EE
:1053900080EB97E00E94360A80910401813009F089
:1053A000AEC086E00E94E301892B09F075CF81E051
:1053B0000E94690A6091C9087091CA0884E190E06E
:1053C0000E94430A6091C7087091C80886E190E086
:1053D0000E94430A6091C5087091C60888E190E078
:1053E0000E94430A6091C3087091C4088AE190E06A
:1053F0000E94430AFF24F3944FCF709204015ECFC2
:10540000609204016FCF8930F4F583E00E949E061C
:1054100084EB97E00E94360A91E0B91204C084E858
:1054200097E00E94360A61E083E00E949E0681ECCC
:1054300097E00E94360A21E0A21204C084E897E0B7
:105440000E94360A62E083E00E949E068EEC97E09E
:105450000E94360A31E0931204C084E897E00E946B
:10546000360A63E083E00E949E068BED97E00E947F
:10547000360AD13021F484E897E00E94360A609120
:105480000401655082CF83E00E949E0689EE97E07A
:105490000E94360A113021F484E897E00E94360A0F
:1054A00061E083E00E949E0687EF97E00E94360A43
:1054B000013021F484E897E00E94360A62E083E03C
:1054C0000E949E0685E098E00E94360A81E08812DC
:1054D00004C084E897E00E94360A63E083E00E94FB
:1054E0009E0682E198E00E94360AC13021F484E8E9
:1054F00097E00E94360A60910401695046CF8230DD
:1055000061F586E00E94E301892B09F0C5CE82E0B7
:105510000E94690A6091C9087091CA088CE390E002
:105520000E94430A6091C7087091C8088EE390E01A
:105530000E94430A6091C5087091C60880E490E01B
:105540000E94430A6091C3087091C40882E490E00D
:105550000E94430AEE24E3949FCE833061F586E0F7
:105560000E94E301892B09F097CE81E00E94690A2D
:105570006091C9087091CA088CE190E00E94430ACA
:105580006091C7087091C8088EE190E00E94430ABC
:105590006091C5087091C60880E290E00E94430ABD
:1055A0006091C3087091C40882E290E00E94430AAF
:1055B000DD24D39471CE843061F586E00E94E3014E
:1055C000892B09F069CE82E00E94690A6091C908BE
:1055D0007091CA0884E490E00E94430A6091C70871
:1055E0007091C80886E490E00E94430A6091C50863
:1055F0007091C60888E490E00E94430A6091C30855
:105600007091C4088AE490E00E94430ACC24C394B9
:1056100043CE853061F586E00E94E301892B09F0D5
:105620003BCE81E00E94690A6091C9087091CA0866
:1056300084E290E00E94430A6091C7087091C80814
:1056400086E290E00E94430A6091C5087091C60806
:1056500088E290E00E94430A6091C3087091C408F8
:105660008AE290E00E94430ABB24B39415CE8630B0
:1056700059F50E94E301892B09F00ECE82E00E94C9
:10568000690A6091C9087091CA088CE490E00E9490
:10569000430A6091C7087091C8088EE490E00E94A8
:1056A000430A6091C5087091C60880E590E00E94A9
:1056B000430A6091C3087091C40882E590E00E949B
:1056C000430AAA24A394E8CD873061F586E00E94BE
:1056D000E301892B09F0E0CD81E00E94690A609125
:1056E000C9087091CA088CE290E00E94430A609158
:1056F000C7087091C8088EE290E00E94430A60914A
:10570000C5087091C60880E390E00E94430A60914A
:10571000C3087091C40882E390E00E94430A992470
:105720009394BACD883059F586E00E94E301892B25
:1057300009F0B2CD82E00E94690A6091C9087091B7
:10574000CA0884E590E00E94430A6091C7087091FE
:10575000C80886E590E00E94430A6091C5087091F0
:10576000C60888E590E00E94430A6091C3087091E2
:10577000C4088AE590E00E94430AD1E08DCD8930CB
:1057800059F586E00E94E301892B09F085CD81E07F
:105790000E94690A6091C9087091CA0884E390E088
:1057A0000E94430A6091C7087091C80886E390E0A0
:1057B0000E94430A6091C5087091C60888E390E092
:1057C0000E94430A6091C3087091C4088AE390E084
:1057D0000E94430A11E060CD8A3059F586E00E94AC
:1057E000E301892B09F058CD82E00E94690A60919B
:1057F000C9087091CA088CE590E00E94430A609144
:10580000C7087091C8088EE590E00E94430A609135
:10581000C5087091C60880E690E00E94430A609136
:10582000C3087091C40882E690E00E94430A01E038
:1058300033CD8B3061F586E00E94E301892B09F0BE
:105840002BCD83E00E94690A6091C9087091CA0853
:105850008CE690E00E94430A6091C7087091C808E6
:105860008EE690E00E94430A6091C5087091C608D8
:1058700080E790E00E94430A6091C3087091C408D9
:1058800082E790E00E94430A8824839405CD8C30FF
:1058900009F002CD86E00E94E301892B09F0FCCCDF
:1058A00083E00E94690A6091C9087091CA0884E681
:1058B00090E00E94430A6091C7087091C80886E68C
:1058C00090E00E94430A6091C5087091C60888E67E
:1058D00090E00E94430A6091C3087091C4088AE670
:1058E00090E00E94430AC1E0D7CC40E060E081E054
:1058F0000E94BA06892B11F00C94542440E061E018
:1059000081E00E94BA06892B11F00C9454240C9467
:10591000492440E060E081E00E94BA06892B11F042
:105920000C94642440E061E081E00E94BA06892B77
:1059300011F00C9464240C94492440E060E081E070
:105940000E94BA06892B09F051C840E061E081E06D
:105950000E94BA06892B09F049C840E060E080E067
:105960000E94BA06892B59F040E063E082E00E9471
:10597000BA06892B09F042C80E94DB072FC840E015
:1059800060E081E00E94BA06892B71F740E061E097
:1059900081E00E94BA06892B39F7EECF40E060E043
:1059A00081E00E94BA06892B09F050C840E061E00E
:1059B00081E00E94BA06892B09F048C839C840E046
:1059C00060E081E00E94BA06892B09F04EC840E0F1
:1059D00061E081E00E94BA06892B09F046C828C818
:1059E00040E060E081E00E94BA06892B09F052C8CD
:1059F00040E061E081E00E94BA06892B09F04AC8C4
:105A000050C840E060E081E00E94BA06892B09F0AE
:105A100050C840E061E081E00E94BA06892B09F09D
:105A200048C84EC840E060E081E00E94BA06892B79
:105A300009F0E3C840E061E081E00E94BA06892BEA
:105A400009F0DBC8C230D10509F0C8C844E650E00F
:105A5000B8018DE090E00E946C0764EF71E089E589
:105A600091E00E94C8086CE271E080E090E00E9442
:105A70005B0342E350E0B7018AE090E00E946C07CC
:105A800083E090E00E94650882E090E00E940D0AA9
:105A90000E94F60587E498E00E94360A68EC70E000
:105AA0008CE093E00E94C8086CED75E080E090E027
:105AB0000E945B0344E650E0B8018AE090E00E9457
:105AC0006C07C3E0D0E08AC840E060E081E00E945B
:105AD000BA06892B09F0A1C840E061E081E00E948C
