:100000000C94AF000C94D9000C94D9000C94D90036
:100010000C94D9000C94D9000C94D9000C94D900FC
:100020000C94D9000C94D9000C94D9000C94D900EC
:100030000C94D9000C94D9000C94D9000C94D900DC
:100040000C94B8140C94D9000C9489150C945F1579
:100050000C94D9000C94D9000C94D9000C94D900BC
:100060000C94D9000C94D9000C94D9000C94D900AC
:100070000C94D9000C94D9000C9429150C94FF14FD
:100080000C94D9000C94BF150C94D90000003A00D0
:1000900037003400310022006100640000003B00A2
:1000A000380035003200230062006500000039008E
:1000B00036003300300021002000630005050505EF
:1000C00005050505020202020202020207070404F6
:1000D00004040404040407070303030303030303E2
:1000E00007010101010101010106060606060606D7
:1000F000060102040810204080010204081020407C
:10010000800810010204081020408001020102044E
:1001100008102040800480402010080402010102E1
:100120000408102040800000000A0B0C00000000B2
:1001300000000104050600000000000000000000AF
:1001400000000000000000000000000000000000AF
:10015000000000000000000000000000B021112499
:100160001FBECFEFD0E1DEBFCDBF18E0A0E0B1E011
:10017000EAE5FDE600E00BBF02C007900D92A43651
:10018000B107D9F72AE0A4E6B8E001C01D92A63D68
:10019000B207E1F710E0CFEAD0E004C02197FE01FA
:1001A0000E948836CE3AD107C9F70E942D220C94BE
:1001B000AB360C940000CF93DF93CDB7DEB7D250AF
:1001C0000FB6F894DEBF0FBECDBF80E092E0ECE04A
:1001D000F1E0DE01119601900D920197E1F7ACE399
:1001E000B9E028E539E090E080E06D917D91582FED
:1001F0004427E92FFF27E627EE0FFF1F81E090E05D
:100200008C0F9D1FE80FF91F80819181842795270E
:100210002A173B0751F7DE5F0FB6F894DEBF0FBE1B
:10022000CDBFDF91CF910895FB01A485B585ED91F8
:10023000FC9111970190F081E02D682FCD01099577
:1002400090E080E0089590913B0980913A092FEF6A
:100250003FEF981748F4E92FF0E0E65EF64F208173
:1002600030E09F5F90933B09C901089590913B094D
:1002700080913A092FEF3FEF981748F4E92FF0E00B
:10028000E65EF64F208130E09F5F90933B09C90105
:100290000895282F9091190981E0913208F042C009
:1002A0008091F5088111FCCF8091180932E03093DC
:1002B000F5082093F4082FEF2093F30828EF38E097
:1002C0003093F2082093F1081092F0089093EF0811
:1002D0001092EE089091EE08880F892B8093EE081B
:1002E0008091ED08813029F51092ED088091EE089B
:1002F000809373008091740083FDF8CF85EC809328
:1003000074008091F5088230E1F38091F3088F3F0B
:1003100091F08091F308803281F08091F30880336E
:1003200071F084E01092F708109219091092F60803
:10033000089585EEE4CF80E0F5CF82E0F3CF83E04F
:10034000F1CF91E09093F608809318091092F70886
:1003500010921909089581E00C94490181508C3064
:1003600088F5E82FF0E0E954FE4F0C948836DF0161
:10037000DF01E201C301C701CA01CD01E201E201CF
:10038000D101D701DB018FB58F778FBD08958FB570
:100390008F7DFBCF8FB5877FF8CF85B58F7D85BDEE
:1003A000089580918B008F7780938B0008958091C2
:1003B0008B008F7DF9CF80918B00877FF5CF83B73E
:1003C0008F7D83BF0895CF93DF93282F30E0F9010D
:1003D000EA5DFE4F8491F901EF50FF4FD491F9018E
:1003E000E454FF4FC491CC23A1F081110E94AE01CF
:1003F000EC2FF0E0EE0FFF1FE455FF4FA591B491F5
:10040000EC91ED2381E090E009F480E0DF91CF9161
:10041000089580E090E0FACF1F93CF93DF93282FC9
:1004200030E0F901EA5DFE4F8491F901EF50FF4F92
:10043000D491F901E454FF4FC491CC23A9F0162FB5
:1004400081110E94AE01EC2FF0E0EE0FFF1FE45689
:10045000FF4FA591B4918FB7F894EC91111108C09A
:10046000D095DE23DC938FBFDF91CF911F9108954C
:10047000DE2BF8CFCF93DF9390E0FC01EF50FF4FDE
:10048000249184549F4FFC0184918823C9F090E00B
:10049000880F991FFC01E457FF4FA591B491FC010F
:1004A000E456FF4FC591D49161110DC09FB7F894E8
:1004B0008C91209582238C938881282328839FBF49
:1004C000DF91CF910895623051F49FB7F8943C9139
:1004D000822F809583238C93E8812E2BEFCF8FB7CB
:1004E000F894EC912E2B2C938FBFEACF1F93CF93D0
:1004F000DF93182FEB0161E00E943A02209739F454
:1005000060E0812FDF91CF911F910C940C02CF3FBF
:10051000D10511F461E0F5CFE12FF0E0EA5DFE4F87
:10052000E491E150EC3008F050C0F0E0E656FD4FA9
:100530000C948836A602A602E502AE02B402BA0204
:10054000C202E502E502C702D102DB0283B7806284
:1005500083BFC1BFDF91CF911F9108958FB5806890
:100560008FBDDBBDCABDF6CF8FB580628FBDD9BD53
:10057000C8BDF0CF8FB588608FBDD0937900C09390
:100580007800E8CF85B5806285BDC3BDE3CF80919B
:100590008B00806880938B00D0938700C093860087
:1005A000D9CF80918B00806280938B00D09385009F
:1005B000C0938400CFCF80918B00886080938B00A4
:1005C000D0938300C0938200C5CFC038D1050CF012
:1005D000A1CF96CF8D52806487B9369A3699FECFD7
:1005E00084B195B108958330910588F09C01220F64
:1005F000331F280F391FC90107972031310528F013
:10060000AEEEBBEE0E9491360D970197F1F708957B
:10061000CF92DF92EF92FF926FB7F8948091E90842
:100620009091EA08A091EB08B091EC085091E8088D
:1006300022B736B7432F417030FF04C041E02F3F4F
:1006400009F440E06FBF6C017D0137E0CC0CDD1C8C
:10065000EE1CFF1C3A95D1F7C50ED11CE11CF11C14
:10066000C81AD90AEA0AFB0A880F991FAA1FBB1FDA
:10067000C81AD90AEA0AFB0A63E0CC0CDD1CEE1C9E
:10068000FF1C6A95D1F730E0A9ECB5E00E949136E5
:10069000672F782F892F99276C0D7D1D8E1D9F1D2B
:1006A000442321F067537A4F8F4F9F4FFF90EF9075
:1006B000DF90CF9008958F929F92AF92BF92CF928A
:1006C000DF92EF92FF924B015C010E9408036B01E5
:1006D0007C010E9408036C197D098E099F09683E00
:1006E000734081059105A8F321E0821A9108A108C1
:1006F000B10888EEC80E83E0D81EE11CF11C8114FD
:100700009104A104B10429F7FF90EF90DF90CF90FE
:10071000BF90AF909F908F90089508950895AF92E5
:10072000BF92CF92DF92EF92FF920F931F93CF93DE
:10073000DF936C017B018B01040F151FEB015E0140
:10074000AE18BF08C017D10759F06991D601ED91D5
:10075000FC910190F081E02DC6010995892B79F774
:10076000C501DF91CF911F910F91FF90EF90DF9026
:10077000CF90BF90AF900895FC01538D448D252FED
:1007800030E0842F90E0821B930B541710F0CF962B
:10079000089501970895FC01918D828D981761F05D
:1007A000A28DAE0FBF2FB11D5D968C91928D9F5F74
:1007B0009F73928F90E008958FEF9FEF0895FC0153
:1007C000918D828D981731F0828DE80FF11D858D06
:1007D00090E008958FEF9FEF0895FC01918D228D99
:1007E000892F90E0805C9F4F821B91098F7399271E
:1007F000089588E799E00E94ED0321E0892B09F430
:1008000020E0822F089585E19AE00E94ED0321E027
:10081000892B09F420E0822F0895FC01A48DA80FF4
:10082000B92FB11DA35ABF4F2C91848D90E0019632
:100830008F739927848FA689B7892C93A089B18952
:100840008C91837080648C93938D848D981306C0F3
:100850000288F389E02D80818F7D80830895EF9257
:10086000FF920F931F93CF93DF93EC0181E0888F6A
:100870009B8D8C8D98131AC0E889F989808185FF3A
:1008800015C09FB7F894EE89FF896083E889F989DC
:1008900080818370806480839FBF81E090E0DF91DE
:1008A000CF911F910F91FF90EF900895F62E0B8D31
:1008B00010E00F5F1F4F0F731127E02E8C8D8E11EC
:1008C0000CC00FB607FCFACFE889F989808185FF53
:1008D000F5CFCE010E940D04F1CFEB8DEC0FFD2F73
:1008E000F11DE35AFF4FF0829FB7F8940B8FEA890E
:1008F000FB8980818062CFCFCF93DF93EC01888D1D
:100900008823B9F0AA89BB89E889F9898C9185FD8A
:1009100003C0808186FD0DC00FB607FCF7CF8C9118
:1009200085FFF2CF808185FFEDCFCE010E940D04BF
:10093000E9CFDF91CF91089580E090E0892B29F0F5
:100940000E94030481110E94000080E090E0892B46
:1009500029F00E94F90381110C940000089585ED9F
:10096000809374008091740084FDFCCF1092F50890
:1009700008952091A008260F3327331F2132310517
:10098000ECF42091F508FC0190E080E0243069F05F
:1009900082E00895A091A0082191AC014058574FE2
:1009A000A40FB52FB11D2C930196861798F3809153
:1009B000A008680F6093A00880E0089581E0089582
:1009C0000895E0913B0980913A09E81730F4F0E08E
:1009D000E65EF64F808190E008958FEF9FEF0895D7
:1009E00080913A0990913B09891B990B0895CF9208
:1009F000DF92EF92FF920F931F93CF93DF937C01CF
:100A0000CB018A012091F608222389F0EB016B01CA
:100A1000C40ED51ECC15DD0569F06991D701ED91A5
:100A2000FC910190F081E02DC7010995F3CF642F6F
:100A30000E94B904C801DF91CF911F910F91FF90DF
:100A4000EF90DF90CF900895CF93DF931F92CDB7B3
:100A5000DEB769832091F6082223F9F02091190965
:100A6000203258F021E030E0FC013383228390E013
:100A700080E00F90DF91CF9108958091F708E82FE3
:100A8000F0E0E850F74F998190838F5F8093F708EB
:100A90008093190981E090E0ECCF61E0CE010196EE
:100AA0000E94B904F7CFCF93DF93EC0160E08E8111
:100AB0000E940C0281E090E00E94F30261E08E81CE
:100AC0000E940C0281E090E00E94F30260E08E81BF
:100AD0000E940C0284E690E0DF91CF910C94F30227
:100AE000CF92DF92EF92FF920F931F93CF93DF93FA
:100AF0006C017C0187E0E80EF11CD0E0C0E0062F1D
:100B000010E0B8010C2E02C0759567950A94E2F7C3
:100B10006170F70181917F010E940C022196C4301F
:100B2000D10579F7C601DF91CF911F910F91FF9009
:100B3000EF90DF90CF900C945305CF92DF92EF921D
:100B4000FF920F931F93CF93DF93EC01F62E642F48
:100B50008C810E940C028D818F3F19F060E00E9411
:100B60000C020F2D10E08F8584FF25C06E0187E0F9
:100B7000C80ED11CF12CE12CB8010E2C02C07595C9
:100B800067950A94E2F76170F60181916F010E9406
:100B90000C02FFEFEF1AFF0A88E0E816F10461F794
:100BA000CE01DF91CF911F910F91FF90EF90DF90D9
:100BB000CF900C945305B80184E0759567958A959C
:100BC000E1F7CE010E9470056F2DCE01DF91CF912C
:100BD0001F910F91FF90EF90DF90CF900C947005D4
:100BE00040E0682F8EEB9AE00C949D0581E00E9416
:100BF000F00580ED97E00C94F302CF93DF93613022
:100C000029F09091CD0A98609093CD0A6093D10A13
:100C10001092D20A90E49093D30A8093D40A805C15
:100C20008093D50A61E08091C20A0E943A028091C5
:100C3000C30A8F3F19F061E00E943A0261E080919F
:100C4000C40A0E943A02CEEBDAE09E012E5B3A40E3
:100C50008091CD0A84FD0BC084E090E02196281796
:100C6000390744F461E08E810E943A02EECF88E0B9
:100C700090E0F4CF80E593EC0E94F30260E0809175
:100C8000C20A0E940C0260E08091C40A0E940C0219
:100C90008091C30A8F3F19F060E00E940C0280919E
:100CA000CD0A84FD35C063E08EEB9AE00E947005AA
:100CB00084E991E10E94F30263E08EEB9AE00E94E6
:100CC000700584E991E10E94F30263E08EEB9AE003
:100CD0000E94700586E990E00E94F30262E08EEBCC
:100CE0009AE00E9470058091CD0A80620E94F00512
:100CF00084E08093CE0A8CE00E94F0050E94F60505
:100D000082E08093CF0A86E0DF91CF910C94F005CA
:100D100080620E94F00584E991E10E94F3028091D3
:100D2000CD0A80620E94F00586E990E00E94F302FD
:100D30008091CD0A80620E94F005D5CF643008F022
:100D400063E09091D10A691710F06FEF690FE62FF9
:100D5000F0E0E254F54F9489890F80680C94F00517
:100D600041E00E949D0581E090E00895089590E0A3
:100D700080E008951F93CF93DF93D82FC62F142FB1
:100D8000682F61708CE20E940C02D1FB662760F92B
:100D90008BE20E940C026D2F659565958AE20E9498
:100DA0000C0211110FC08DE2CC2339F08EE2C1305C
:100DB00021F08FE2C23009F080E3DF91CF911F91E3
:100DC0000C94E3018DE2CC2339F08EE2C13021F0A6
:100DD0008FE2C23009F080E30E94EA0225E0289FFA
:100DE000B001299F700D1124072E000C880B990B60
:100DF0000E9402352AE939E94CEC52E40E94583449
:100E00000E94CA34CB01DF91CF911F9108950F93B7
:100E10001F93CF93DF9300271127061B170B8130F9
:100E20002FEF92070CF446C08F3F910509F0CCF5E7
:100E3000CC27DD27C81BD90B61302FEF72072CF1AF
:100E40006F3F710509F024F597FD29C060E082E04D
:100E50000E940C02662777276C1B7D0B83E00E94A3
:100E60007602CC27DD27C01BD10B60E010161106DF
:100E70000CF461E084E00E940C02BE0185E0DF9189
:100E8000CF911F910F910C9476020FEF10E0DCCF01
:100E900001E01FEFD9CF0FEF10E0CFEFD0E061E01E
:100EA000D6CF61308FEF780784F40FEF10E0C1E008
:100EB000DFEFCCCF61302FEF72076CF36F3F71051E
:100EC00061F35CF301E01FEFE8CF6F3F710579F349
:100ED00074F301E01FEFEBCFCF92DF92EF92FF921E
:100EE0000F931F93CF93DF938B01EA011DBC1CBCB2
:100EF0008C309105C1F18D30910509F448C00B97F4
:100F0000F1F034E6E32EF12C8CB59DB5B7010E94CB
:100F10001F366017710728F4BE01CE010E94070733
:100F2000F3CF70E060E090E080E0DF91CF911F911F
:100F30000F91FF90EF90DF90CF900C94070724E67D
:100F4000C22ED12CEE24FF24E41AF50A8CB59DB5EF
:100F5000B6010E941F366017710718F7BE01C7015E
:100F60000E940707F3CF94E6C92ED12CEE24FF246C
:100F7000E41AF50A8CB59DB5B6010E941F366017BC
:100F8000710778F6B701CE010E940707F3CF84E618
:100F9000E82EF12CD195C195D1098CB59DB5B7013D
:100FA0000E941F366017710708F0BBCFBE01CE014B
:100FB0000E940707F2CF40E060E080E00E94BA069E
:100FC00068EC70E0019749F040E061E081E00E9448
:100FD000BA06019731F46CE370E088EC90E00C9471
:100FE000070740E061E082E00E94BA0662EE7FEF10
:100FF000019799F340E061E083E00E94BA0666EA57
:101000007FEF019751F340E061E084E00E94BA066F
:101010006AE67FEF019709F340E061E085E00E9416
:10102000BA06019719F468E37FEFD7CF40E061E09B
:1010300086E00E94BA060197B1F340E060E081E0EB
:101040000E94BA06019729F468EC70E08CE390E006
:10105000C6CF40E060E082E00E94BA06019729F422
:1010600068EC70E082EE9FEFBACF40E060E083E092
:101070000E94BA06019729F468EC70E086EA9FEFB7
:10108000AECF40E060E084E00E94BA06019729F408
:1010900068EC70E08AE69FEFA2CF40E060E085E078
:1010A0000E94BA06019729F468EC70E088E39FEF8C
:1010B00096CF40E060E086E00E94BA060197A1F377
:1010C00008950F931F93CF93DF938C01D0E0C0E07E
:1010D00061E083E20E940C0262E370E080E090E055
:1010E0000E945B0360E083E20E940C0262E370E016
:1010F00080E090E00E945B0321960C171D0741F7EA
:10110000DF91CF911F910F9108959FEF90936A08FF
:1011100090936B0880936C0887E080936D0883E060
:1011200080936E088EE180936F08609370087093CF
:101130007108409372085093730861E086E10E9441
:101140000C02ECE6F8E080E092E02191820F9F5FD4
:101150009A30D9F7809580937408EAE6F8E080E049
:1011600090919B0095FFFCCF919190939C008F5F95
:101170008B30B1F780919B0086FFFCCF6AE070E076
:1011800080E090E00C945B030F931F93CF93DF9369
:101190008C01EB01AB01BC018BE00E9485086FEF75
:1011A00073E0601B710BAE018AE0DF91CF911F915C
:1011B0000F910C9485082FEF30E030933D09209378
:1011C0003C0930933F0920933E092DEF30E03093E6
:1011D0004109209340091092430910924209082EB8
:1011E000000C990B909345098093440989E090E0A5
:1011F0009093470980934609109249091092480933
:1012000083E090E090934B0980934A098EE190E04F
:1012100090934D0980934C0910924F0910924E09FA
:10122000CB019927909351098093500970935209EB
:1012300010925309CA019927909355098093540934
:1012400050935609109257090E94DB009C013327E6
:10125000309359092093580990935A0910925B09C9
:1012600061E086E10E940C02ECE3F9E080919B00D2
:1012700085FFFCCF8081329680939C0089E0EC351D
:10128000F807A1F780919B0086FFFCCF6FE070E02C
:1012900080E090E00C945B03CF93DF93CDB7DEB793
:1012A0002E970FB6F894DEBF0FBECDBF84E191E05C
:1012B0009A8789871C861B8682E08C838EEB9AE056
:1012C0009E878D87AE01495E5F4F6D897E89CE0115
:1012D00001960E9497312E960FB6F894DEBF0FBE8E
:1012E000CDBFDF91CF910895AC018091F5088111B8
:1012F000FCCF962F81E08093F5088093F4082FEFC0
:101300002093F3082AE139E03093F2082093F108A2
:101310001092F0082FEF260F2093EF088093EE082D
:101320002091EE08440F551F822F842B8093EE08E6
:101330008091ED088130E9F41092ED088091EE087B
:10134000809373008091740083FDF8CF85EC8093C7
:1013500074008091F5088130E1F38091F0088617E0
:1013600010F49091F00810923B0990933A09892F5C
:10137000089585EEECCF8F929F92AF92BF920F931C
:101380001F93CF93DF93CDB7DEB7A1970FB6F89435
:10139000DEBF0FBECDBF19A2423008F44AE08E0175
:1013A0000F5D1F4F842E912CB12CA12CA50194010F
:1013B0000E944736E62FB901CA01EA3044F5E05DE4
:1013C000D801EE938D01232B242B252B79F790E068
:1013D00080E0109769F0FD0101900020E9F7319756
:1013E000AF014A1B5B0BBD018EEB9AE00E948F039D
:1013F000A1960FB6F894DEBF0FBECDBFDF91CF919F
:101400001F910F91BF90AF909F908F900895E95CCE
:10141000D7CFCF92DF92EF92FF926C01990FEE0837
:10142000FF08F7FE16C041E06DE28EEB9AE00E94E5
:101430009D0566277727CB016C197D098E099F09C9
:101440004AE00E94BB090196FF90EF90DF90CF9099
:1014500008954AE0C701B601FF90EF90DF90CF906A
:101460000C94BB09FC0101900020E9F73197AF0112
:10147000481B590BBC018EEB9AE00C948F031F9311
:10148000CF93DF93EC01162F672F0E944634612F14
:10149000CE010196DF91CF911F910C9446340F93AA
:1014A0001F93CF938C010E943E34C82FC801019630
:1014B0000E943E342C2F30E0322F2227820F932FB0
:1014C000911DCF911F910F910895AF92BF92CF922E
:1014D000DF92EF92FF920F931F93CF93DF93D82E5B
:1014E00081E0D812F5C060E08AE20E940C0260E060
:1014F0008BE20E940C0260E08CE20E940C028AE007
:1015000090E00E94F30289E30E94A10160E882EB6F
:101510009AE00E94240563E082EB9AE00E94240591
:101520000E94AB0189E30E94A1016FE882EB9AE07F
:101530000E94240561E082EB9AE00E9424050E944B
:10154000AB0189E30E94A10164E982EB9AE00E9469
:1015500024050E94AB0168E070E089E390E00E94FE
:10156000740980913A0990913B09891B990B08975E
:10157000D4F10E943601EC010E9436011FEFDD27F5
:10158000819FC00DD11D1124D093C808C093C708F6
:101590000E943601EC010E943601DD27819FC00DBB
:1015A000D11D1124D093CE08C093CD080E943601DE
:1015B000EC010E943601DD27819FC00DD11D112451
:1015C000D093CC08C093CB080E943601EC010E9456
:1015D0003601DD27819FC00DD11D11242A97D0939C
:1015E000CA08C093C908E090CD08F090CE080091D9
:1015F000CB081091CC0881E0D812B1C1C090C908C5
:10160000D090CA088AE990E00E944F0AEC010E15BA
:101610001F050CF075C0CE14DF040CF0BAC084E1D5
:1016200090E00E944F0A9C012C0F3D1FE216F3062A
:101630000CF0B3C08C1B9D0B8E159F050CF0ADC03C
:1016400086E190E00E944F0A9C012C0F3D1F02177B
:1016500013070CF0A2C08C1B9D0B801791070CF098
:101660009CC088E190E00E944F0A9C012C0F3D1F16
:10167000C216D3060CF091C08C1B9D0B8C159D05DA
:101680000CF08BC08AE190E00E944F0A2091C708BD
:101690003091C808AC014C0F5D1F241735070CF0C2
:1016A0007CC08C1B9D0B821793070CF076C01092A8
:1016B0007F0810927E0880917E08DF91CF911F9164
:1016C0000F91FF90EF90DF90CF90BF90AF90089573
:1016D00082E0D8120AC060E08AE20E940C0260E058
:1016E0008BE20E940C0261E007CF61E08CE20E9475
:1016F0000C0261E08BE20E940C0260E08AE2FDCE07
:10170000E016F1060CF045C0C016D1060CF041C041
:101710008CE190E00E944F0A9C012C0F3D1FE216C5
:10172000F306BCF58C1B9D0B8E159F0594F58EE181
:1017300090E00E944F0A9C012C0F3D1F02171307D7
:1017400044F58C1B9D0B801791071CF580E290E0FF
:101750000E944F0A9E01280F391FC216D306CCF4EF
:101760008C1B9D0B8C159D05A4F482E290E00E94D9
:101770004F0A2091C7083091C808AE01480F591F81
:101780002417350734F48C1B9D0B821793070CF438
:101790001DC2EC14FD040CF44FC08CE290E00E94DA
:1017A0004F0A9E01280F391FE216F3060CF497C06A
:1017B00084E390E00E944F0A9E01280F391F2E15E6
:1017C0003F05BCF18C1B9D0BE816F90694F186E3EE
:1017D00090E00E944F0A9C012C1B3D0B021713073F
:1017E00044F18C0F9D1F801791071CF188E390E056
:1017F0000E944F0A9C012C1B3D0BC216D306CCF055
:101800008C0F9D1F8C159D05A4F08AE390E00E942B
:101810004F0A2091C7083091C808AE01480F591FE0
:101820004217530734F08C1B9D0B281739070CF017
:101830000EC287E090E04EC00C151D050CF0ADCF38
:1018400084E290E00E944F0A9E01280F391FE216A1
:10185000F3060CF0A2CF8C1B9D0B8E159F050CF090
:101860009CCF86E290E00E944F0A9E01280F391F0C
:10187000021713070CF091CF8C1B9D0B801791075B
:101880000CF08BCF88E290E00E944F0A9E01280F57
:10189000391FC216D3060CF080CF8C1B9D0B8C1504
:1018A0009D050CF07ACF8AE290E00E944F0A2091C9
:1018B000C7083091C808AE01480F591F24173507D3
:1018C0000CF06BCF8C1B9D0B821793070CF065CF30
:1018D00082E090E090937F0880937E08ECCE8C1B92
:1018E0009D0B8E159F050CF063CF8EE290E00E9459
:1018F0004F0A9E01280F391F021713070CF058CF0B
:101900008C1B9D0B801791070CF052CF80E390E069
:101910000E944F0A9E01280F391FC216D3060CF0F1
:1019200047CF8C1B9D0B8C159D050CF041CF82E39E
:1019300090E00E944F0A2091C7083091C808AE017C
:10194000480F591F241735070CF032CF8C1B9D0B05
:10195000821793070CF02CCF84E090E0BBCF82E09D
:10196000D81278C1C090C908D090CA088AE990E01E
:101970000E944F0AEC010E151F050CF086C0CE1414
:10198000DF040CF086C08CE390E00E944F0A9E01B9
:10199000280F391FE216F306BCF58C1B9D0B8E1524
:1019A0009F0594F58EE390E00E944F0A9E01280F58
:1019B000391F0217130744F58C1B9D0B80179107E5
:1019C0001CF580E490E00E944F0A9E01280F391F09
:1019D000C216D306CCF48C1B9D0B8C159D05A4F46C
:1019E00082E490E00E944F0A2091C7083091C80815
:1019F000AE01480F591F2417350734F48C1B9D0B7B
:101A0000821793070CF453CE84E590E00E944F0AAE
:101A10009E01280F391FE216F3060CF4DAC08CE59C
:101A200090E00E944F0A9E01280F391F2E153F0596
:101A30000CF4FFCE8C1B9D0BE816F9060CF4F9CEC6
:101A40008EE590E00E944F0A9C012C1B3D0B021773
:101A500013070CF4EECE8C0F9D1F801791070CF42A
:101A6000E8CE80E690E00E944F0A9C012C1B3D0BC3
:101A7000C216D3060CF4DDCE8C0F9D1F8C159D0570
:101A80000CF4D7CE82E690E0C2CEE016F1060CF45C
:101A900051C0EC14FD040CF0B7CF0C151D050CF073
:101AA000B3CF8CE490E00E944F0A9E01280F391FAB
:101AB000E216F3060CF0A8CF8C1B9D0B8E159F052C
:101AC0000CF0A2CF8EE490E00E944F0A9E01280FF6
:101AD000391F021713070CF097CF8C1B9D0B801733
:101AE00091070CF091CF80E590E00E944F0A9E0193
:101AF000280F391FC216D3060CF086CF8C1B9D0B06
:101B00008C159D050CF080CF82E590E00E944F0A75
:101B10002091C7083091C808AE01480F591F2417FB
:101B200035070CF071CF8C1B9D0B821793070CF4BB
:101B3000CFCE6ACFC016D1060CF0ABCF84E490E0D4
:101B40000E944F0A9E01280F391FE216F3060CF07F
:101B5000A0CF8C1B9D0B8E159F050CF09ACF86E4B1
:101B600090E00E944F0A9E01280F391F02171307A9
:101B70000CF08FCF8C1B9D0B801791070CF089CF39
:101B800088E490E00E944F0A9E01280F391FC21678
:101B9000D3060CF07ECF8C1B9D0B8C159D050CF095
:101BA00078CF8AE490E00E944F0A2091C7083091D4
:101BB000C808AE01480F591F241735070CF069CF2C
:101BC0008C1B9D0B821793070CF063CF81E090E094
:101BD00081CE8C1B9D0B8E159F050CF020CF86E5CA
:101BE00090E00E944F0A9E01280F391F0217130729
:101BF0000CF015CF8C1B9D0B801791070CF00FCFAD
:101C000088E590E00E944F0A9E01280F391FC216F6
:101C1000D3060CF004CF8C1B9D0B8C159D050CF08E
:101C2000FECE8AE590E00E944F0A2091C7083091CD
:101C3000C808AE01480F591F241735070CF0EFCE26
:101C40008C1B9D0B821793070CF486CEE8CE85E0A3
:101C500090E040CE0E151F050CF057C0C090C9088B
:101C6000D090CA08CE14DF040CF0E3CD84E690E0F7
:101C70000E944F0A5C018AE990E00E944F0AEC0141
:101C8000C5018C0F9D1FE816F9060CF0D2CDAC1AD9
:101C9000BD0AAE14BF040CF0CCCD86E690E00E94E5
:101CA0004F0A9E01280F391F021713070CF0C1CDF0
:101CB0008C1B9D0B801791070CF0BBCD88E690E044
:101CC0000E944F0A9E01280F391FC216D3060CF03E
:101CD000B0CD8C1B9D0B8C159D050CF0AACD8AE612
:101CE00090E00E944F0A2091C7083091C808AE01C9
:101CF000480F591F241735070CF09BCD8C1B9D0BEB
:101D0000821793070CF4D3CC94CDE016F1060CF0B7
:101D100090CDC090C908D090CA08C016D1060CF06A
:101D200088CD8CE690E00E944F0A5C018AE990E041
:101D30000E944F0AEC01C5018C0F9D1FE816F906A1
:101D40000CF077CDAC1ABD0AAE14BF040CF071CD07
:101D50008EE690E00E944F0A9E01280F391F02175D
:101D600013070CF066CD8C1B9D0B801791070CF0B0
:101D700060CD80E790E00E944F0A9E01280F391F36
:101D8000C216D3060CF055CD8C1B9D0B8C159D05F2
:101D90000CF04FCD82E790E00E944F0A2091C708D7
:101DA0003091C808AE01480F591F241735070CF0B1
:101DB00040CD8C1B9D0B821793070CF407CF39CDB8
:101DC0000F931F93CF93DF9388E990E00E944F0A0F
:101DD000EC0140E060E080E00E94BA06892BB9F097
:101DE00040E062E082E00E94BA06892BF1F040E018
:101DF00060E080E00E94BA06892B09F455C040E0FB
:101E000063E082E00E94BA06892B79F014C040E0BA
:101E100060E081E00E94BA06892B11F740E061E0A2
:101E200081E00E94BA06892BD9F681E00E94650AFA
:101E3000873009F44AC080910601909107018B30E8
:101E4000910509F04BC0CE0163E070E00E9433368B
:101E50008B0146E950E08AE090E00E946C07BE01E9
:101E6000DD0F880B990B0E94023526E636E646EA1E
:101E70005FE30E9458340E94CA3446E950E08BE088
:101E800090E00E946C0746E950E0B8018AE090E0DB
:101E90000E946C076CE370E08CE390E0DF91CF91DF
:101EA0001F910F910C94070740E060E081E00E94D1
:101EB000BA06892B09F0A3CF40E061E081E00E94DF
:101EC000BA06892B09F4B1CF9ACF82E00E94650A45
:101ED000873009F0B0CF0E94DB077BCF0C97D1F69B
:101EE000CE0163E070E00E9433368B0146E950E09A
:101EF0008AE090E00E946C07BE01DD0F880B990B11
:101F00000E94023526E636E646EA5FE30E94583430
:101F10000E94CA3446E950E08CE090E0B2CF8F9244
:101F20009F92AF92BF92CF92DF92EF92FF920F9368
:101F30001F93CF93DF937C0188E990E00E944F0AC2
:101F4000EC010E94DB0740E060E080E00E94BA06FE
:101F5000892B09F482C040E062E082E00E94BA0668
:101F6000892B79F340E060E080E00E94BA06892B7B
:101F700009F484C040E063E082E00E94BA06892B45
:101F800001F3CE0163E070E00E94333644E650E096
:101F90008AE090E00E946C0744E650E0BE018CE0CD
:101FA000E816F10409F07BC08CE090E00E946C0719
:101FB000CE0166E070E00E9433366B0144E650E0EB
:101FC0008AE090E00E946C076CE370E08CE390E0A4
:101FD0000E94070710E000E04E010D2E000CAA0839
:101FE000BB080E94DB0740E060E080E00E94BA0688
:101FF000892B09F457C040E062E082E00E94BA06F3
:10200000892B09F45FC040E060E080E00E94BA06DE
:10201000892B09F4AEC040E062E082E00E94BA067B
:10202000892B09F0B7C0C501B4010E94023520E038
:1020300030E040E250E40E9458340E94CA3444E642
:1020400050E08AE090E00E946C070F5F1F4F0E94F3
:10205000F605C8010E94090A45C040E060E081E041
:102060000E94BA06892B09F076CF40E061E081E05A
:102070000E94BA06892B09F06ECF63CF40E060E082
:1020800081E00E94BA06892B09F074CF40E061E03C
:1020900081E00E94BA06892B09F06CCF52CF8BE009
:1020A00090E084CF40E060E081E00E94BA06892B96
:1020B00009F0A1CF40E061E081E00E94BA06892BDF
:1020C00009F099CF40E060E080E00E94BA06892BD9
:1020D00009F43EC040E063E082E00E94BA06892B2A
:1020E00009F091CF0430110509F07BCF6CE370E06B
:1020F0008CE390E00E94070744E650E0B6018AE0D6
:1021000090E00E946C0744E650E0BE018CE0E816C7
:10211000F10409F05EC08CE090E00E946C07D7FDEE
:102120002196BE017595679544E650E08AE090E0FF
:102130000E946C07DF91CF911F910F91FF90EF905C
:10214000DF90CF90BF90AF909F908F900C94E00E57
:1021500040E060E081E00E94BA06892B09F0BACF26
:1021600040E061E081E00E94BA06892B09F0B2CF1D
:10217000B9CF40E060E081E00E94BA06892B09F007
:102180004ACF40E061E081E00E94BA06892B09F065
:1021900042CF49CF40E060E080E00E94BA06892B40
:1021A00049F040E063E082E00E94BA06892B09F022
:1021B0002ACF39CF40E060E081E00E94BA06892B47
:1021C00081F740E061E081E00E94BA06892B49F77F
:1021D0002ACF8BE090E0A1CFCF92DF92EF92FF92D7
:1021E000CF93DF9388E990E00E944F0AEC0140E032
:1021F00060E080E00E94BA06892B09F499C040E0B3
:1022000062E082E00E94BA06892B09F4A1C070E066
:1022100060E090E080E00E94070782E090E00E948A
:102220006108CE0166E070E00E94333644E650E07B
:102230008AE090E00E946C0764E670E084E690E03B
:102240000E94070740E060E080E00E94BA06892B08
:1022500009F49FC040E062E082E00E94BA06892B48
:1022600059F340E060E080E00E94BA06892B09F44F
:10227000A1C040E063E082E00E94BA06892BE1F24F
:102280006CE370E08CE390E00E94070740E060E0C0
:1022900080E00E94BA06892B09F49DC040E062E00C
:1022A00082E00E94BA06892B89F740E060E080E076
:1022B0000E94BA06892B09F49FC040E063E082E0E7
:1022C0000E94BA06892B11F7BE01DD0F880B990B0E
:1022D0000E9402356B017C0120E030E040EC5FE3BE
:1022E0000E94B2350E94CA3446E950E08DE090E089
:1022F0000E946C0723E333E343EF5FE3C701B601BA
:102300000E94B2350E94CA3446E950E08BE090E06A
:102310000E946C076CE370E08CE390E00E9407077A
:10232000DF91CF91FF90EF90DF90CF900C94E00E73
:1023300040E060E081E00E94BA06892B09F05FCF9F
:1023400040E061E081E00E94BA06892B09F057CF96
:1023500040E060E080E00E94BA06892B59F040E03E
:1023600063E082E00E94BA06892B09F050CF0E94F8
:10237000DB073DCF40E060E081E00E94BA06892B98
:1023800071F740E061E081E00E94BA06892B39F7DD
:10239000EECF40E060E081E00E94BA06892B09F0B0
:1023A00059CF40E061E081E00E94BA06892B09F034
:1023B00051CF42CF40E060E081E00E94BA06892B15
:1023C00009F057CF40E061E081E00E94BA06892B16
:1023D00009F04FCF31CF40E060E081E00E94BA06C3
:1023E000892B09F05BCF40E061E081E00E94BA06F2
:1023F000892B09F053CF59CF40E060E081E00E9483
:10240000BA06892B09F059CF40E061E081E00E94D3
:10241000BA06892B09F051CF57CFCF93DF9388E9C4
:1024200090E00E944F0AEC0140E060E080E00E94F2
:10243000BA06892B09F447C040E062E082E00E94BE
:10244000BA06892B09F44FC070E060E090E080E0AC
:102450000E94070783E090E00E94610848EE53E085
:1024600064E670E08FE10E94DB0861E070E080E0EC
:1024700090E00E945B0360ED77E080E090E00E94D6
:102480005B03BE01D7FF02C06D5F7F4F75956795F7
:102490007595679548E750E08DE090E00E946C07E5
:1024A000BE01660F771F48E750E08BE090E00E9486
:1024B0006C076CE370E08CE390E00E940707DF910B
:1024C000CF910C94E00E40E060E081E00E94BA06FB
:1024D000892B09F0B1CF40E061E081E00E94BA06AB
:1024E000892B09F0A9CF40E060E080E00E94BA06A5
:1024F000892B59F040E063E082E00E94BA06892B04
:1025000009F0A2CF0E94DB078FCF40E060E081E0BE
:102510000E94BA06892B71F740E061E081E00E94D9
:10252000BA06892B39F7EECFCF93DF9388E990E095
:102530000E944F0AEC010E94DB0740E060E080E06F
:102540000E94BA06892B09F475C040E062E082E07F
:102550000E94BA06892B79F340E060E080E00E9497
:10256000BA06892B09F477C040E063E082E00E945C
:10257000BA06892B01F370E060E090E080E00E94F1
:102580000707BE01D7FF02C0695F7F4F23E0759543
:1025900067952A95E1F744E650E08DE090E00E94CF
:1025A0006C0783E090E00E946108BE01D7FF02C083
:1025B0006D5F7F4F75956795759567954CE350E016
:1025C0008AE090E00E946C0768EE73E086E292E099
:1025D0000E94C40868EE73E080E090E00E945B0314
:1025E00064EF71E084E690E00E94C40868EE73E056
:1025F00080E090E00E945B03CE0165E070E00E9405
:10260000333644E650E08DE090E00E946C07BE0156
:10261000660F771F46E950E08BE090E00E946C0760
:102620006CE370E08CE390E00E940707DF91CF91AC
:102630000C94E00E40E060E081E00E94BA06892B35
:1026400009F083CF40E061E081E00E94BA06892B67
:1026500009F07BCF70CF40E060E081E00E94BA06D5
:10266000892B09F081CF40E061E081E00E94BA0649
:10267000892B09F079CF5FCF4F925F926F927F9253
:10268000AF92BF92CF92DF92EF92FF920F931F9380
:10269000CF93DF9388E990E00E944F0AEC0162E358
:1026A00070E080E090E00E945B0360E971E084E804
:1026B00093E00E94C40864EF71E080E090E00E9423
:1026C0005B0360E570E080E590E00E9407075E0133
:1026D000D7FF03C08FEFA81AB80AB594A79410E0EB
:1026E00000E02E010D2E000C660877080E94F6050A
:1026F000C8010E94090A0E94DB0740E060E080E018
:102700000E94BA06892B09F47CC040E062E082E0B6
:102710000E94BA06892B09F085C040E060E080E0A5
:102720000E94BA06892B71F440E060E081E00E94CB
:10273000BA06892B39F440E061E081E00E94BA06D4
:10274000892B41F040E063E082E00E94BA06892BC9
:1027500009F068C00230110549F644E650E0B501C1
:102760008DE090E00E946C0764EF71E089E591E0F4
:102770000E94C4086CE271E080E090E00E945B037C
:10278000C301B2010E9402356B017C0123E333E3F4
:1027900043E950E40E9458340E94CA3442E350E0B6
:1027A0008AE090E00E946C0783E090E00E9461085C
:1027B00082E090E00E94090A0E94F6058BED93E00A
:1027C0000E94320A68EC70E08CE093E00E94C4083A
:1027D0006CED75E080E090E00E945B0320E030E06B
:1027E00040EC5FE3C701B6010E9458340E94CA342E
:1027F00044E650E08AE090E00E946C0703E010E0BD
:1028000075CF40E060E081E00E94BA06892B09F0B4
:102810007CCF40E061E081E00E94BA06892B09F09C
:1028200074CF7BCF0115110509F043C062E370E05E
:1028300082E390E00E94070740E060E080E00E94B1
:10284000BA06892BC1F040E062E082E00E94BA063D
:10285000892B91F740E060E080E00E94BA06892B66
:10286000C9F040E063E082E00E94BA06892B21F7BC
:1028700001E010E03BCF40E060E081E00E94BA065A
:10288000892B09F740E061E081E00E94BA06892BBC
:10289000D1F6E0CF40E060E081E00E94BA06892BEB
:1028A00001F740E061E081E00E94BA06892BC9F699
:1028B000DFCF0130110539F470E060E090E080E096
:1028C0000E9407074ACF0330110509F043CF70E09B
:1028D00060E090E080E00E940707CE016DE070E0CC
:1028E0000E9433364CE350E08DE090E00E946C078C
:1028F0000E94F6058EEC93E00E94320A68EC70E0CC
:1029000089E591E00E94C40868EB7BE080E090E0FC
:102910000E945B03BE010D2E000C880B990B0E94D8
:10292000023520E030E040EC5FE30E94B2350E94C7
:10293000CA3444E650E08DE090E00E946C07BE018E
:10294000660F771F46E950E08BE090E00E946C072D
:10295000DF91CF911F910F91FF90EF90DF90CF907B
:10296000BF90AF907F906F905F904F900C94E00E6F
:102970001F920F920FB60F9211244F935F936F9394
:102980007F938F939F934091E9085091EA0860915B
:10299000EB087091EC088091E8089091E7089A3173
:1029A00019F51092E7089091E708953008F1845CDA
:1029B0008D3700F18D574E5F5F4F6F4F7F4F809384
:1029C000E8084093E9085093EA086093EB08709395
:1029D000EC089F918F917F916F915F914F910F9034
:1029E0000FBE0F901F9018959F5F9093E708DBCF65
:1029F000835CDECF4F5F5F4F6F4F7F4FE0CF1F9203
:102A00000F920FB60F9211240BB60F922F933F9394
:102A10004F935F936F937F938F939F93AF93BF93E6
:102A2000EF93FF9388E799E00E940D04FF91EF91E7
:102A3000BF91AF919F918F917F916F915F914F91D6
:102A40003F912F910F900BBE0F900FBE0F901F90D4
:102A500018951F920F920FB60F9211240BB60F927A
:102A60002F938F939F93EF93FF93E0918809F091B9
:102A700089098081E0918E09F0918F0982FD1DC046
:102A80009081809191098F5F8F73209192098217B5
:102A900041F0E0919109F0E0E858F64F958F80936E
:102AA0009109FF91EF919F918F912F910F900BBE04
:102AB0000F900FBE0F901F9018958081F2CF1F923C
:102AC0000F920FB60F9211240BB60F922F933F93D4
:102AD0004F935F936F937F938F939F93AF93BF9326
:102AE000EF93FF9385E19AE00E940D04FF91EF912F
:102AF000BF91AF919F918F917F916F915F914F9116
:102B00003F912F910F900BBE0F900FBE0F901F9013
:102B100018951F920F920FB60F9211240BB60F92B9
:102B20002F938F939F93EF93FF93E091250AF0915A
:102B3000260A8081E0912B0AF0912C0A82FD1DC0AB
:102B4000908180912E0A8F5F8F7320912F0A8217B8
:102B500041F0E0912E0AF0E0EB5EF54F958F809307
:102B60002E0AFF91EF919F918F912F910F900BBEA5
:102B70000F900FBE0F901F9018958081F2CF1F927B
:102B80000F920FB60F9211240BB60F922F933F9313
:102B90004F935F936F937F938F939F93AF93BF9365
:102BA000EF93FF9380917100887F803609F44DC0C8
:102BB00008F040C0883209F4A9C028F5803109F432
:102BC0009DC0C8F4882309F407C1883009F496C071
:102BD000FF91EF91BF91AF919F918F917F916F91F5
:102BE0005F914F913F912F910F900BBE0F900FBEB1
:102BF0000F901F901895883109F488C0803241F7F2
:102C00008093F30814C0803409F4A5C040F48033E5
:102C1000B9F38833E9F68093F30885ECBCC08035BE
:102C200009F489C0883509F49EC0883489F60E9469
:102C3000AF04CECF883909F494C038F5883729F02D
:102C400050F4883611F0803719F683E08093F50848
:102C50001092C20857C0883809F483C0803919F02F
:102C6000803809F0B5CF8091C208803208F079C071
:102C7000E091C20881E08E0F8093C20880917300BA
:102C8000F0E0EE55F74F80833DC0803B39F0E0F433
:102C9000803A09F485C0883A09F09ACF84E080939D
:102CA000F5081092A1081092A008E091C508F091D3
:102CB000C60809958091A00881110FC081E080931A
:102CC000A0081092800809C0803C09F4A6CF883C77
:102CD00009F4A3CF883B09F07BCFE091A10881E004
:102CE0008E0F8093A108F0E0E058F74F8081809329
:102CF00073009091A1088091A00831C08091EE08E6
:102D00008093730085EC8093740062CF9091F008FB
:102D10008091EF089817B8F58091F1089091F2082A
:102D2000E091F00821E02E0F2093F008E80FF92F32
:102D3000F11D8081E5CF2091F1083091F208E091FA
:102D4000F00881E08E0F8093F00880917300E20F0D
:102D5000F32FF11D80839091F0088091EF08981770
:102D600088F285E8D0CF2091F1083091F208E09107
:102D7000F00881E08E0F8093F00880917300E20FDD
:102D8000F32FF11D80838091F408811150CF81E0F1
:102D90008093ED0884EA809374001092F50818CFB0
:102DA00085EC809374001092F5088091C2088032FF
:102DB00030F4E091C208F0E0EE55F74F10826091D8
:102DC000C20870E0E091C308F091C40882EA98E07C
:102DD00009951092C208FCCE1092F30828CFCF922A
:102DE000DF92EF92FF920F931F93E82FF92F05C008
:102DF000015011092109310961F19081962394173D
:102E0000B9F305C0015011092109310911F190816F
:102E100096239413F7CFC12CD12CE12CF12C0AC0AE
:102E20008FEFC81AD80AE80AF80A0C151D052E05F6
:102E30003F0579F080818623841791F36C2D7D2DD9
:102E40008E2D9F2D1F910F91FF90EF90DF90CF90CF
:102E5000089560E070E080E090E01F910F91FF9096
:102E6000EF90DF90CF900895682F82EB9AE00C945A
:102E70002405CF93DF93C82F60E0813009F43FC071
:102E800061E08230E1F560E08CE20E940C0260E0DB
:102E90008BE20E940C0261E08AE20E940C0289E24D
:102EA0000E94A10190E080E00E94341781E090E050
:102EB0000E9434170E94AB016AE070E080E090E06D
:102EC0000E945B0389E20E94A1018EE190E00E94D2
:102ED000341780E00E94490162E070E089E290E0EE
:102EE0000E94740980913A0990913B09891B990BC2
:102EF000029774F481E090E0DF91CF9108958CE225
:102F00000E940C0261E08BE20E940C0260E0C4CFE0
:102F10000E943601D82F0E94360120E03D2FA901E2
:102F2000482BCA018431910539F76AE070E080E0EE
:102F300090E00E945B0360E0C13009F447C061E0AB
:102F4000C23009F043C060E08CE20E940C0260E0F5
:102F50008BE20E940C0261E08AE20E940C0289E28C
:102F60000E94A10190E080E00E94341781E090E08F
:102F70000E9434170E94AB016AE070E080E090E0AC
:102F80000E945B0389E20E94A1018EE190E00E9411
:102F9000341780E00E94490162E070E089E290E02D
:102FA0000E94740980913A0990913B09891B990B01
:102FB00002970CF49FCF0E943601C82F0E94360161
:102FC00020E03C2FA901482BCA0196CF8CE20E9439
:102FD0000C0261E08BE20E940C0260E0BDCFBF9268
:102FE000CF92DF92EF92FF920F931F93CF93DF93D5
:102FF0008C0161E08CE20E940C0261E08BE20E9495
:103000000C0260E08AE20E940C0280E60E94A101AC
:1030100082E090E00E9434170E94AB0164E070E00F
:1030200080E690E00E94740980913A0990913B09F2
:10303000891B990B049794F10E943601D82F20E048
:10304000C22F0E9436018C2B9D2B6AE070E00E94FB
:1030500033368091DF089091E008EB01C81BD90B53
:103060000E94360124EBD22E9C01D29EC001D39E39
:10307000900D1124EE24EA94F12CB7010E9433360E
:10308000B62EC72E0E9436019C01D29EC001D39E4F
:10309000900D1124B7010E9433367B01D7FF02C087
:1030A000C859DE4F0130110529F00230110569F0D1
:1030B000CE2DDF2DCE01DF91CF911F910F91FF908B
:1030C000EF90DF90CF90BF900895CB2DDC2DF2CF05
:1030D0000E94F60584EA90E00E944F0A5C0186EAAD
:1030E00090E00E944F0A6C0188EA90E00E944F0A2B
:1030F0004C018AEA90E00E944F0A3C018CEA90E081
:103100000E944F0A2C018EEA90E00E944F0A7C0137
:1031100080EB90E00E944F0A8C01D0E0C0E08EEB83
:10312000282E8AE0382E88E00E94E301892BA9F43A
:1031300088E00E94E301892BD9F362E370E080E02C
:1031400090E00E945B03809100018F5F89300CF05A
:1031500059C0809300010E94F60589E00E94E301B6
:10316000892BA9F489E00E94E301892BD9F362E35A
:1031700070E080E090E00E945B038091000181504C
:1031800018160CF041C0809300010E94F605809152
:103190000001813009F044C060E080E00E949E069A
:1031A000DF93CF93DF93CF938CE393E09F938F9341
:1031B0003F922F920E944C098AE00E94E3012DB7B2
:1031C0003EB7285F3F4F0FB6F8943EBF0FBE2DBFEE
:1031D000892BE1F4E29660E971E080E090E00E94E2
:1031E0005B03C1303FEFD30714F4C1E0DFEFCF3F03
:1031F000D10519F014F0CFEFD0E0BE01CE010E944E
:10320000070791CF81E0A5CF88E0BDCF8BE00E947A
:10321000E301892B11F4E297DECFD0E0C0E0EDCFDF
:10322000823009F055C060E080E00E949E06BF92A7
:10323000AF921F928AE08F9389E493E09F938F93DC
:103240003F922F920E944C0986E00E94E3012DB725
:103250003EB7285F3F4F0FB6F8943EBF0FBE2DBF5D
:10326000892B61F4B50184EA90E00E943F0A46E9A7
:1032700050E0B5018AE00E94850855CF8AE00E949F
:10328000E301892B81F462E370E080E090E00E942A
:103290005B0338E0A31632E0B3060CF044CF85E0C0
:1032A000A80EB11C40CF8BE00E94E301892B09F0EE
:1032B0003ACF62E370E080E090E00E945B039BEF16
:1032C000A916B1040CF42FCF25E0A21AB1082BCF18
:1032D000833009F052C060E080E00E949E06DF92D9
:1032E000CF921F928AE08F938AE593E09F938F930A
:1032F0003F922F920E944C0986E00E94E3012DB775
:103300003EB7285F3F4F0FB6F8943EBF0FBE2DBFAC
:10331000892B49F4B60186EA90E00E943F0A46E90B
:1033200050E0B601A7CF8AE00E94E301892B81F427
:1033300062E370E080E090E00E945B0338E0C31637
:1033400032E0D3060CF0EFCE85E0C80ED11CEBCEF8
:103350008BE00E94E301892B09F0E5CE62E370E087
:1033600080E090E00E945B039BEFC916D1040CF44F
:10337000DACE25E0C21AD108D6CE843009F055C085
:1033800060E080E00E949E069F928F921F928AE0EA
:103390008F938FE693E09F938F933F922F920E949B
:1033A0004C0986E00E94E3012DB73EB7285F3F4FEE
:1033B0000FB6F8943EBF0FBE2DBF892B61F446E9CE
:1033C00050E0B4018BE00E948508B40188EA90E0E7
:1033D0000E943F0AA8CE8AE00E94E301892B81F473
:1033E00062E370E080E090E00E945B0330E28316CD
:1033F00033E093060CF097CE85E0880E911C93CEB7
:103400008BE00E94E301892B09F08DCE62E370E02E
:1034100080E090E00E945B0397E9891691040CF428
:1034200082CE25E0821A91087ECE853009F053C005
:1034300060E080E00E949E067F926F921F928AE079
:103440008F9381E893E09F938F933F922F920E94F6
:103450004C0986E00E94E3012DB73EB7285F3F4F3D
:103460000FB6F8943EBF0FBE2DBF892B51F4B301A8
:103470008AEA90E00E943F0A46E950E0B3018BE0FF
:10348000FACE8AE00E94E301892B81F462E370E0C6
:1034900080E090E00E945B0330E2631633E0730645
:1034A0000CF041CE85E0680E711C3DCE8BE00E9491
:1034B000E301892B09F037CE62E370E080E090E011
:1034C0000E945B0397E9691671040CF42CCE25E089
:1034D000621A710828CE863009F053C060E080E09F
:1034E0000E949E065F924F921F928AE08F9381E91D
:1034F00093E09F938F933F922F920E944C0986E016
:103500000E94E3012DB73EB7285F3F4F0FB6F894F6
:103510003EBF0FBE2DBF892B49F4B2018CEA90E06B
:103520000E943F0A46E950E0B201A9CF8AE00E941A
:10353000E301892B81F462E370E080E090E00E9477
:103540005B0338EE431633E053060CF0ECCD85E018
:10355000480E511CE8CD8BE00E94E301892B09F055
:10356000E2CD62E370E080E090E00E945B039DE2C8
:10357000491691E059060CF4D6CD25E0421A5108BF
:10358000D2CD873009F065C060E080E00E949E06E1
:10359000FF92EF921F928AE08F9385EA93E09F93C8
:1035A0008F933F922F920E944C0986E00E94E30184
:1035B0002DB73EB7285F3F4F0FB6F8943EBF0FBE02
:1035C0002DBF892BD9F4B7018EEA90E00E943F0A03
:1035D00044E650E0B7018EE10E94DB0862E370E050
:1035E00080E090E00E945B0344E650E065E474E014
:1035F0006E197F098FE10E94DB0895CD8AE00E9459
:10360000E301892B81F462E370E080E090E00E94A6
:103610005B033AE7E31633E0F3060CF084CD85E074
:10362000E80EF11C80CD8BE00E94E301892B09F0AC
:103630007ACD62E370E080E090E00E945B039BE360
:10364000E91692E0F9060CF46ECD25E0E21AF108D5
:103650006ACD883009F067CD60E080E00E949E0668
:103660001F930F931F928AE08F938AEB93E09F93AF
:103670008F933F922F920E944C0986E00E94E301B3
:103680002DB73EB7285F3F4F0FB6F8943EBF0FBE31
:103690002DBF892BC1F4B80180EB90E00E943F0A56
:1036A00044E650E0B8018EE10E94DB0862E370E07E
:1036B00080E090E00E945B0344E650E065E474E043
:1036C000601B710B97CF8AE00E94E301892B71F494
:1036D00062E370E080E090E00E945B030A3733E031
:1036E00013070CF020CD0B5F1F4F1DCD8BE00E9408
:1036F000E301892B09F017CD62E370E080E090E0F0
:103700000E945B030B3382E018070CF40CCD0550CC
:10371000110909CD0E94F60587E0882E84E0982ED5
:10372000CEEBDAE09BE8E92E94E0F92E2DECC22EE8
:1037300024E0D22E3BEDA32E34E0B32E0FE114E0B3
:1037400088E00E94E301892B79F488E00E94E3017C
:10375000892BD9F3809101018F5F89300CF0A8C0CB
:10376000809301010E94F60589E00E94E301892B04
:1037700071F489E00E94E301892BD9F38091010162
:10378000815009F499C0809301010E94F6058AE0F6
:103790000E94E301892B09F091C068E270E088E2A1
:1037A00090E00E94070780910101813009F0A8C1D3
:1037B00060E080E00E949E0686EE93E00E94320A5E
:1037C00061E080E00E949E0682EF93E00E94320A50
:1037D00062E080E00E949E068091C8088F938091ED
:1037E000C7088F938091CA088F938091C9088F93DF
:1037F0008091CC088F938091CB088F938091CE08D5
:103800008F938091CD088F939F928F92DF93CF9368
:103810000E944C0964E670E080E090E00E945B0347
:1038200081E00E94650A2DB73EB7245F3F4F0FB677
:10383000F8943EBF0FBE2DBF81114FC060E08CE0F9
:103840000E949E0688E194E00E94320A63E080E0D4
:103850000E949E068AE190E00E944F0A382E292E8F
:1038600088E190E00E944F0A582E492E86E190E0B0
:103870000E944F0A782E692E84E190E00E944F0A40
:103880002F923F924F925F926F927F929F938F936E
:103890001F930F93DF93CF930E944C092DB73EB730
:1038A000245F3F4F0FB6F8943EBF0FBE2DBF48CFE9
:1038B00021E02093010156CF88E065CF8BE00E9484
:1038C000E301892B29F468ED7FEF88ED9FEF69CF45
:1038D00070E060E090E080E064CF81E00E94650AE3
:1038E0008130D1F560E08CE00E949E0680E394E098
:1038F0000E94320A63E080E00E949E0682E290E02D
:103900000E944F0A382E292E80E290E00E944F0A32
:10391000582E492E8EE190E00E944F0A782E692E93
:103920008CE190E00E944F0A2F923F924F925F925B
:103930006F927F929F938F931F930F93DF93CF93F9
:103940000E944C092DB73EB7245F3F4F0FB6F89445
:103950003EBF0FBE2DBFF4CE81E00E94650A8230CB
:10396000D1F560E08CE00E949E0687E394E00E941F
:10397000320A63E080E00E949E068AE290E00E94A4
:103980004F0A382E292E88E290E00E944F0A582EC6
:10399000492E86E290E00E944F0A782E692E84E23A
:1039A00090E00E944F0A2F923F924F925F926F9247
:1039B0007F929F938F931F930F93DF93CF930E94D8
:1039C0004C092DB73EB7245F3F4F0FB6F8943EBF6A
:1039D0000FBE2DBFB5CE81E00E94650A8430D1F5BF
:1039E00060E08CE00E949E068EE394E00E94320A22
:1039F00063E080E00E949E0682E390E00E944F0A0E
:103A0000382E292E80E390E00E944F0A582E492E2E
:103A10008EE290E00E944F0A782E692E8CE290E0B0
:103A20000E944F0A2F923F924F925F926F927F9225
:103A30009F938F931F930F93DF93CF930E944C0913
:103A40002DB73EB7245F3F4F0FB6F8943EBF0FBE71
:103A50002DBF76CE81E00E94650A8530D1F560E009
:103A60008CE00E949E0685E494E00E94320A63E0A6
:103A700080E00E949E068AE390E00E944F0A382E62
:103A8000292E88E390E00E944F0A582E492E86E3A3
:103A900090E00E944F0A782E692E84E390E00E9405
:103AA0004F0A2F923F924F925F926F927F929F9315
:103AB0008F931F930F93DF93CF930E944C092DB7E1
:103AC0003EB7245F3F4F0FB6F8943EBF0FBE2DBFE9
:103AD00037CE81E00E94650A873009F031CE60E080
:103AE0008CE00E949E068CE494E00E94320A63E01F
:103AF00080E00E949E0683E594E00E94320A20CE78
:103B0000823009F089C160E080E00E949E0688E66C
:103B100094E00E94320A61E080E00E949E0685E700
:103B200094E00E94320A62E080E00E949E0680914A
:103B3000C8088F938091C7088F938091CA088F938C
:103B40008091C9088F938091CC088F938091CB0886
:103B50008F938091CE088F938091CD088F939F9201
:103B60008F92DF93CF930E944C0960E08CE00E941B
:103B70009E0682E00E94650A2DB73EB7245F3F4F44
:103B80000FB6F8943EBF0FBE2DBF81113AC060E062
:103B90008CE00E949E0686E894E00E94320A63E070
:103BA00080E00E949E0682E490E00E944F0A382E38
:103BB000292E80E490E00E944F0A582E492E8EE371
:103BC00090E00E944F0A782E692E8CE390E00E94CC
:103BD0004F0A2F923F924F925F926F927F929F93E4
:103BE0008F93FF92EF92DF93CF930E944C092DB7F2
:103BF0003EB7245F3F4F0FB6F8943EBF0FBE2DBFB8
:103C00009FCD82E00E94650A8130D1F560E08CE0B2
:103C10000E949E068DE994E00E94320A63E080E0F3
:103C20000E949E068AE490E00E944F0A382E292EB8
:103C300088E490E00E944F0A582E492E86E490E0D6
:103C40000E944F0A782E692E84E490E00E944F0A69
:103C50002F923F924F925F926F927F929F938F939A
:103C6000FF92EF92DF93CF930E944C092DB73EB79E
:103C7000245F3F4F0FB6F8943EBF0FBE2DBF60CDFF
:103C800082E00E94650A8230D1F560E08CE00E94FB
:103C90009E0682EA94E00E94320A63E080E00E947D
:103CA0009E0682E590E00E944F0A382E292E80E57C
:103CB00090E00E944F0A582E492E8EE490E00E9418
:103CC0004F0A782E692E8CE490E00E944F0A2F92C2
:103CD0003F924F925F926F927F929F938F931F9329
:103CE0000F93DF93CF930E944C092DB73EB7245F0B
:103CF0003F4F0FB6F8943EBF0FBE2DBF21CD82E0DF
:103D00000E94650A8430E1F560E08CE00E949E0626
:103D10008EE394E00E94320A63E080E00E949E06F7
:103D20008AE590E00E944F0A382E292E88E590E01F
:103D30000E944F0A582E492E86E590E00E944F0AB5
:103D4000782E692E84E590E00E944F0A2F923F92D0
:103D50004F925F926F927F929F938F9387EA94E046
:103D60009F938F93DF93CF930E944C092DB73EB75B
:103D7000245F3F4F0FB6F8943EBF0FBE2DBFE0CC7F
:103D800082E00E94650A8530D1F560E08CE00E94F7
:103D90009E0685EB94E00E94320A63E080E00E9478
:103DA0009E0682E690E00E944F0A382E292E80E679
:103DB00090E00E944F0A582E492E8EE590E00E9416
:103DC0004F0A782E692E8CE590E00E944F0A2F92C0
:103DD0003F924F925F926F927F929F938F931F9328
:103DE0000F93DF93CF930E944C092DB73EB7245F0A
:103DF0003F4F0FB6F8943EBF0FBE2DBFA1CC82E05F
:103E00000E94650A873009F09BCC60E08CE00E943C
:103E10009E068AEB94E069CE833009F059C060E0D9
:103E200080E00E949E068FEB94E00E94320A61E0DF
:103E300080E00E949E0685E794E00E94320A62E0DC
:103E400080E00E949E0688E190E00E944F0A582E72
:103E5000492E86E190E00E944F0A782E692E84E177
:103E600090E00E944F0A4F925F926F927F929F93D1
:103E70008F93DF92CF92DF93CF930E944C0963E040
:103E800080E00E949E0680E490E00E944F0A582E37
:103E9000492E8EE390E00E944F0A782E692E8CE323
:103EA00090E00E944F0A4F925F926F927F929F9391
:103EB0008F93BF92AF92DF93CF930E944C098DB73F
:103EC0009EB744960FB6F8949EBF0FBE8DBF38CCF8
:103ED000843009F05AC060E080E00E949E0689EEBE
:103EE00094E00E94320A61E080E00E949E0685E72D
:103EF00094E00E94320A62E080E00E949E0680E226
:103F000090E00E944F0A582E492E8EE190E00E94C8
:103F10004F0A782E692E8CE190E00E944F0A4F9252
:103F20005F926F927F929F938F93DF92CF92DF93F6
:103F3000CF930E944C0963E080E00E949E0688E4D3
:103F400090E00E944F0A582E492E86E490E00E948D
:103F50004F0A782E692E84E490E00E944F0A4F9217
:103F60005F926F927F929F938F93BF92AF92DF93F6
:103F7000CF930E944C092DB73EB72C5E3F4F0FB632
:103F8000F8943EBF0FBE2DBFDBCB853009F059C082
:103F900060E080E00E949E0687EF94E00E94320A73
:103FA00061E080E00E949E0685E794E00E94320A6C
:103FB00062E080E00E949E0688E290E00E944F0A44
:103FC000582E492E86E290E00E944F0A782E692EE4
:103FD00084E290E00E944F0A4F925F926F927F922C
:103FE0009F938F93DF92CF92DF93CF930E944C09E0
:103FF00063E080E00E949E0680E590E00E944F0A08
:10400000582E492E8EE490E00E944F0A782E692E99
:104010008CE490E00E944F0A4F925F926F927F92E1
:104020009F938F93BF92AF92DF93CF930E944C09DF
:104030008DB79EB744960FB6F8949EBF0FBE8DBF46
:104040007FCB863009F05AC060E080E00E949E0677
:1040500085E095E00E94320A61E080E00E949E06C1
:1040600085E794E00E94320A62E080E00E949E06AA
:1040700080E390E00E944F0A582E492E8EE290E095
:104080000E944F0A782E692E8CE290E00E944F0A1F
:104090004F925F926F927F929F938F93DF92CF9216
:1040A000DF93CF930E944C0963E080E00E949E065C
:1040B00088E590E00E944F0A582E492E86E590E050
:1040C0000E944F0A782E692E84E590E00E944F0AE4
:1040D0004F925F926F927F929F938F93BF92AF9216
:1040E000DF93CF930E944C092DB73EB72C5E3F4F14
:1040F0000FB6F8943EBF0FBE2DBF22CB873009F01C
:104100006DC060E080E00E949E0683E195E00E9421
:10411000320A61E080E00E949E0685E794E00E94FA
:10412000320A62E080E00E949E068AE390E00E94EC
:104130004F0A382E292E88E390E00E944F0A582E0D
:10414000492E86E390E00E944F0A782E692E84E380
:1041500090E00E944F0A2F923F924F925F926F928F
:104160007F929F938F9384E295E09F938F93DF9349
:10417000CF930E944C0963E080E00E949E0682E695
:1041800090E00E944F0A382E292E80E690E00E948F
:104190004F0A582E492E8EE590E00E944F0A782E45
:1041A000692E8CE590E00E944F0A2F923F924F9229
:1041B0005F926F927F929F938F9325E335E03F93B9
:1041C0002F93DF93CF930E944C098DB79EB74896EB
:1041D0000FB6F8949EBF0FBE8DBFB2CA883009F0EB
:1041E000AFCA60E080E00E949E0686E495E00E94EF
:1041F000320A61E080E00E949E0685E794E00E941A
:10420000320A62E080E00E949E068091C8088F9387
:104210008091C7088F938091CA088F938091C908B5
:104220008F938091CC088F938091CB088F9380914E
:10423000CE088F938091CD088F939F928F92DF93BA
:10424000CF930E944C0960E08CE00E949E0683E0C0
:104250000E94650A2DB73EB7245F3F4F0FB6F89412
:104260003EBF0FBE2DBF81113AC060E08CE00E94BE
:104270009E0686E894E00E94320A63E080E00E9495
:104280009E068AE690E00E944F0A382E292E88E684
:1042900090E00E944F0A582E492E86E690E00E9438
:1042A0004F0A782E692E84E690E00E944F0A2F92E2
:1042B0003F924F925F926F927F929F938F93FF9264
:1042C000EF92DF93CF930E944C092DB73EB7245F46
:1042D0003F4F0FB6F8943EBF0FBE2DBF31CA83E0EB
:1042E0000E94650A8130D1F560E08CE00E949E0654
:1042F0008DE994E00E94320A63E080E00E949E060D
:1043000082E790E00E944F0A382E292E80E790E045
:104310000E944F0A582E492E8EE690E00E944F0AC6
:10432000782E692E8CE690E00E944F0A2F923F92E1
:104330004F925F926F927F929F938F93FF92EF9233
:10434000DF93CF930E944C092DB73EB7245F3F4FB8
:104350000FB6F8943EBF0FBE2DBFF2C983E050CD1B
:10436000E8E7F9E01382128288EE93E0A0E0B0E083
:1043700084839583A683B78320E133E03183208350
:1043800048E950E05587448749E950E05787468718
:104390004BE950E0518B408B4AE950E0538B428B04
:1043A0004DE950E0558B448B4CE950E0578B468BE0
:1043B000118E128E138E148EE5E1FAE013821282B2
:1043C00084839583A683B7833183208320E930E0FB
:1043D0003587248729E230E0378726872BE230E0D3
:1043E000318B208B2AE230E0338B228B25E930E0C1
:1043F000358B248B2CE230E0378B268B118E128E7E
:10440000138E148EE2EBFAE013821282848395837A
:10441000A683B78382E293E091838083EEEBFAE098
:104420001382128284E393E0918380838CE18483FE
:104430008FEF85838EE186838FE1878380E280879B
:1044400081E2818782E2828713861486158616862A
:10445000178661E080E10C94FD05789483B78C6445
:1044600083BF87B7816087BFC2E0CEBD8EB5816054
:104470008EBD8FB581608FBD85B5846085BD85B5E6
:10448000806485BD80918A00836080938A008091DA
:104490008B00816080938B0086E886B91AB81FBCB8
:1044A0008FB58FBD8EB58EBD8EB584608EBD61E03B
:1044B0008DE00E943A0261E08CE00E943A0262E0E4
:1044C00086E00E943A0261E083E20E943A0262E0E2
:1044D00085E20E943A0262E086E20E943A0262E0CD
:1044E00086E00E943A0262E088E00E943A0262E0BE
:1044F00089E00E943A0262E08AE00E943A0262E0A9
:104500008BE00E943A0261E08CE20E943A0261E094
:104510008BE20E943A0261E08AE20E943A02109223
:104520003B0910923A091092F7081092190910925B
:10453000F50881E08093F4081092ED0861E083E1D2
:104540000E940C0261E082E10E940C0280917100E5
:104550008C7F809371008FE28093700085E480935C
:1045600074008DE893E09093C6088093C5088EE8A8
:1045700093E09093C4088093C308E091250AF091DA
:10458000260AC083E091210AF091220A1082E0916C
:10459000230AF091240A1BE0108310922D0AE09167
:1045A000290AF0912A0AD6E0D083E091270AF091F7
:1045B000280A808188698083E091270AF091280A7F
:1045C00080818F7D808361E085E10E943A0261E015
:1045D00086E10E943A02E0918809F0918909C0833E
:1045E000E0918409F09185091082E0918609F091AB
:1045F0008709108310929009E0918C09F0918D0940
:10460000D083E0918A09F0918B0980818869808349
:10461000E0918A09F0918B0980818F7D808364E02D
:1046200084E10E94FD0560E273E080E090E00E947A
:104630005B0388E890E09093E6088093E5088FEFAD
:1046400090E09093E4088093E30884E190E09093F5
:10465000E2088093E10868E870E088E990E00E9451
:104660003F0A6091E3087091E40886E990E00E94B7
:104670003F0A6091E1087091E2088AE990E00E94A7
:104680003F0A80E690E09093E0088093DF088CEB8F
:1046900090E09093DE088093DD0885E191E09093AF
:1046A000DC088093DB0860E670E08CE990E00E9413
:1046B0003F0A6091DD087091DE088EE990E00E946B
:1046C0003F0A6091DB087091DC0880EA90E00E946C
:1046D0003F0A84EF91E09093DA088093D90884E947
:1046E00092E09093D8088093D7088EEB90E0909357
:1046F000D6088093D50880E293E09093D408809305
:10470000D30884E893E09093D2088093D1088EE494
:1047100092E09093D0088093CF0863E171E084EA3F
:1047200090E00E943F0A6091D9087091DA0886EA09
:1047300090E00E943F0A6091D7087091D80888EAFB
:1047400090E00E943F0A6091D5087091D6088AEAED
:1047500090E00E943F0A6091D3087091D4088CEADF
:1047600090E00E943F0A6091D1087091D2088EEAD1
:1047700090E00E943F0A6091CF087091D00880EBD2
:1047800090E00E943F0A0E94F60583E595E00E94B2
:10479000320A61E080E00E949E0686E20E94E30108
:1047A000EC0185E20E94E301DF93CF939F938F9307
:1047B00087E695E09F938F93CEEBDAE0DF93CF937C
:1047C0000E944C0963E080E00E949E0686E00E9401
:1047D000E301F82EE92E88E00E94E301182F092F4B
:1047E00089E00E94E301EF92FF920F931F939F9342
:1047F0008F9387E795E09F938F93DF93CF930E94EA
:104800004C0986E00E94E301EDB7FEB772960FB641
:10481000F894FEBF0FBEEDBF892B09F007C28AE0F6
:1048200090E00E9461080E94F605DD24D394C6E062
:10483000CC2ED5E0BD2ECAEED5E00EEB1AE088E016
:104840000E94E301892BA9F488E00E94E301892BEF
:10485000D9F362E370E080E090E00E945B03809116
:1048600005018F5F873008F0FAC1809305010E942F
:10487000F60589E00E94E301892BA1F489E00E94FA
:10488000E301892BD9F362E370E080E090E00E94BD
:104890005B0380910501815009F4E4C18093050117
:1048A0000E94F6058091050160E0853008F0DDC1C9
:1048B00082E00E949E068FE895E00E94320A61E045
:1048C00082E00E949E0686E995E00E94320A62E03C
:1048D00082E00E949E0685EA95E00E94320A63E02B
:1048E00082E00E949E0684EB95E00E94320A60916D
:1048F0000501615080E00E949E068DEC97E00E94C9
:10490000320A80910501813009F00EC286E00E94D2
:10491000E301892B09F0BCC186E00E94E301892BE9
:10492000D9F30E94F6058EED95E00E94320A81E0EF
:1049300090E00E9461086CE370E08CE390E00E94DC
:10494000070740E060E080E00E94BA06EC0140E02A
:1049500060E081E00E94BA06C80FD91F40E060E025
:1049600082E00E94BA06C80FD91F40E060E083E0F1
:104970000E94BA06C80FD91F40E060E084E00E94A0
:10498000BA06C80FD91F40E060E085E00E94BA0671
:10499000C80FD91F40E060E086E00E94BA06C80F49
:1049A000D91F40E061E081E00E94BA06C80FD91F1C
:1049B00040E061E082E00E94BA06C80FD91F40E0E3
:1049C00061E083E00E94BA06C80FD91F40E061E0B1
:1049D00084E00E94BA06C80FD91F40E061E085E07C
:1049E0000E94BA06C80FD91F40E061E086E00E942D
:1049F000BA068C0F9D1F06970CF0A3CF6091E508B7
:104A00007091E60877FF02C06F5F7F4F75956795DD
:104A100044EB50E08AE090E00E946C079CE0E92EB5
:104A2000F12C03E010E02BE0C22ED12C0E94DB071A
:104A300088E990E00E944F0AEC0181E00E94650A3B
:104A4000A82E880FBB08B0920B01A0920A0182E049
:104A50000E94650A082E000C990B9093090180931F
:104A60000801F7E0AF16B10411F40C94B430D09201
:104A70000701C0920601AA94AB2849F570E060E0F6
:104A800090E080E00E94070781E090E00E946108CA
:104A900081E00E94650A813009F044C00E94F60559
:104AA00088E398E00E94320ACE01B8010E943336B2
:104AB00044E650E08AE090E00E946C0746E950E04E
:104AC000BE018BE090E00E946C070E9494128091DE
:104AD0000A0190910B01059729F570E060E090E0E4
:104AE00080E00E94070781E00E94650A853009F096
:104AF00044C00E94F60581E498E00E94320ACE018B
:104B0000B8010E94333644E650E08AE090E00E940B
:104B10006C0746E950E0BE018BE090E00E946C0714
:104B20000E94EC1080910A0190910B01029729F5E7
:104B300070E060E090E080E00E94070781E00E9462
:104B4000650A823009F045C00E94F6058AE498E0C3
:104B50000E94320ACE01B8010E94333644E650E08A
:104B60008AE090E00E946C0746E950E0BE018BE0CD
:104B700090E00E946C070E943C1380910A01909182
:104B80000B01892B31F570E060E090E080E00E943D
:104B9000070781E00E94650A811145C00E94F60561
:104BA00086E598E00E94320ACE01B8010E943336B1
:104BB00044E650E08AE090E00E946C0746E950E04D
:104BC000BE018BE090E00E946C078BE090E00E94B9
:104BD0008F0F80910A0190910B01049721F570E0ED
:104BE00060E090E080E00E94070781E00E94650A93
:104BF0008430C9F40E94F6058BE598E00E94320AE1
:104C0000CE01B8010E94333644E650E08AE090E0DD
:104C10000E946C0746E950E0BE018BE090E00E94E4
:104C20006C070E940D120E949C0400CF88E00E9435
:104C3000E301892B09F4F3CD89E00E94E301892B7C
:104C400009F4EDCD85E20E94E301892B09F4E7CD5B
:104C500086E20E94E301892B09F4E1CDE4CDD092F4
:104C6000050105CEC09205011BCE82E00E949E0682
:104C700083EC95E00E94320A61E082E00E949E0689
:104C800081ED95E00E94320A60910501655032CEB7
:104C900084E30E94EA02B89EB001B99E700D11240F
:104CA000072E000C880B990B0E9402352AE939E97E
:104CB0004CEC52E40E94583426E636E646E450E4D2
:104CC0000E94B2350E94CA34A62E972EE62EF72EE9
:104CD00060E088E00E949E069F92AF92DF93CF93A0
:104CE0001F930F930E944C090F900F900F900F90FD
:104CF0000F900F9039E6E316F1040CF0A0CD61E0BF
:104D00008DE00E940C0262E370E080E090E00E947F
:104D10005B0360E08DE00E940C0262E370E080E0E3
:104D200090E00E945B038BCD823009F061C486E085
:104D30000E94E301892B09F082CD86E00E94E30105
:104D4000892BD9F30E94F605CEEBDAE0BBE0CB2E3F
:104D5000D12CE12CF12C88E00E94E301892BA9F4ED
:104D600088E00E94E301892BD9F362E370E080E0E0
:104D700090E00E945B03809102018F5F87300CF00E
:104D80005BC1809302010E94F60589E00E94E30165
:104D9000892BA9F489E00E94E301892BD9F362E30E
:104DA00070E080E090E00E945B03809102018150FE
:104DB00018160CF043C1809302010E94F6058AE0A8
:104DC0000E94E301892B09F03BC168E270E088E2B0
:104DD00090E00E94070780910201813009F093C1A1
:104DE00060E080E00E949E0640E063E082E00E9476
:104DF000BA06B82EA92E40E060E080E00E94BA0614
:104E0000182F092F40E062E082E00E94BA06AF92BC
:104E1000BF920F931F939F938F9383EF95E09F9380
:104E20008F93DF93CF930E944C0961E080E00E9452
:104E30009E0640E061E083E00E94BA06582E492EAB
:104E400040E061E082E00E94BA06782E692E40E0E0
:104E500061E081E00E94BA06982E892E40E060E071
:104E600081E00E94BA06B82EA92E40E060E082E000
:104E70000E94BA06182F092F40E060E083E00E94EC
:104E8000BA064F925F926F927F928F929F92AF92EB
:104E9000BF920F931F939F938F9387E096E09F930A
:104EA0008F93DF93CF930E944C0962E080E00E94D1
:104EB0009E0640E061E086E00E94BA06382E292E68
:104EC00040E061E085E00E94BA06582E492E40E09D
:104ED00061E084E00E94BA06782E692EACB4BDB4BD
:104EE00040E060E084E00E94BA06982E892E40E0FF
:104EF00060E085E00E94BA06182F092F40E060E0CC
:104F000086E00E94BA069C012F923F924F925F92D8
:104F10006F927F92C50164E670E00E941F367F9316
:104F20006F938F929F920F931F933F932F938EE1D6
:104F300096E09F938F93DF93CF930E944C098DB798
:104F40009EB78C960FB6F8949EBF0FBE8DBF63E0E0
:104F500080E00E949E0640E060E087E00E94BA0682
:104F6000B82EA92E40E062E080E00E94BA06182F19
:104F7000092F40E062E081E00E94BA06AF92BF9242
:104F80000F931F939F938F930EE216E01F930F933F
:104F9000DF93CF930E944C0963E08DE00E949E0650
:104FA00040E063E081E00E94BA06982E892E40E03E
:104FB00063E080E00E94BA06B82EA92E40E061E0CE
:104FC00087E00E94BA068F929F92AF92BF929F9302
:104FD0008F931F930F93DF93CF930E944C0963E04D
:104FE00084E00E949E0681E00E94650AEDB7FEB74C
:104FF00074960FB6F894FEBF0FBEEDBF81112FC09F
:1050000086E894E00E94320A63E089E00E949E06EE
:1050100082E00E94650A811145C08AE396E00E9401
:10502000320A86E00E94E301892B09F094CE1DBC70
:105030001CBC1DBC1CBC8FCE81E0A3CE86E0BBCEC9
:105040008BE00E94E301892B29F468ED7FEF88ED66
:105050009FEFBFCE70E060E090E080E0BACE81E0EC
:105060000E94650A813019F48DE994E0CBCF81E08C
:105070000E94650A823019F481E894E0C3CF81E090
:105080000E94650A843019F485E396E0BBCF81E085
:105090000E94650A853019F485EB94E0B3CF8AEB62
:1050A00094E0B0CF82E00E94650A813019F48EE36B
:1050B00096E0B5CF82E00E94650A823019F482E45E
:1050C00096E0ADCF82E00E94650A843019F486E450
:1050D00096E0A5CF41E061E086E00E94BA06BC01FF
:1050E000990F880B990B0E94023526E636E646E6B4
:1050F0005FE30E94533487FF03C08AE496E08FCFBA
:105100008EE496E08CCF823009F092C060E080E0BF
:105110000E949E0641E060E080E00E94BA06182FDF
:10512000092F41E062E082E00E94BA060F931F93CC
:105130009F938F9382E596E09F938F93DF93CF9316
:105140000E944C0961E085E00E949E0641E060E01B
:1051500081E00E94BA06B82EA92E41E060E082E00C
:105160000E94BA06182F092F41E060E083E00E94F8
:10517000BA06AF92BF920F931F939F938F9387E6C8
:1051800096E09F938F93DF93CF930E944C0962E048
:1051900082E00E949E0641E060E084E00E94BA0640
:1051A000B82EA92E41E060E085E00E94BA06182FD3
:1051B000092F41E060E086E00E94BA06AF92BF92FC
:1051C0000F931F939F938F9308E716E01F930F93FE
:1051D000DF93CF930E944C0963E080E00E949E061B
:1051E00041E060E087E00E94BA06982E892E41E0F7
:1051F00062E080E00E94BA06B82EA92E41E062E08B
:1052000081E00E94BA068F929F92AF92BF929F93C5
:105210008F931F930F93DF93CF930E944C098DB709
:105220009EB786960FB6F8949EBF0FBE8DBF93CDE6
:10523000833009F091C060E080E00E949E0641E06A
:1052400063E082E00E94BA06182F092F41E060E077
:1052500080E00E94BA060F931F939F938F938AE872
:1052600096E09F938F93DF93CF930E944C0961E068
:1052700082E00E949E0641E061E083E00E94BA065F
:10528000B82EA92E41E061E082E00E94BA06182FF4
:10529000092F41E061E081E00E94BA06AF92BF921F
:1052A0000F931F939F938F9308E716E01F930F931D
:1052B000DF93CF930E944C0962E084E00E949E0637
:1052C00041E061E086E00E94BA06982E892E41E016
:1052D00061E085E00E94BA06B82EA92E41E061E0A7
:1052E00084E00E94BA068F929F92AF92BF929F93E2
:1052F0008F931F930F93DF93CF930E944C0963E02A
:1053000086E00E949E0641E063E081E00E94BA06CA
:10531000982E892E41E063E080E00E94BA06B82E04
:10532000A92E41E061E087E00E94BA068F929F9229
:10533000AF92BF929F938F931F930F93DF93CF935F
:105340000E944C092DB73EB72A5D3F4F0FB6F89427
:105350003EBF0FBE2DBFFFCC843009F07EC060E0A1
:1053600080E00E949E0640E063E084E00E94BA066E
:10537000B82EA92E40E063E083E00E94BA06182F01
:10538000092F40E062E084E00E94BA06AF92BF922B
:105390000F931F939F938F938FE996E09F938F9323
:1053A000DF93CF930E944C0961E080E00E949E064B
:1053B00041E062E086E00E94BA06182F092F40E023
:1053C00062E086E00E94BA060F931F939F938F932B
:1053D00082EB96E09F938F93DF93CF930E944C09CB
:1053E00062E080E00E949E0641E062E085E00E946B
:1053F000BA06182F092F40E062E085E00E94BA0645
:105400000F931F939F938F9383EC96E09F938F93BB
:10541000DF93CF930E944C0963E080E00E949E06D8
:1054200086E20E94E301182F092F85E20E94E30122
:105430000F931F939F938F9383ED96E09F938F938A
:10544000DF93CF930E944C098DB79EB782960FB61B
:10545000F8949EBF0FBE8DBF7ECC853009F09AC0F8
:1054600060E080E00E949E0661E089E10E943A02CD
:1054700060E089E10E940C0282E090E00E94F30269
:1054800061E089E10E940C028AE090E00E94F30250
:1054900060E089E10E940C0260E080E10E943A0233
:1054A000E1E0F1E06491ECECF0E08491E82FF0E0D1
:1054B000EE0FFF1FE455FF4F859194910CE81DE717
:1054C0002AE030E0462F0E94EF169B01AC01211527
:1054D00031054105510579F06F5F7F4F8F4F9F4F29
:1054E000E4E0660F771F881F991FEA95D1F7A7019F
:1054F00096010E944736AAE0B0E00E94A0362AE357
:1055000030E040E050E00E9469363F932F9324EE54
:1055100036E03F932F93DF93CF930E944C0961E0D5
:1055200080E00E949E0683E00E9439179F938F932C
:105530002EEE36E03F932F93DF93CF930E944C09DA
:1055400062E080E00E949E0681E00E943917182FD9
:10555000092F82E00E9439170F931F939F938F9317
:105560002DEF36E03F932F93DF93CF930E944C09AA
:1055700068EC70E080E090E00E945B030E94F6051A
:105580002DB73EB72C5E3F4F0FB6F8943EBF0FBE0F
:105590002DBFE1CB863009F0DECB60E080E00E94D9
:1055A0009E0683E090E00E94EF17B82EA92E82E0BD
:1055B00090E00E94EF17182F092F81E090E00E94E1
:1055C000EF17AF92BF920F931F939F938F938EE02D
:1055D00097E09F938F93DF93CF930E944C098DB7F1
:1055E0009EB70A960FB6F8949EBF0FBE8DBFB3CB81
:1055F000833009F044C286E00E94E301892B09F060
:105600001EC986E00E94E301892BD9F386E990E068
:105610000E944F0A8C0188E990E00E944F0A7C01A9
:105620008AE990E00E944F0A6C018CE990E00E94A8
:105630004F0A982E892E8EE990E00E944F0A782E0C
:10564000692E80EA90E00E944F0A582E492E82EA85
:1056500090E00E944F0A1C010E94F605CEEBDAE0B2
:1056600088E00E94E301892BA9F488E00E94E3010D
:10567000892BD9F362E370E080E090E00E945B0345
:10568000809103018F5F89300CF08EC080930301FD
:105690000E94F60589E00E94E301892BA9F489E0C4
:1056A0000E94E301892BD9F362E370E080E090E08F
:1056B0000E945B0380910301815018160CF076C0A4
:1056C000809303010E94F6058091030185300CF060
:1056D0006FC060E082E00E949E061F930F93E4E299
:1056E000F7E0FF93EF93DF93CF930E944C0961E0C3
:1056F00082E00E949E06FF92EF92E3E3F7E0FF93C1
:10570000EF93DF93CF930E944C0962E082E00E9406
:105710009E068AE990E00E944F0A9F938F93E2E4ED
:10572000F7E0FF93EF93DF93CF930E944C0963E080
:1057300082E00E949E06E1E5F7E0FF93EF93DF939E
:10574000CF930E944C0960910301615080E00E9458
:105750009E0681E697E00E94320AEDB7FEB7769684
:105760000FB6F894FEBF0FBEEDBF809103018130EC
:1057700009F09CC08AE00E94E301892B09F06CC00B
:1057800068E770E080E090E00E945B03065F1F4FD7
:105790000F3F110519F014F00FEF10E0B80186E982
:1057A00090E00E943F0A5CCF81E070CF88E088CF14
:1057B0008930DCF660E082E00E949E0681E090E0A5
:1057C0000E94EF179F938F938F929F9223E637E06B
:1057D0003F932F93DF93CF930E944C0961E082E0C7
:1057E0000E949E066F927F9224E737E03F932F93AB
:1057F000DF93CF930E944C0962E082E00E949E06F4
:105800004F925F922CE737E03F932F93DF93CF9334
:105810000E944C0963E082E00E949E063F922F9214
:1058200024E837E03F932F93DF93CF930E944C09F6
:1058300060910301655080E00E949E0681E697E03A
:105840000E94320A2DB73EB7265E3F4F0FB6F8943E
:105850003EBF0FBE2DBF89CF8BE00E94E301892B95
:1058600079F468E770E080E090E00E945B030A5002
:1058700011090A3011050CF091CF0AE010E08ECF2B
:1058800086E00E94E301892B09F0EACEB801C80145
:105890000E94070786E00E94E301892BD9F370E09C
:1058A00060E090E080E00E94070778CF8230D9F571
:1058B0008AE00E94E301892B69F468EC70E080E0E3
:1058C00090E00E945B033FEFE31AF30AB70188E917
:1058D00090E067CF8BE00E94E301892B51F468ECE4
:1058E00070E080E090E00E945B0381E0E81AF1083C
:1058F000EDCF86E00E94E301892B09F0B1CE86E06E
:105900000E94E301892BD9F30E94F605B70188E9CB
:1059100090E00E943F0A48EC50E0B7018BE090E035
:105920000E946C079DCE833081F58AE00E94E301DE
:10593000892BA1F464E670E080E090E00E945B03B4
:105940009FEFC91AD90AE1E5CE16D1041CF050E543
:10595000C52ED12CB6018AE990E023CF8BE00E94BE
:10596000E301892B09F07CCE64E670E080E090E0F2
:105970000E945B03F1E0CF1AD10825E0C216D104E2
:105980004CF745E0C42ED12CE5CF8430D1F486E02D
:105990000E94E3015C01892B09F062CE0E94F605AA
:1059A00086E00E94E301892BD9F360E0C5010E94E3
:1059B00046343FEFA31AB30A88ECA816B104A9F73E
:1059C0004FCE8530B1F486E00E94E301892B09F0C7
:1059D00047CE86E00E94E301892BD9F381E090E075
:1059E0000E94EF17982E892E682F792F8CE990E06E
:1059F000D8CE8630A9F40E94E301892B09F030CE7D
:105A000086E00E94E301892BD9F381E090E00E94B7
:105A1000EF17782E692E682F792F8EE990E0C1CE8E
:105A20008730B1F486E00E94E301892B09F018CE9B
:105A300086E00E94E301892BD9F381E090E00E9487
:105A4000EF17582E492E682F792F80EA90E0A9CEC3
:105A5000883009F005CE86E00E94E301892B09F029
:105A6000FFCD86E00E94E301892BD9F370E060E06E
:105A700082EA90E00E943F0A212C312CF1CD843043
:105A800081F486E00E94E301892B11F00C941F241D
:105A90000E94F60586E00E94E301892BD9F30E945B
:105AA0008A1B853071F486E00E94E301892B11F096
:105AB0000C941F2486E00E94E301892BD9F30E94F5
:105AC0006818863011F00C941F240E94E301892B82
:105AD00011F00C941F240E94F60586E00E94E30159
