:100000000C94AF000C94D9000C94D9000C94D90036
:100010000C94D9000C94D9000C94D9000C94D900FC
:100020000C94D9000C94D9000C94D9000C94D900EC
:100030000C94D9000C94D9000C94D9000C94D900DC
:100040000C94A3140C94D9000C9474150C944A15B8
:100050000C94D9000C94D9000C94D9000C94D900BC
:100060000C94D9000C94D9000C94D9000C94D900AC
:100070000C94D9000C94D9000C9414150C94EA1427
:100080000C94D9000C94AA150C94D90000003A00E5
:1000900037003400310022006100640000003B00A2
:1000A000380035003200230062006500000039008E
:1000B00036003300300021002000630005050505EF
:1000C00005050505020202020202020207070404F6
:1000D00004040404040407070303030303030303E2
:1000E00007010101010101010106060606060606D7
:1000F000060102040810204080010204081020407C
:10010000800810010204081020408001020102044E
:1001100008102040800480402010080402010102E1
:100120000408102040800000000A0B0C00000000B2
:1001300000000104050600000000000000000000AF
:1001400000000000000000000000000000000000AF
:100150000000000000000000000000009B211124AE
:100160001FBECFEFD0E1DEBFCDBF18E0A0E0B1E011
:10017000E4E1FDE600E00BBF02C007900D92A2365D
:10018000B107D9F72AE0A2E6B8E001C01D92A43D6C
:10019000B207E1F710E0CFEAD0E004C02197FE01FA
:1001A0000E946536CE3AD107C9F70E9418220C94F6
:1001B00088360C940000CF93DF93CDB7DEB7D250D2
:1001C0000FB6F894DEBF0FBECDBF80E092E0EAE04C
:1001D000F1E0DE01119601900D920197E1F7AAE39B
:1001E000B9E026E539E090E080E06D917D91582FEF
:1001F0004427E92FFF27E627EE0FFF1F81E090E05D
:100200008C0F9D1FE80FF91F80819181842795270E
:100210002A173B0751F7DE5F0FB6F894DEBF0FBE1B
:10022000CDBFDF91CF910895FB01A485B585ED91F8
:10023000FC9111970190F081E02D682FCD01099577
:1002400090E080E0089590913909809138092FEF6E
:100250003FEF981748F4E92FF0E0E85EF64F208171
:1002600030E09F5F90933909C90108959091390951
:10027000809138092FEF3FEF981748F4E92FF0E00D
:10028000E85EF64F208130E09F5F90933909C90105
:100290000895282F9091170981E0913208F042C00B
:1002A0008091F3088111FCCF8091160932E03093E0
:1002B000F3082093F2082FEF2093F10826EF38E09F
:1002C0003093F0082093EF081092EE089093ED0819
:1002D0001092EC089091EC08880F892B8093EC0821
:1002E0008091EB08813029F51092EB088091EC08A1
:1002F000809373008091740083FDF8CF85EC809328
:1003000074008091F3088230E1F38091F1088F3F0F
:1003100091F08091F108803281F08091F108803372
:1003200071F084E01092F508109217091092F40809
:10033000089585EEE4CF80E0F5CF82E0F3CF83E04F
:10034000F1CF91E09093F408809316091092F5088C
:1003500010921709089581E00C94490181508C3066
:1003600088F5E82FF0E0E954FE4F0C946536DF0184
:10037000DF01E201C301C701CA01CD01E201E201CF
:10038000D101D701DB018FB58F778FBD08958FB570
:100390008F7DFBCF8FB5877FF8CF85B58F7D85BDEE
:1003A000089580918B008F7780938B0008958091C2
:1003B0008B008F7DF9CF80918B00877FF5CF83B73E
:1003C0008F7D83BF0895CF93DF93282F30E0F9010D
:1003D000EA5DFE4F8491F901EF50FF4FD491F9018E
:1003E000E454FF4FC491CC23A1F081110E94AE01CF
:1003F000EC2FF0E0EE0FFF1FE455FF4FA591B491F5
:10040000EC91ED2381E090E009F480E0DF91CF9161
:10041000089580E090E0FACF1F93CF93DF93282FC9
:1004200030E0F901EA5DFE4F8491F901EF50FF4F92
:10043000D491F901E454FF4FC491CC23A9F0162FB5
:1004400081110E94AE01EC2FF0E0EE0FFF1FE45689
:10045000FF4FA591B4918FB7F894EC91111108C09A
:10046000D095DE23DC938FBFDF91CF911F9108954C
:10047000DE2BF8CFCF93DF9390E0FC01EF50FF4FDE
:10048000249184549F4FFC0184918823C9F090E00B
:10049000880F991FFC01E457FF4FA591B491FC010F
:1004A000E456FF4FC591D49161110DC09FB7F894E8
:1004B0008C91209582238C938881282328839FBF49
:1004C000DF91CF910895623051F49FB7F8943C9139
:1004D000822F809583238C93E8812E2BEFCF8FB7CB
:1004E000F894EC912E2B2C938FBFEACF1F93CF93D0
:1004F000DF93182FEB0161E00E943A02209739F454
:1005000060E0812FDF91CF911F910C940C02CF3FBF
:10051000D10511F461E0F5CFE12FF0E0EA5DFE4F87
:10052000E491E150EC3008F050C0F0E0E656FD4FA9
:100530000C946536A602A602E502AE02B402BA0227
:10054000C202E502E502C702D102DB0283B7806284
:1005500083BFC1BFDF91CF911F9108958FB5806890
:100560008FBDDBBDCABDF6CF8FB580628FBDD9BD53
:10057000C8BDF0CF8FB588608FBDD0937900C09390
:100580007800E8CF85B5806285BDC3BDE3CF80919B
:100590008B00806880938B00D0938700C093860087
:1005A000D9CF80918B00806280938B00D09385009F
:1005B000C0938400CFCF80918B00886080938B00A4
:1005C000D0938300C0938200C5CFC038D1050CF012
:1005D000A1CF96CF8D52806487B9369A3699FECFD7
:1005E00084B195B108958330910588F09C01220F64
:1005F000331F280F391FC90107972031310528F013
:10060000AEEEBBEE0E946E360D970197F1F708959E
:10061000CF92DF92EF92FF926FB7F8948091E70844
:100620009091E808A091E908B091EA085091E60895
:1006300022B736B7432F417030FF04C041E02F3F4F
:1006400009F440E06FBF6C017D0137E0CC0CDD1C8C
:10065000EE1CFF1C3A95D1F7C50ED11CE11CF11C14
:10066000C81AD90AEA0AFB0A880F991FAA1FBB1FDA
:10067000C81AD90AEA0AFB0A63E0CC0CDD1CEE1C9E
:10068000FF1C6A95D1F730E0A9ECB5E00E946E3608
:10069000672F782F892F99276C0D7D1D8E1D9F1D2B
:1006A000442321F067537A4F8F4F9F4FFF90EF9075
:1006B000DF90CF9008958F929F92AF92BF92CF928A
:1006C000DF92EF92FF924B015C010E9408036B01E5
:1006D0007C010E9408036C197D098E099F09683E00
:1006E000734081059105A8F321E0821A9108A108C1
:1006F000B10888EEC80E83E0D81EE11CF11C8114FD
:100700009104A104B10429F7FF90EF90DF90CF90FE
:10071000BF90AF909F908F90089508950895AF92E5
:10072000BF92CF92DF92EF92FF920F931F93CF93DE
:10073000DF936C017B018B01040F151FEB015E0140
:10074000AE18BF08C017D10759F06991D601ED91D5
:10075000FC910190F081E02DC6010995892B79F774
:10076000C501DF91CF911F910F91FF90EF90DF9026
:10077000CF90BF90AF900895FC01538D448D252FED
:1007800030E0842F90E0821B930B541710F0CF962B
:10079000089501970895FC01918D828D981761F05D
:1007A000A28DAE0FBF2FB11D5D968C91928D9F5F74
:1007B0009F73928F90E008958FEF9FEF0895FC0153
:1007C000918D828D981731F0828DE80FF11D858D06
:1007D00090E008958FEF9FEF0895FC01918D228D99
:1007E000892F90E0805C9F4F821B91098F7399271E
:1007F000089586E799E00E94ED0321E0892B09F432
:1008000020E0822F089583E19AE00E94ED0321E029
:10081000892B09F420E0822F0895FC01A48DA80FF4
:10082000B92FB11DA35ABF4F2C91848D90E0019632
:100830008F739927848FA689B7892C93A089B18952
:100840008C91837080648C93938D848D981306C0F3
:100850000288F389E02D80818F7D80830895EF9257
:10086000FF920F931F93CF93DF93EC0181E0888F6A
:100870009B8D8C8D98131AC0E889F989808185FF3A
:1008800015C09FB7F894EE89FF896083E889F989DC
:1008900080818370806480839FBF81E090E0DF91DE
:1008A000CF911F910F91FF90EF900895F62E0B8D31
:1008B00010E00F5F1F4F0F731127E02E8C8D8E11EC
:1008C0000CC00FB607FCFACFE889F989808185FF53
:1008D000F5CFCE010E940D04F1CFEB8DEC0FFD2F73
:1008E000F11DE35AFF4FF0829FB7F8940B8FEA890E
:1008F000FB8980818062CFCFCF93DF93EC01888D1D
:100900008823B9F0AA89BB89E889F9898C9185FD8A
:1009100003C0808186FD0DC00FB607FCF7CF8C9118
:1009200085FFF2CF808185FFEDCFCE010E940D04BF
:10093000E9CFDF91CF91089580E090E0892B29F0F5
:100940000E94030481110E94000080E090E0892B46
:1009500029F00E94F90381110C940000089585ED9F
:10096000809374008091740084FDFCCF1092F30892
:10097000089520919E08260F3327331F2132310519
:10098000ECF42091F308FC0190E080E0243069F061
:1009900082E00895A0919E082191AC014258574FE2
:1009A000A40FB52FB11D2C930196861798F3809153
:1009B0009E08680F60939E0880E0089581E0089586
:1009C0000895E091390980913809E81730F4F0E092
:1009D000E85EF64F808190E008958FEF9FEF0895D5
:1009E0008091380990913909891B990B0895CF920C
:1009F000DF92EF92FF920F931F93CF93DF937C01CF
:100A0000CB018A012091F408222389F0EB016B01CC
:100A1000C40ED51ECC15DD0569F06991D701ED91A5
:100A2000FC910190F081E02DC7010995F3CF642F6F
:100A30000E94B904C801DF91CF911F910F91FF90DF
:100A4000EF90DF90CF900895CF93DF931F92CDB7B3
:100A5000DEB769832091F4082223F9F02091170969
:100A6000203258F021E030E0FC013383228390E013
:100A700080E00F90DF91CF9108958091F508E82FE5
:100A8000F0E0EA50F74F998190838F5F8093F508EB
:100A90008093170981E090E0ECCF61E0CE010196F0
:100AA0000E94B904F7CFCF93DF93EC0160E08E8111
:100AB0000E940C0281E090E00E94F30261E08E81CE
:100AC0000E940C0281E090E00E94F30260E08E81BF
:100AD0000E940C0284E690E0DF91CF910C94F30227
:100AE000CF92DF92EF92FF920F931F93CF93DF93FA
:100AF0006C017C0187E0E80EF11CD0E0C0E0062F1D
:100B000010E0B8010C2E02C0759567950A94E2F7C3
:100B10006170F70181917F010E940C022196C4301F
:100B2000D10579F7C601DF91CF911F910F91FF9009
:100B3000EF90DF90CF900C945305CF92DF92EF921D
:100B4000FF920F931F93CF93DF93EC01F62E642F48
:100B50008C810E940C028D818F3F19F060E00E9411
:100B60000C020F2D10E08F8584FF25C06E0187E0F9
:100B7000C80ED11CF12CE12CB8010E2C02C07595C9
:100B800067950A94E2F76170F60181916F010E9406
:100B90000C02FFEFEF1AFF0A88E0E816F10461F794
:100BA000CE01DF91CF911F910F91FF90EF90DF90D9
:100BB000CF900C945305B80184E0759567958A959C
:100BC000E1F7CE010E9470056F2DCE01DF91CF912C
:100BD0001F910F91FF90EF90DF90CF900C947005D4
:100BE00040E0682F8CEB9AE00C949D0581E00E9418
:100BF000F00580ED97E00C94F302CF93DF93613022
:100C000029F09091CB0A98609093CB0A6093CF0A19
:100C10001092D00A90E49093D10A8093D20A805C1B
:100C20008093D30A61E08091C00A0E943A028091C9
:100C3000C10A8F3F19F061E00E943A0261E08091A1
:100C4000C20A0E943A02CCEBDAE09E012C5B3A40E9
:100C50008091CB0A84FD0BC084E090E02196281798
:100C6000390744F461E08E810E943A02EECF88E0B9
:100C700090E0F4CF80E593EC0E94F30260E0809175
:100C8000C00A0E940C0260E08091C20A0E940C021D
:100C90008091C10A8F3F19F060E00E940C028091A0
:100CA000CB0A84FD35C063E08CEB9AE00E947005AE
:100CB00084E991E10E94F30263E08CEB9AE00E94E8
:100CC000700584E991E10E94F30263E08CEB9AE005
:100CD0000E94700586E990E00E94F30262E08CEBCE
:100CE0009AE00E9470058091CB0A80620E94F00514
:100CF00084E08093CC0A8CE00E94F0050E94F60507
:100D000082E08093CD0A86E0DF91CF910C94F005CC
:100D100080620E94F00584E991E10E94F3028091D3
:100D2000CB0A80620E94F00586E990E00E94F302FF
:100D30008091CB0A80620E94F005D5CF643008F024
:100D400063E09091CF0A691710F06FEF690FE62FFB
:100D5000F0E0E454F54F9489890F80680C94F00515
:100D600041E00E949D0581E090E00895089590E0A3
:100D700080E008951F93CF93DF93D82FC62F142FB1
:100D8000682F61708CE20E940C02D1FB662760F92B
:100D90008BE20E940C026D2F659565958AE20E9498
:100DA0000C0211110FC08DE2CC2339F08EE2C1305C
:100DB00021F08FE2C23009F080E3DF91CF911F91E3
:100DC0000C94E3018DE2CC2339F08EE2C13021F0A6
:100DD0008FE2C23009F080E30E94EA0225E0289FFA
:100DE000B001299F700D1124072E000C880B990B60
:100DF0000E94DF342AE939E94CEC52E40E94353490
:100E00000E94A734CB01DF91CF911F9108950F93DA
:100E10001F93CF93DF9300271127061B170B8130F9
:100E20002FEF92070CF446C08F3F910509F0CCF5E7
:100E3000CC27DD27C81BD90B61302FEF72072CF1AF
:100E40006F3F710509F024F597FD29C060E082E04D
:100E50000E940C02662777276C1B7D0B83E00E94A3
:100E60007602CC27DD27C01BD10B60E010161106DF
:100E70000CF461E084E00E940C02BE0185E0DF9189
:100E8000CF911F910F910C9476020FEF10E0DCCF01
:100E900001E01FEFD9CF0FEF10E0CFEFD0E061E01E
:100EA000D6CF61308FEF780784F40FEF10E0C1E008
:100EB000DFEFCCCF61302FEF72076CF36F3F71051E
:100EC00061F35CF301E01FEFE8CF6F3F710579F349
:100ED00074F301E01FEFEBCFCF92DF92EF92FF921E
:100EE0000F931F93CF93DF938B01EA011DBC1CBCB2
:100EF0008C309105C1F18D30910509F448C00B97F4
:100F0000F1F034E6E32EF12C8CB59DB5B7010E94CB
:100F1000FC356017710728F4BE01CE010E94070757
:100F2000F3CF70E060E090E080E0DF91CF911F911F
:100F30000F91FF90EF90DF90CF900C94070724E67D
:100F4000C22ED12CEE24FF24E41AF50A8CB59DB5EF
:100F5000B6010E94FC356017710718F7BE01C70182
:100F60000E940707F3CF94E6C92ED12CEE24FF246C
:100F7000E41AF50A8CB59DB5B6010E94FC356017E0
:100F8000710778F6B701CE010E940707F3CF84E618
:100F9000E82EF12CD195C195D1098CB59DB5B7013D
:100FA0000E94FC356017710708F0BBCFBE01CE016F
:100FB0000E940707F2CF40E060E080E00E94BA069E
:100FC000019729F46FEF70E08FEF90E00BC040E0E5
:100FD00061E081E00E94BA06019731F468E770E0B1
:100FE0008CED90E00C94070740E061E082E00E9405
:100FF000BA0665E570E0019739F340E061E083E00F
:101000000E94BA0667E97FEF0197F1F240E061E0E4
:1010100084E00E94BA0661E57FEF0197A9F240E003
:1010200061E085E00E94BA06019719F461E07FEF64
:10103000CBCF40E061E086E00E94BA060197B1F3B1
:1010400040E060E081E00E94BA06019729F46FEF6A
:1010500070E08BE990E0C6CF40E060E082E00E9463
:10106000BA06019729F46FEF70E085E590E0BACFFA
:1010700040E060E083E00E94BA06019729F46FEF38
:1010800070E087E99FEFAECF40E060E084E00E942F
:10109000BA06019729F46FEF70E081E59FEFA2CFC8
:1010A00040E060E085E00E94BA06019729F46FEF06
:1010B00070E081E09FEF96CF40E060E086E00E9424
:1010C000BA06019709F07ECFF2CF0F931F93CF930B
:1010D000DF938C01D0E0C0E061E083E20E940C026B
:1010E00062E370E080E090E00E945B0360E083E2F6
:1010F0000E940C0262E370E080E090E00E945B03DB
:1011000021960C171D0741F7DF91CF911F910F9189
:1011100008959FEF909368089093690880936A08F8
:1011200087E080936B0883E080936C088EE1809366
:101130006D0860936E0870936F0840937008509329
:10114000710861E086E10E940C02EAE6F8E080E0C6
:1011500092E02191820F9F5F9A30D9F7809580931A
:101160007208E8E6F8E080E090919B0095FFFCCFE4
:10117000919190939C008F5F8B30B1F780919B0091
:1011800086FFFCCF6AE070E080E090E00C945B03A7
:101190000F931F93CF93DF938C01EB01AB01BC0145
:1011A0008BE00E9489086FEF73E0601B710BAE014A
:1011B0008AE0DF91CF911F910F910C9489082FEF56
:1011C00030E030933B0920933A0930933D09209356
:1011D0003C092DEF30E030933F0920933E091092F7
:1011E000410910924009082E000C990B9093430975
:1011F0008093420989E090E09093450980934409E7
:10120000109247091092460983E090E090934909B3
:10121000809348098EE190E090934B0980934A09AE
:1012200010924D0910924C09CB01992790934F09C8
:1012300080934E097093500910925109CA01992761
:101240009093530980935209509354091092550971
:101250000E94DB009C0133273093570920935609E5
:10126000909358091092590961E086E10E940C029E
:10127000EAE3F9E080919B0085FFFCCF8081329604
:1012800080939C0089E0EA35F807A1F780919B00E4
:1012900086FFFCCF6FE070E080E090E00C945B0391
:1012A000CF93DF93CDB7DEB72E970FB6F894DEBF9E
:1012B0000FBECDBF84E191E09A8789871C861B868B
:1012C00082E08C838CEB9AE09E878D87AE01495E2D
:1012D0005F4F6D897E89CE0101960E9474312E96F2
:1012E0000FB6F894DEBF0FBECDBFDF91CF9108954A
:1012F000AC018091F3088111FCCF962F81E080939F
:10130000F3088093F2082FEF2093F10828E139E0E9
:101310003093F0082093EF081092EE082FEF260F7D
:101320002093ED088093EC082091EC08440F551FA2
:10133000822F842B8093EC088091EB088130E9F4B4
:101340001092EB088091EC088093730080917400F8
:1013500083FDF8CF85EC809374008091F308813091
:10136000E1F38091EE08861710F49091EE08109248
:10137000390990933809892F089585EEECCF8F9223
:101380009F92AF92BF920F931F93CF93DF93CDB7EE
:10139000DEB7A1970FB6F894DEBF0FBECDBF19A27E
:1013A000423008F44AE08E010F5D1F4F842E912CCD
:1013B000B12CA12CA50194010E942436E62FB9017D
:1013C000CA01EA3044F5E05DD801EE938D01232B8C
:1013D000242B252B79F790E080E0109769F0FD0130
:1013E00001900020E9F73197AF014A1B5B0BBD016B
:1013F0008CEB9AE00E948F03A1960FB6F894DEBFA3
:101400000FBECDBFDF91CF911F910F91BF90AF90D5
:101410009F908F900895E95CD7CFCF92DF92EF92A3
:10142000FF926C01990FEE08FF08F7FE16C041E02D
:101430006DE28CEB9AE00E949D0566277727CB0131
:101440006C197D098E099F094AE00E94BF09019627
:10145000FF90EF90DF90CF9008954AE0C701B6016A
:10146000FF90EF90DF90CF900C94BF09FC010190AA
:101470000020E9F73197AF01481B590BBC018CEBF9
:101480009AE00C948F031F93CF93DF93EC01162FF8
:10149000672F0E942334612FCE010196DF91CF91F7
:1014A0001F910C9423340F931F93CF938C010E94B0
:1014B0001B34C82FC80101960E941B342C2F30E02A
:1014C000322F2227820F932F911DCF911F910F91C1
:1014D0000895AF92BF92CF92DF92EF92FF920F9357
:1014E0001F93CF93DF93D82E81E0D812F5C060E030
:1014F0008AE20E940C0260E08BE20E940C0260E033
:101500008CE20E940C028AE090E00E94F30289E3E0
:101510000E94A10160E880EB9AE00E94240563E04C
:1015200080EB9AE00E9424050E94AB0189E30E94AF
:10153000A1016FE880EB9AE00E94240561E080EB56
:101540009AE00E9424050E94AB0189E30E94A10158
:1015500064E980EB9AE00E9424050E94AB0168E0F8
:1015600070E089E390E00E947809809138099091B9
:101570003909891B990B0897D4F10E943601EC01B7
:101580000E9436011FEFDD27819FC00DD11D112460
:10159000D093C608C093C5080E943601EC010E9492
:1015A0003601DD27819FC00DD11D1124D093CC08B9
:1015B000C093CB080E943601EC010E943601DD2762
:1015C000819FC00DD11D1124D093CA08C093C908B2
:1015D0000E943601EC010E943601DD27819FC00D7B
:1015E000D11D11242A97D093C808C093C708E09052
:1015F000CB08F090CC080091C9081091CA0881E08E
:10160000D812B1C1C090C708D090C8088AE990E04C
:101610000E94530AEC010E151F050CF075C0CE1484
:10162000DF040CF0BAC084E190E00E94530A9C01F0
:101630002C0F3D1FE216F3060CF0B3C08C1B9D0B64
:101640008E159F050CF0ADC086E190E00E94530A14
:101650009C012C0F3D1F021713070CF0A2C08C1B1E
:101660009D0B801791070CF09CC088E190E00E94D0
:10167000530A9C012C0F3D1FC216D3060CF091C0DB
:101680008C1B9D0B8C159D050CF08BC08AE190E0A6
:101690000E94530A2091C5083091C608AC014C0F36
:1016A0005D1F241735070CF07CC08C1B9D0B821727
:1016B00093070CF076C010927D0810927C08809100
:1016C0007C08DF91CF911F910F91FF90EF90DF90F9
:1016D000CF90BF90AF90089582E0D8120AC060E02A
:1016E0008AE20E940C0260E08BE20E940C0261E040
:1016F00007CF61E08CE20E940C0261E08BE20E9465
:101700000C0260E08AE2FDCEE016F1060CF045C066
:10171000C016D1060CF041C08CE190E00E94530A43
:101720009C012C0F3D1FE216F306BCF58C1B9D0B94
:101730008E159F0594F58EE190E00E94530A9C015E
:101740002C0F3D1F0217130744F58C1B9D0B8017B0
:1017500091071CF580E290E00E94530A9E01280F39
:10176000391FC216D306CCF48C1B9D0B8C159D051E
:10177000A4F482E290E00E94530A2091C5083091BF
:10178000C608AE01480F591F2417350734F48C1BC7
:101790009D0B821793070CF41DC2EC14FD040CF48E
:1017A0004FC08CE290E00E94530A9E01280F391F1F
:1017B000E216F3060CF497C084E390E00E94530A0B
:1017C0009E01280F391F2E153F05BCF18C1B9D0B68
:1017D000E816F90694F186E390E00E94530A9C0112
:1017E0002C1B3D0B0217130744F18C0F9D1F801714
:1017F00091071CF188E390E00E94530A9C012C1B86
:101800003D0BC216D306CCF08C0F9D1F8C159D0589
:10181000A4F08AE390E00E94530A2091C508309119
:10182000C608AE01480F591F4217530734F08C1BEE
:101830009D0B281739070CF00EC287E090E04EC0D0
:101840000C151D050CF0ADCF84E290E00E94530A08
:101850009E01280F391FE216F3060CF0A2CF8C1B55
:101860009D0B8E159F050CF09CCF86E290E00E94A8
:10187000530A9E01280F391F021713070CF091CF4E
:101880008C1B9D0B801791070CF08BCF88E290E0AA
:101890000E94530A9E01280F391FC216D3060CF06E
:1018A00080CF8C1B9D0B8C159D050CF07ACF8AE2A6
:1018B00090E00E94530A2091C5083091C608AE01FD
:1018C000480F591F241735070CF06BCF8C1B9D0B4D
:1018D000821793070CF065CF82E090E090937D082B
:1018E00080937C08ECCE8C1B9D0B8E159F050CF015
:1018F00063CF8EE290E00E94530A9E01280F391FA9
:10190000021713070CF058CF8C1B9D0B8017910703
:101910000CF052CF80E390E00E94530A9E01280F02
:10192000391FC216D3060CF047CF8C1B9D0B8C15AC
:101930009D050CF041CF82E390E00E94530A209174
:10194000C5083091C608AE01480F591F2417350746
:101950000CF032CF8C1B9D0B821793070CF02CCF11
:1019600084E090E0BBCF82E0D81278C1C090C70875
:10197000D090C8088AE990E00E94530AEC010E1545
:101980001F050CF086C0CE14DF040CF086C08CE37B
:1019900090E00E94530A9E01280F391FE216F306B9
:1019A000BCF58C1B9D0B8E159F0594F58EE390E086
:1019B0000E94530A9E01280F391F0217130744F58E
:1019C0008C1B9D0B801791071CF580E490E00E9412
:1019D000530A9E01280F391FC216D306CCF48C1B64
:1019E0009D0B8C159D05A4F482E490E00E94530A9F
:1019F0002091C5083091C608AE01480F591F241721
:101A0000350734F48C1B9D0B821793070CF453CECF
:101A100084E590E00E94530A9E01280F391FE216C8
:101A2000F3060CF4DAC08CE590E00E94530A9E01A4
:101A3000280F391F2E153F050CF4FFCE8C1B9D0B74
:101A4000E816F9060CF4F9CE8EE590E00E94530AF0
:101A50009C012C1B3D0B021713070CF4EECE8C0FD0
:101A60009D1F801791070CF4E8CE80E690E00E945D
:101A7000530A9C012C1B3D0BC216D3060CF4DDCE81
:101A80008C0F9D1F8C159D050CF4D7CE82E690E03F
:101A9000C2CEE016F1060CF451C0EC14FD040CF0BB
:101AA000B7CF0C151D050CF0B3CF8CE490E00E946D
:101AB000530A9E01280F391FE216F3060CF0A8CF37
:101AC0008C1B9D0B8E159F050CF0A2CF8EE490E031
:101AD0000E94530A9E01280F391F021713070CF0AA
:101AE00097CF8C1B9D0B801791070CF091CF80E551
:101AF00090E00E94530A9E01280F391FC216D30698
:101B00000CF086CF8C1B9D0B8C159D050CF080CFA7
:101B100082E590E00E94530A2091C5083091C608E2
:101B2000AE01480F591F241735070CF071CF8C1BDD
:101B30009D0B821793070CF4CFCE6ACFC016D10647
:101B40000CF0ABCF84E490E00E94530A9E01280F72
:101B5000391FE216F3060CF0A0CF8C1B9D0B8E15DF
:101B60009F050CF09ACF86E490E00E94530A9E01F4
:101B7000280F391F021713070CF08FCF8C1B9D0BFA
:101B8000801791070CF089CF88E490E00E94530AF7
:101B90009E01280F391FC216D3060CF07ECF8C1B76
:101BA0009D0B8C159D050CF078CF8AE490E00E9487
:101BB000530A2091C5083091C608AE01480F591F3D
:101BC000241735070CF069CF8C1B9D0B82179307E8
:101BD0000CF063CF81E090E081CE8C1B9D0B8E15C5
:101BE0009F050CF020CF86E590E00E94530A9E01ED
:101BF000280F391F021713070CF015CF8C1B9D0BF4
:101C0000801791070CF00FCF88E590E00E94530AEF
:101C10009E01280F391FC216D3060CF004CF8C1B6F
:101C20009D0B8C159D050CF0FECE8AE590E00E9480
:101C3000530A2091C5083091C608AE01480F591FBC
:101C4000241735070CF0EFCE8C1B9D0B82179307E2
:101C50000CF486CEE8CE85E090E040CE0E151F0550
:101C60000CF057C0C090C708D090C808CE14DF044D
:101C70000CF0E3CD84E690E00E94530A5C018AE90F
:101C800090E00E94530AEC01C5018C0F9D1FE816DD
:101C9000F9060CF0D2CDAC1ABD0AAE14BF040CF09C
:101CA000CCCD86E690E00E94530A9E01280F391F92
:101CB000021713070CF0C1CD8C1B9D0B80179107E9
:101CC0000CF0BBCD88E690E00E94530A9E01280FDD
:101CD000391FC216D3060CF0B0CD8C1B9D0B8C1592
:101CE0009D050CF0AACD8AE690E00E94530A20914F
:101CF000C5083091C608AE01480F591F2417350793
:101D00000CF09BCD8C1B9D0B821793070CF4D3CC4E
:101D100094CDE016F1060CF090CDC090C708D0909D
:101D2000C808C016D1060CF088CD8CE690E00E9461
:101D3000530A5C018AE990E00E94530AEC01C50154
:101D40008C0F9D1FE816F9060CF077CDAC1ABD0A72
:101D5000AE14BF040CF071CD8EE690E00E94530AE1
:101D60009E01280F391F021713070CF066CD8C1B3C
:101D70009D0B801791070CF060CD80E790E00E94EA
:101D8000530A9E01280F391FC216D3060CF055CDF9
:101D90008C1B9D0B8C159D050CF04FCD82E790E0C0
:101DA0000E94530A2091C5083091C608AE01480F21
:101DB000591F241735070CF040CD8C1B9D0B821743
:101DC00093070CF407CF39CD0F931F93CF93DF9375
:101DD00088E990E00E94530AEC0140E060E080E076
:101DE0000E94BA06892BB9F040E062E082E00E94CE
:101DF000BA06892BF1F040E060E080E00E94BA066C
:101E0000892B09F44DC040E063E082E00E94BA06ED
:101E1000892B79F014C040E060E081E00E94BA06AE
:101E2000892B11F740E061E081E00E94BA06892B1E
:101E3000D9F681E00E94690A873009F442C0CE01D8
:101E400063E070E00E9410368B0146E950E08AE0C2
:101E500090E00E946C07BE01DD0F880B990B0E9479
:101E6000DF3426E636E646EA5FE30E9435340E9418
:101E7000A73446E950E08BE090E00E946C0746E909
:101E800050E0B8018AE090E00E946C076CE370E0DB
:101E90008CE390E0DF91CF911F910F910C94070795
:101EA00040E060E081E00E94BA06892B09F0ABCFE8
:101EB00040E061E081E00E94BA06892B09F4B9CFC5
:101EC000A2CF82E00E94690A873009F0B8CF0E9451
:101ED000DB0783CF8F929F92AF92BF92CF92DF9218
:101EE000EF92FF920F931F93CF93DF937C0188E9CA
:101EF00090E00E94530AEC010E94DB0740E060E0A2
:101F000080E00E94BA06892B09F482C040E062E0BA
:101F100082E00E94BA06892B79F340E060E080E01D
:101F20000E94BA06892B09F484C040E063E082E095
:101F30000E94BA06892B01F3CE0163E070E00E9493
:101F4000103644E650E08AE090E00E946C0744E6D8
:101F500050E0BE018CE0E816F10409F07BC08CE093
:101F600090E00E946C07CE0166E070E00E9410369F
:101F70006B0144E650E08AE090E00E946C076CE35D
:101F800070E08CE390E00E94070710E000E04E0153
:101F90000D2E000CAA08BB080E94DB0740E060E0A1
:101FA00080E00E94BA06892B09F457C040E062E045
:101FB00082E00E94BA06892B09F45FC040E060E02D
:101FC00080E00E94BA06892B09F4AEC040E062E0CE
:101FD00082E00E94BA06892B09F0B7C0C501B4019E
:101FE0000E94DF3420E030E040E250E40E943534CB
:101FF0000E94A73444E650E08AE090E00E946C071B
:102000000F5F1F4F0E94F605C8010E940D0A45C0D0
:1020100040E060E081E00E94BA06892B09F076CFAB
:1020200040E061E081E00E94BA06892B09F06ECFA2
:1020300063CF40E060E081E00E94BA06892B09F09E
:1020400074CF40E061E081E00E94BA06892B09F07C
:102050006CCF52CF8BE090E084CF40E060E081E035
:102060000E94BA06892B09F0A1CF40E061E081E02F
:102070000E94BA06892B09F099CF40E060E080E029
:102080000E94BA06892B09F43EC040E063E082E07A
:102090000E94BA06892B09F091CF0430110509F08E
:1020A0007BCF6CE370E08CE390E00E94070744E68E
:1020B00050E0B6018AE090E00E946C0744E650E0F0
:1020C000BE018CE0E816F10409F05EC08CE090E0FF
:1020D0000E946C07D7FD2196BE017595679544E671
:1020E00050E08AE090E00E946C07DF91CF911F9151
:1020F0000F91FF90EF90DF90CF90BF90AF909F90A7
:102100008F900C94E40E40E060E081E00E94BA06FB
:10211000892B09F0BACF40E061E081E00E94BA0665
:10212000892B09F0B2CFB9CF40E060E081E00E9496
:10213000BA06892B09F04ACF40E061E081E00E94B5
:10214000BA06892B09F042CF49CF40E060E080E039
:102150000E94BA06892B49F040E063E082E00E94C9
:10216000BA06892B09F02ACF39CF40E060E081E040
:102170000E94BA06892B81F740E061E081E00E946D
:10218000BA06892B49F72ACF8BE090E0A1CFCF92F6
:10219000DF92EF92FF92CF93DF9388E990E00E9465
:1021A000530AEC0140E060E080E00E94BA06892B0F
:1021B00009F4B8C040E062E082E00E94BA06892BD0
:1021C00009F4C0C070E060E090E080E00E94070782
:1021D00082E090E00E946508BE01D7FF02C0695FFF
:1021E0007F4F93E0759567959A95E1F744E650E047
:1021F0008AE090E00E946C0764E670E084E690E07C
:102200000E94070740E060E080E00E94BA06892B48
:1022100009F4B9C040E062E082E00E94BA06892B6E
:1022200059F340E060E080E00E94BA06892B09F48F
:10223000BBC040E063E082E00E94BA06892BE1F275
:102240006CE370E08CE390E00E94070740E060E000
:1022500080E00E94BA06892B09F4B7C040E062E032
:1022600082E00E94BA06892B89F740E060E080E0B6
:102270000E94BA06892B09F4B9C040E063E082E00D
:102280000E94BA06892B11F7BE01D7FF02C06D5F0D
:102290007F4F75956795759567954CE350E08AE09B
:1022A00090E00E946C07CE0167E070E00E9410365B
:1022B00044E650E08AE090E00E946C07BE01DD0F2A
:1022C000880B990B0E94DF346B017C0120E030E029
:1022D00040EC5FE30E948F350E94A73446E950E04E
:1022E0008DE090E00E946C0723E333E343EF5FE36C
:1022F000C701B6010E948F350E94A73446E950E01D
:102300008BE090E00E946C076CE370E08CE390E05F
:102310000E940707DF91CF91FF90EF90DF90CF9061
:102320000C94E40E40E060E081E00E94BA06892B44
:1023300009F040CF40E061E081E00E94BA06892BBD
:1023400009F038CF40E060E080E00E94BA06892BB7
:1023500059F040E063E082E00E94BA06892B09F060
:1023600031CF0E94DB071ECF40E060E081E00E9499
:10237000BA06892B71F740E061E081E00E94BA065D
:10238000892B39F7EECF40E060E081E00E94BA0689
:10239000892B09F03FCF40E061E081E00E94BA065E
:1023A000892B09F037CF28CF40E060E081E00E9420
:1023B000BA06892B09F03DCF40E061E081E00E9440
:1023C000BA06892B09F035CF17CF40E060E081E0F5
:1023D0000E94BA06892B09F041CF40E061E081E01C
:1023E0000E94BA06892B09F039CF3FCF40E060E068
:1023F00081E00E94BA06892B09F03FCF40E061E0FE
:1024000081E00E94BA06892B09F037CF3DCFCF93E8
:10241000DF9388E990E00E94530AEC0140E060E01D
:1024200080E00E94BA06892B09F447C040E062E0D0
:1024300082E00E94BA06892B09F44FC070E060E088
:1024400090E080E00E94070783E090E00E9465082A
:1024500048EE53E064E670E08FE10E94DF0861E03F
:1024600070E080E090E00E945B0360ED77E080E048
:1024700090E00E945B03BE01D7FF02C06D5F7F4FFB
:10248000759567957595679548E750E08DE090E004
:102490000E946C07BE01660F771F48E750E08BE093
:1024A00090E00E946C076CE370E08CE390E00E9487
:1024B0000707DF91CF910C94E40E40E060E081E0EB
:1024C0000E94BA06892B09F0B1CF40E061E081E0BB
:1024D0000E94BA06892B09F0A9CF40E060E080E0B5
:1024E0000E94BA06892B59F040E063E082E00E9426
:1024F000BA06892B09F0A2CF0E94DB078FCF40E0FC
:1025000060E081E00E94BA06892B71F740E061E04B
:1025100081E00E94BA06892B39F7EECF0F931F9303
:10252000CF93DF9388E990E00E94530AEC010E9468
:10253000DB0740E060E080E00E94BA06892B09F4E6
:102540007FC040E062E082E00E94BA06892B79F306
:1025500040E060E080E00E94BA06892B09F481C067
:1025600040E063E082E00E94BA06892B01F370E04C
:1025700060E090E080E00E940707BE01D7FF02C044
:10258000695F7F4F23E0759567952A95E1F744E6EB
:1025900050E08DE090E00E946C0783E090E00E94A4
:1025A0006508CE0166E070E00E9410368B0144E6BB
:1025B00050E08CE090E00E946C07BE01D7FF02C0A3
:1025C0006D5F7F4F75956795759567954CE350E006
:1025D0008AE090E00E946C0768EE73E086E292E089
:1025E0000E94C80868EE73E080E090E00E945B0300
:1025F00064EF71E084E690E00E94C80868EE73E042
:1026000080E090E00E945B0344E650E0B8018DE07A
:1026100090E00E946C07BE01660F771F46E950E00C
:102620008BE090E00E946C076CE370E08CE390E03C
:102630000E940707DF91CF911F910F910C94E40E38
:1026400040E060E081E00E94BA06892B09F079CF72
:1026500040E061E081E00E94BA06892B09F071CF69
:1026600066CF40E060E081E00E94BA06892B09F065
:1026700077CF40E061E081E00E94BA06892B09F043
:102680006FCF55CFCF92DF92EF92FF920F931F93B0
:10269000CF93DF9388E990E00E94530AEC0162E354
:1026A00070E080E090E00E945B0360E971E080E20E
:1026B00093E00E94C80864EF71E080E090E00E941F
:1026C0005B0360E570E080E590E00E9407077E0113
:1026D000D7FF03C08FEFE81AF80AF594E794CE010C
:1026E00065E070E00E9410366B0110E000E00E948F
:1026F000F605C8010E940D0A0E94DB0740E060E079
:1027000080E00E94BA06892B99F140E062E082E005
:102710000E94BA06892BD9F140E060E080E00E9477
:10272000BA06892B09F475C040E063E082E00E949C
:10273000BA06892B61F10115110509F0ABC062E3FE
:1027400070E082E390E00E94070740E060E080E0F4
:102750000E94BA06892B09F46DC040E062E082E075
:102760000E94BA06892B09F076C001E010E0BFCFC5
:1027700040E060E081E00E94BA06892B31F640E03B
:1027800061E081E00E94BA06892B09F0BECF0230D9
:10279000110509F0ACCF44E650E0B7018DE090E0C0
:1027A0000E946C0764EF71E089E591E00E94C8081F
:1027B0006CE271E080E090E00E945B0342E350E055
:1027C000B6018AE090E00E946C0783E090E00E94EE
:1027D000650882E090E00E940D0A0E94F60589EDEE
:1027E00093E00E94360A68EC70E08CE093E00E946F
:1027F000C8086CED75E080E090E00E945B0344E661
:1028000050E0B7018AE090E00E946C0703E010E01E
:102810006ECF40E060E081E00E94BA06892B09F0AB
:1028200083CF40E061E081E00E94BA06892B09F085
:102830007BCFADCF40E060E081E00E94BA06892BFB
:1028400009F08BCF40E061E081E00E94BA06892B5D
:1028500009F083CF8ACF40E060E080E00E94BA06B2
:10286000892B49F040E063E082E00E94BA06892BA0
:1028700009F06BCF7ACF40E060E081E00E94BA06B9
:10288000892B81F740E061E081E00E94BA06892B44
:1028900049F76BCF0130110539F470E060E090E04A
:1028A00080E00E94070777CF0330110509F06FCF52
:1028B00070E060E090E080E00E940707CE016DE0EC
:1028C00070E00E9410364CE350E08DE090E00E94F2
:1028D0006C070E94F6058CEC93E00E94360A68ECC7
:1028E00070E089E591E00E94C80868EB7BE080E039
:1028F00090E00E945B03BE010D2E000C880B990B2B
:102900000E94DF3420E030E040EC5FE30E948F352E
:102910000E94A73444E650E08DE090E00E946C07EE
:10292000BE01660F771F46E950E08BE090E00E9401
:102930006C07DF91CF911F910F91FF90EF90DF9087
:10294000CF900C94E40E1F920F920FB60F921124A9
:102950004F935F936F937F938F939F934091E7087B
:102960005091E8086091E9087091EA088091E608C2
:102970009091E5089A3119F51092E5089091E508D3
:10298000953008F1845C8D3700F18D574E5F5F4FB5
:102990006F4F7F4F8093E6084093E7085093E80815
:1029A0006093E9087093EA089F918F917F916F91EE
:1029B0005F914F910F900FBE0F901F9018959F5FE2
:1029C0009093E508DBCF835CDECF4F5F5F4F6F4FA7
:1029D0007F4FE0CF1F920F920FB60F9211240BB6CC
:1029E0000F922F933F934F935F936F937F938F93A8
:1029F0009F93AF93BF93EF93FF9386E799E00E9475
:102A00000D04FF91EF91BF91AF919F918F917F91B5
:102A10006F915F914F913F912F910F900BBE0F904F
:102A20000FBE0F901F9018951F920F920FB60F9226
:102A300011240BB60F922F938F939F93EF93FF93D5
:102A4000E0918609F09187098081E0918C09F091ED
:102A50008D0982FD1DC0908180918F098F5F8F73DA
:102A600020919009821741F0E0918F09F0E0EA5837
:102A7000F64F958F80938F09FF91EF919F918F91E2
:102A80002F910F900BBE0F900FBE0F901F901895B7
:102A90008081F2CF1F920F920FB60F9211240BB6C6
:102AA0000F922F933F934F935F936F937F938F93E7
:102AB0009F93AF93BF93EF93FF9383E19AE00E94BC
:102AC0000D04FF91EF91BF91AF919F918F917F91F5
:102AD0006F915F914F913F912F910F900BBE0F908F
:102AE0000FBE0F901F9018951F920F920FB60F9266
:102AF00011240BB60F922F938F939F93EF93FF9315
:102B0000E091230AF091240A8081E091290AF09152
:102B10002A0A82FD1DC0908180912C0A8F5F8F73DD
:102B200020912D0A821741F0E0912C0AF0E0ED5E31
:102B3000F54F958F80932C0AFF91EF919F918F9184
:102B40002F910F900BBE0F900FBE0F901F901895F6
:102B50008081F2CF1F920F920FB60F9211240BB605
:102B60000F922F933F934F935F936F937F938F9326
:102B70009F93AF93BF93EF93FF9380917100887FF2
:102B8000803609F44DC008F040C0883209F4A9C06D
:102B900028F5803109F49DC0C8F4882309F407C1E1
:102BA000883009F496C0FF91EF91BF91AF919F914A
:102BB0008F917F916F915F914F913F912F910F90E6
:102BC0000BBE0F900FBE0F901F901895883109F41F
:102BD00088C0803241F78093F10814C0803409F432
:102BE000A5C040F48033B9F38833E9F68093F10847
:102BF00085ECBCC0803509F489C0883509F49EC0D5
:102C0000883489F60E94AF04CECF883909F494C085
:102C100038F5883729F050F4883611F0803719F6E6
:102C200083E08093F3081092C00857C0883809F4F5
:102C300083C0803919F0803809F0B5CF8091C00881
:102C4000803208F079C0E091C00881E08E0F809357
:102C5000C00880917300F0E0E056F74F80833DC0DC
:102C6000803B39F0E0F4803A09F485C0883A09F0F5
:102C70009ACF84E08093F30810929F0810929E08E8
:102C8000E091C308F091C408099580919E088111D4
:102C90000FC081E080939E0810927E0809C0803C9E
:102CA00009F4A6CF883C09F4A3CF883B09F07BCF79
:102CB000E0919F0881E08E0F80939F08F0E0E2583A
:102CC000F74F80818093730090919F0880919E08B8
:102CD00031C08091EC088093730085EC8093740080
:102CE00062CF9091EE088091ED089817B8F5809129
:102CF000EF089091F008E091EE0821E02E0F20936C
:102D0000EE08E80FF92FF11D8081E5CF2091EF0843
:102D10003091F008E091EE0881E08E0F8093EE088C
:102D200080917300E20FF32FF11D80839091EE08E4
:102D30008091ED08981788F285E8D0CF2091EF08B0
:102D40003091F008E091EE0881E08E0F8093EE085C
:102D500080917300E20FF32FF11D80838091F208C0
:102D6000811150CF81E08093EB0884EA8093740056
:102D70001092F30818CF85EC809374001092F3083A
:102D80008091C008803230F4E091C008F0E0E05655
:102D9000F74F10826091C00870E0E091C108F09197
:102DA000C20880EA98E009951092C008FCCE109203
:102DB000F10828CFCF92DF92EF92FF920F931F93EB
:102DC000E82FF92F05C0015011092109310961F1DE
:102DD000908196239417B9F305C001501109210978
:102DE000310911F1908196239413F7CFC12CD12C86
:102DF000E12CF12C0AC08FEFC81AD80AE80AF80AA9
:102E00000C151D052E053F0579F08081862384175A
:102E100091F36C2D7D2D8E2D9F2D1F910F91FF9085
:102E2000EF90DF90CF90089560E070E080E090E058
:102E30001F910F91FF90EF90DF90CF900895682F32
:102E400080EB9AE00C942405CF93DF93C82F60E0C9
:102E5000813009F43FC061E08230E1F560E08CE24E
:102E60000E940C0260E08BE20E940C0261E08AE2A8
:102E70000E940C0289E20E94A10190E080E00E9481
:102E80001F1781E090E00E941F170E94AB016AE0CB
:102E900070E080E090E00E945B0389E20E94A10163
:102EA0008EE190E00E941F1780E00E94490162E0DD
:102EB00070E089E290E00E94780980913809909151
:102EC0003909891B990B029774F481E090E0DF9136
:102ED000CF9108958CE20E940C0261E08BE20E9487
:102EE0000C0260E0C4CF0E943601D82F0E94360148
:102EF00020E03D2FA901482BCA018431910539F703
:102F00006AE070E080E090E00E945B0360E0C13026
:102F100009F447C061E0C23009F043C060E08CE2D0
:102F20000E940C0260E08BE20E940C0261E08AE2E7
:102F30000E940C0289E20E94A10190E080E00E94C0
:102F40001F1781E090E00E941F170E94AB016AE00A
:102F500070E080E090E00E945B0389E20E94A101A2
:102F60008EE190E00E941F1780E00E94490162E01C
:102F700070E089E290E00E94780980913809909190
:102F80003909891B990B02970CF49FCF0E943601D7
:102F9000C82F0E94360120E03C2FA901482BCA010E
:102FA00096CF8CE20E940C0261E08BE20E940C0240
:102FB00060E0BDCFBF92CF92DF92EF92FF920F936E
:102FC0001F93CF93DF938C0161E08CE20E940C028F
:102FD00061E08BE20E940C0260E08AE20E940C0237
:102FE00080E60E94A10182E090E00E941F170E94EB
:102FF000AB0164E070E080E690E00E947809809187
:10300000380990913909891B990B049794F10E9412
:103010003601D82F20E0C22F0E9436018C2B9D2B29
:103020006AE070E00E9410368091DD089091DE0821
:10303000EB01C81BD90B0E94360124EBD22E9C0158
:10304000D29EC001D39E900D1124EE24EA94F12C5F
:10305000B7010E941036B62EC72E0E9436019C0181
:10306000D29EC001D39E900D1124B7010E9410364C
:103070007B01D7FF02C0C859DE4F0130110529F08E
:103080000230110569F0CE2DDF2DCE01DF91CF91F9
:103090001F910F91FF90EF90DF90CF90BF90089518
:1030A000CB2DDC2DF2CF0E94F60584EA90E00E9441
:1030B000530A5C0186EA90E00E94530A6C0188EA98
:1030C00090E00E94530A4C018AEA90E00E94530A61
:1030D0003C018CEA90E00E94530A2C018EEA90E0B9
:1030E0000E94530A7C0180EB90E00E94530A8C01FD
:1030F000D0E0C0E08CEB282E8AE0382E88E00E94D9
:10310000E301892BA9F488E00E94E301892BD9F31C
:1031100062E370E080E090E00E945B038091000138
:103120008F5F89300CF059C0809300010E94F60532
:1031300089E00E94E301892BA9F489E00E94E30160
:10314000892BD9F362E370E080E090E00E945B039A
:1031500080910001815018160CF041C0809300014D
:103160000E94F60580910001813009F044C060E0C2
:1031700080E00E949E06DF93CF93DF93CF938AE394
:1031800093E09F938F933F922F920E9450098AE081
:103190000E94E3012DB73EB7285F3F4F0FB6F8946A
:1031A0003EBF0FBE2DBF892BE1F4E29660E971E0CE
:1031B00080E090E00E945B03C1303FEFD30714F43E
:1031C000C1E0DFEFCF3FD10519F014F0CFEFD0E031
:1031D000BE01CE010E94070791CF81E0A5CF88E014
:1031E000BDCF8BE00E94E301892B11F4E297DECF83
:1031F000D0E0C0E0EDCF823009F055C060E080E063
:103200000E949E06BF92AF921F928AE08F9387E43E
:1032100093E09F938F933F922F920E94500986E0F4
:103220000E94E3012DB73EB7285F3F4F0FB6F894D9
:103230003EBF0FBE2DBF892B61F4B50184EA90E03B
:103240000E94430A46E950E0B5018AE00E948908DD
:1032500055CF8AE00E94E301892B81F462E370E09C
:1032600080E090E00E945B0338E0A31632E0B306F2
:103270000CF044CF85E0A80EB11C40CF8BE00E943B
:10328000E301892B09F03ACF62E370E080E090E03F
:103290000E945B039BEFA916B1040CF42FCF25E02D
:1032A000A21AB1082BCF833009F052C060E080E051
:1032B0000E949E06DF92CF921F928AE08F9388E54C
:1032C00093E09F938F933F922F920E94500986E044
:1032D0000E94E3012DB73EB7285F3F4F0FB6F89429
:1032E0003EBF0FBE2DBF892B49F4B60186EA90E0A0
:1032F0000E94430A46E950E0B601A7CF8AE00E9447
:10330000E301892B81F462E370E080E090E00E94A9
:103310005B0338E0C31632E0D3060CF0EFCE85E055
:10332000C80ED11CEBCE8BE00E94E301892B09F083
:10333000E5CE62E370E080E090E00E945B039BEFEB
:10334000C916D1040CF4DACE25E0C21AD108D6CEC3
:10335000843009F055C060E080E00E949E069F9294
:103360008F921F928AE08F938DE693E09F938F93C5
:103370003F922F920E94500986E00E94E3012DB7F0
:103380003EB7285F3F4F0FB6F8943EBF0FBE2DBF2C
:10339000892B61F446E950E0B4018BE00E94890872
:1033A000B40188EA90E00E94430AA8CE8AE00E9415
:1033B000E301892B81F462E370E080E090E00E94F9
:1033C0005B0330E2831633E093060CF097CE85E082
:1033D000880E911C93CE8BE00E94E301892B09F0AB
:1033E0008DCE62E370E080E090E00E945B0397E99D
:1033F000891691040CF482CE25E0821A91087ECEC3
:10340000853009F053C060E080E00E949E067F9204
:103410006F921F928AE08F938FE793E09F938F9331
:103420003F922F920E94500986E00E94E3012DB73F
:103430003EB7285F3F4F0FB6F8943EBF0FBE2DBF7B
:10344000892B51F4B3018AEA90E00E94430A46E9CD
:1034500050E0B3018BE0FACE8AE00E94E301892BB1
:1034600081F462E370E080E090E00E945B0330E270
:10347000631633E073060CF041CE85E0680E711CD4
:103480003DCE8BE00E94E301892B09F037CE62E349
:1034900070E080E090E00E945B0397E96916710498
:1034A0000CF42CCE25E0621A710828CE863009F083
:1034B00053C060E080E00E949E065F924F921F9290
:1034C0008AE08F938FE893E09F938F933F922F92A0
:1034D0000E94500986E00E94E3012DB73EB7285FA5
:1034E0003F4F0FB6F8943EBF0FBE2DBF892B49F456
:1034F000B2018CEA90E00E94430A46E950E0B20132
:10350000A9CF8AE00E94E301892B81F462E370E095
:1035100080E090E00E945B0338EE431633E05306F0
:103520000CF0ECCD85E0480E511CE8CD8BE00E94FC
:10353000E301892B09F0E2CD62E370E080E090E0E6
:103540000E945B039DE2491691E059060CF4D6CD2A
:1035500025E0421A5108D2CD873009F065C060E0FD
:1035600080E00E949E06FF92EF921F928AE08F9366
:1035700083EA93E09F938F933F922F920E9450098A
:1035800086E00E94E3012DB73EB7285F3F4F0FB69C
:10359000F8943EBF0FBE2DBF892BD9F4B7018EEA38
:1035A00090E00E94430A44E650E0B7018EE10E9499
:1035B000DF0862E370E080E090E00E945B0344E695
:1035C00050E065E474E06E197F098FE10E94DF0826
:1035D00095CD8AE00E94E301892B81F462E370E0DB
:1035E00080E090E00E945B033AE7E31633E0F306E5
:1035F0000CF084CD85E0E80EF11C80CD8BE00E94BC
:10360000E301892B09F07ACD62E370E080E090E07D
:103610000E945B039BE3E91692E0F9060CF46ECD81
:1036200025E0E21AF1086ACD883009F067CD60E044
:1036300080E00E949E061F930F931F928AE08F9353
:1036400088EB93E09F938F933F922F920E945009B3
:1036500086E00E94E3012DB73EB7285F3F4F0FB6CB
:10366000F8943EBF0FBE2DBF892BC1F4B80180EB8B
:1036700090E00E94430A44E650E0B8018EE10E94C7
:10368000DF0862E370E080E090E00E945B0344E6C4
:1036900050E065E474E0601B710B97CF8AE00E94F4
:1036A000E301892B71F462E370E080E090E00E9416
:1036B0005B030A3733E013070CF020CD0B5F1F4F7D
:1036C0001DCD8BE00E94E301892B09F017CD62E349
:1036D00070E080E090E00E945B030B3382E018070B
:1036E0000CF40CCD0550110909CD0E94F60585E0BA
:1036F000882E84E0982ECCEBDAE099E8E92E94E06D
:10370000F92E2BECC22E24E0D22E39EDA32E34E07C
:10371000B32E0DE114E088E00E94E301892B79F4D7
:1037200088E00E94E301892BD9F3809101018F5F2A
:1037300089300CF0A8C0809301010E94F60589E051
:103740000E94E301892B71F489E00E94E301892B37
:10375000D9F380910101815009F499C0809301014E
:103760000E94F6058AE00E94E301892B09F091C0CE
:1037700068E270E088E290E00E9407078091010112
:10378000813009F0A8C160E080E00E949E0684EECE
:1037900093E00E94360A61E080E00E949E0680EF7E
:1037A00093E00E94360A62E080E00E949E068091CB
:1037B000C6088F938091C5088F938091C8088F9316
:1037C0008091C7088F938091CA088F938091C90810
:1037D0008F938091CC088F938091CB088F939F9289
:1037E0008F92DF93CF930E94500964E670E080E0EF
:1037F00090E00E945B0381E00E94690A2DB73EB70A
:10380000245F3F4F0FB6F8943EBF0FBE2DBF81110E
:103810004FC060E08CE00E949E0686E194E00E942A
:10382000360A63E080E00E949E068AE190E00E94F2
:10383000530A382E292E88E190E00E94530A582E10
:10384000492E86E190E00E94530A782E692E84E189
:1038500090E00E94530A2F923F924F925F926F9294
:103860007F929F938F931F930F93DF93CF930E9429
:1038700050092DB73EB7245F3F4F0FB6F8943EBFB7
:103880000FBE2DBF48CF21E02093010156CF88E025
:1038900065CF8BE00E94E301892B29F468ED7FEF6F
:1038A00088ED9FEF69CF70E060E090E080E064CF4A
:1038B00081E00E94690A8130D1F560E08CE00E94CD
:1038C0009E068EE294E00E94360A63E080E00E9449
:1038D0009E0682E290E00E94530A382E292E80E252
:1038E00090E00E94530A582E492E8EE190E00E94EB
:1038F000530A782E692E8CE190E00E94530A2F9291
:103900003F924F925F926F927F929F938F931F93FC
:103910000F93DF93CF930E9450092DB73EB7245FDA
:103920003F4F0FB6F8943EBF0FBE2DBFF4CE81E0DF
:103930000E94690A8230D1F560E08CE00E949E0608
:1039400085E394E00E94360A63E080E00E949E06D0
:103950008AE290E00E94530A382E292E88E290E0F5
:103960000E94530A582E492E86E290E00E94530A84
:10397000782E692E84E290E00E94530A2F923F92A3
:103980004F925F926F927F929F938F931F930F93AB
:10399000DF93CF930E9450092DB73EB7245F3F4F6E
:1039A0000FB6F8943EBF0FBE2DBFB5CE81E00E948A
:1039B000690A8430D1F560E08CE00E949E068CE3B9
:1039C00094E00E94360A63E080E00E949E0682E353
:1039D00090E00E94530A382E292E80E390E00E9446
:1039E000530A582E492E8EE290E00E94530A782EF8
:1039F000692E8CE290E00E94530A2F923F924F92E0
:103A00005F926F927F929F938F931F930F93DF9399
:103A1000CF930E9450092DB73EB7245F3F4F0FB69A
:103A2000F8943EBF0FBE2DBF76CE81E00E94690A9A
:103A30008530D1F560E08CE00E949E0683E494E03E
:103A40000E94360A63E080E00E949E068AE390E0CE
:103A50000E94530A382E292E88E390E00E94530AD0
:103A6000582E492E86E390E00E94530A782E692E44
:103A700084E390E00E94530A2F923F924F925F920C
:103A80006F927F929F938F931F930F93DF93CF93A8
:103A90000E9450092DB73EB7245F3F4F0FB6F894F0
:103AA0003EBF0FBE2DBF37CE81E00E94690A87302E
:103AB00009F031CE60E08CE00E949E068AE494E03A
:103AC0000E94360A63E080E00E949E0681E594E051
:103AD0000E94360A20CE823009F089C160E080E081
:103AE0000E949E0686E694E00E94360A61E080E02D
:103AF0000E949E0683E794E00E94360A62E080E01E
:103B00000E949E068091C6088F938091C5088F936E
:103B10008091C8088F938091C7088F938091CA08BD
:103B20008F938091C9088F938091CC088F93809157
:103B3000CB088F939F928F92DF93CF930E9450096F
:103B400060E08CE00E949E0682E00E94690A2DB728
:103B50003EB7245F3F4F0FB6F8943EBF0FBE2DBF58
:103B600081113AC060E08CE00E949E0684E894E0F7
:103B70000E94360A63E080E00E949E0682E490E0A4
:103B80000E94530A382E292E80E490E00E94530AA6
:103B9000582E492E8EE390E00E94530A782E692E0B
:103BA0008CE390E00E94530A2F923F924F925F92D3
:103BB0006F927F929F938F93FF92EF92DF93CF93B9
:103BC0000E9450092DB73EB7245F3F4F0FB6F894BF
:103BD0003EBF0FBE2DBF9FCD82E00E94690A81309B
:103BE000D1F560E08CE00E949E068BE994E00E9493
:103BF000360A63E080E00E949E068AE490E00E941C
:103C0000530A382E292E88E490E00E94530A582E39
:103C1000492E86E490E00E94530A782E692E84E4AF
:103C200090E00E94530A2F923F924F925F926F92C0
:103C30007F929F938F93FF92EF92DF93CF930E9497
:103C400050092DB73EB7245F3F4F0FB6F8943EBFE3
:103C50000FBE2DBF60CD82E00E94690A8230D1F58F
:103C600060E08CE00E949E0680EA94E00E94360AA2
:103C700063E080E00E949E0682E590E00E94530A85
:103C8000382E292E80E590E00E94530A582E492EA6
:103C90008EE490E00E94530A782E692E8CE490E026
:103CA0000E94530A2F923F924F925F926F927F929F
:103CB0009F938F931F930F93DF93CF930E9450098D
:103CC0002DB73EB7245F3F4F0FB6F8943EBF0FBEEF
:103CD0002DBF21CD82E00E94690A8430E1F560E0C9
:103CE0008CE00E949E068CE394E00E94360A63E01A
:103CF00080E00E949E068AE590E00E94530A382EDA
:103D0000292E88E590E00E94530A582E492E86E518
:103D100090E00E94530A782E692E84E590E00E947C
:103D2000530A2F923F924F925F926F927F929F938E
:103D30008F9385EA94E09F938F93DF93CF930E94B4
:103D400050092DB73EB7245F3F4F0FB6F8943EBFE2
:103D50000FBE2DBFE0CC82E00E94690A8530D1F50C
:103D600060E08CE00E949E0683EB94E00E94360A9D
:103D700063E080E00E949E0682E690E00E94530A83
:103D8000382E292E80E690E00E94530A582E492EA4
:103D90008EE590E00E94530A782E692E8CE590E023
:103DA0000E94530A2F923F924F925F926F927F929E
:103DB0009F938F931F930F93DF93CF930E9450098C
:103DC0002DB73EB7245F3F4F0FB6F8943EBF0FBEEE
:103DD0002DBFA1CC82E00E94690A873009F09BCCFC
:103DE00060E08CE00E949E0688EB94E069CE833010
:103DF00009F059C060E080E00E949E068DEB94E0DF
:103E00000E94360A61E080E00E949E0683E794E00B
:103E10000E94360A62E080E00E949E0688E190E0FF
:103E20000E94530A582E492E86E190E00E94530AC0
:103E3000782E692E84E190E00E94530A4F925F929F
:103E40006F927F929F938F93DF92CF92DF93CF9366
:103E50000E94500963E080E00E949E0680E490E0AA
:103E60000E94530A582E492E8EE390E00E94530A76
:103E7000782E692E8CE390E00E94530A4F925F9255
:103E80006F927F929F938F93BF92AF92DF93CF9366
:103E90000E9450098DB79EB744960FB6F8949EBF06
:103EA0000FBE8DBF38CC843009F05AC060E080E08E
:103EB0000E949E0687EE94E00E94360A61E080E050
:103EC0000E949E0683E794E00E94360A62E080E04A
:103ED0000E949E0680E290E00E94530A582E492ECE
:103EE0008EE190E00E94530A782E692E8CE190E0DA
:103EF0000E94530A4F925F926F927F929F938F938B
:103F0000DF92CF92DF93CF930E94500963E080E06D
:103F10000E949E0688E490E00E94530A582E492E83
:103F200086E490E00E94530A782E692E84E490E0A3
:103F30000E94530A4F925F926F927F929F938F934A
:103F4000BF92AF92DF93CF930E9450092DB73EB737
:103F50002C5E3F4F0FB6F8943EBF0FBE2DBFDBCB9C
:103F6000853009F059C060E080E00E949E0685EF30
:103F700094E00E94360A61E080E00E949E0683E79A
:103F800094E00E94360A62E080E00E949E0688E289
:103F900090E00E94530A582E492E86E290E00E943B
:103FA000530A782E692E84E290E00E94530A4F92C1
:103FB0005F926F927F929F938F93DF92CF92DF9366
:103FC000CF930E94500963E080E00E949E0680E546
:103FD00090E00E94530A582E492E8EE490E00E94F1
:103FE000530A782E692E8CE490E00E94530A4F9277
:103FF0005F926F927F929F938F93BF92AF92DF9366
:10400000CF930E9450098DB79EB744960FB6F8948F
:104010009EBF0FBE8DBF7FCB863009F05AC060E0D7
:1040200080E00E949E0683E095E00E94360A61E0EF
:1040300080E00E949E0683E794E00E94360A62E0D8
:1040400080E00E949E0680E390E00E94530A582E72
:10405000492E8EE290E00E94530A782E692E8CE25F
:1040600090E00E94530A4F925F926F927F929F93CB
:104070008F93DF92CF92DF93CF930E94500963E03A
:1040800080E00E949E0688E590E00E94530A582E28
:10409000492E86E590E00E94530A782E692E84E529
:1040A00090E00E94530A4F925F926F927F929F938B
:1040B0008F93BF92AF92DF93CF930E9450092DB799
:1040C0003EB72C5E3F4F0FB6F8943EBF0FBE2DBFDC
:1040D00022CB873009F06DC060E080E00E949E0630
:1040E00081E195E00E94360A61E080E00E949E0630
:1040F00083E794E00E94360A62E080E00E949E0618
:104100008AE390E00E94530A382E292E88E390E03B
:104110000E94530A582E492E86E390E00E94530ACB
:10412000782E692E84E390E00E94530A2F923F92EA
:104130004F925F926F927F929F938F9382E295E06E
:104140009F938F93DF93CF930E94500963E080E0A9
:104150000E949E0682E690E00E94530A382E292E85
:1041600080E690E00E94530A582E492E8EE590E09A
:104170000E94530A782E692E8CE590E00E94530A23
:104180002F923F924F925F926F927F929F938F9365
:1041900023E335E03F932F93DF93CF930E945009A1
:1041A0008DB79EB748960FB6F8949EBF0FBE8DBFD1
:1041B000B2CA883009F0AFCA60E080E00E949E0673
:1041C00084E495E00E94360A61E080E00E949E0649
:1041D00083E794E00E94360A62E080E00E949E0637
:1041E0008091C6088F938091C5088F938091C808ED
:1041F0008F938091C7088F938091CA088F93809185
:10420000C9088F938091CC088F938091CB088F93AE
:104210009F928F92DF93CF930E94500960E08CE0D1
:104220000E949E0683E00E94690A2DB73EB7245F74
:104230003F4F0FB6F8943EBF0FBE2DBF81113AC05D
:1042400060E08CE00E949E0684E894E00E94360ABA
:1042500063E080E00E949E068AE690E00E94530A96
:10426000382E292E88E690E00E94530A582E492EB7
:1042700086E690E00E94530A782E692E84E690E04C
:104280000E94530A2F923F924F925F926F927F92B9
:104290009F938F93FF92EF92DF93CF930E945009E9
:1042A0002DB73EB7245F3F4F0FB6F8943EBF0FBE09
:1042B0002DBF31CA83E00E94690A8130D1F560E0E8
:1042C0008CE00E949E068BE994E00E94360A63E02F
:1042D00080E00E949E0682E790E00E94530A382EFA
:1042E000292E80E790E00E94530A582E492E8EE630
:1042F00090E00E94530A782E692E8CE690E00E948E
:10430000530A2F923F924F925F926F927F929F93A8
:104310008F93FF92EF92DF93CF930E9450092DB7B6
:104320003EB7245F3F4F0FB6F8943EBF0FBE2DBF80
:10433000F2C983E050CDE6E7F9E01382128288EEFD
:1043400093E0A0E0B0E084839583A683B7832EE05A
:1043500033E03183208348E950E05587448749E9B9
:1043600050E0578746874BE950E0518B408B4AE934
:1043700050E0538B428B4DE950E0558B448B4CE918
:1043800050E0578B468B118E128E138E148EE3E104
:10439000FAE01382128284839583A683B7833183E4
:1043A000208320E930E03587248729E230E0378711
:1043B00026872BE230E0318B208B2AE230E0338BF2
:1043C000228B25E930E0358B248B2CE230E0378BD3
:1043D000268B118E128E138E148EE0EBFAE0138270
:1043E000128284839583A683B78380E293E09183CE
:1043F0008083ECEBFAE01382128282E393E09183F4
:1044000080838CE184838FEF85838EE186838FE1C7
:10441000878380E2808781E2818782E282871386B8
:10442000148615861686178661E080E10C94FD05DA
:10443000789483B78C6483BF87B7816087BFC2E0FD
:10444000CEBD8EB581608EBD8FB581608FBD85B5C7
:10445000846085BD85B5806485BD80918A00836058
:1044600080938A0080918B00816080938B0086E826
:1044700086B91AB81FBC8FB58FBD8EB58EBD8EB5EF
:1044800084608EBD61E08DE00E943A0261E08CE0C4
:104490000E943A0262E086E00E943A0261E083E212
:1044A0000E943A0262E085E20E943A0262E086E2FD
:1044B0000E943A0262E086E00E943A0262E088E0EE
:1044C0000E943A0262E089E00E943A0262E08AE0D9
:1044D0000E943A0262E08BE00E943A0261E08CE2C4
:1044E0000E943A0261E08BE20E943A0261E08AE2B5
:1044F0000E943A0210923909109238091092F50878
:10450000109217091092F30881E08093F20810923C
:10451000EB0861E083E10E940C0261E082E10E940D
:104520000C02809171008C7F809371008FE28093E8
:10453000700085E4809374008DE893E09093C40844
:104540008093C3088EE893E09093C2088093C108DB
:10455000E091230AF091240AC083E0911F0AF091B0
:10456000200A1082E091210AF091220A1BE01083B8
:1045700010922B0AE091270AF091280AD6E0D08306
:10458000E091250AF091260A808188698083E09174
:10459000250AF091260A80818F7D808361E085E184
:1045A0000E943A0261E086E10E943A02E0918609A7
:1045B000F0918709C083E0918209F091830910820C
:1045C000E0918409F0918509108310928E09E091A1
:1045D0008A09F0918B09D083E0918809F0918909CB
:1045E000808188698083E0918809F09189098081C0
:1045F0008F7D808364E084E10E94FD0560E273E0CA
:1046000080E090E00E945B0388E890E09093E408EB
:104610008093E3088FEF90E09093E2088093E108A5
:1046200084E190E09093E0088093DF0868E870E010
:1046300088E990E00E94430A6091E1087091E208E5
:1046400086E990E00E94430A6091DF087091E008DB
:104650008AE990E00E94430A80E690E09093DE08A9
:104660008093DD088CEB90E09093DC088093DB086E
:1046700085E191E09093DA088093D90860E670E0D4
:104680008CE990E00E94430A6091DB087091DC089D
:104690008EE990E00E94430A6091D9087091DA088F
:1046A00080EA90E00E94430A84EF91E09093D8085A
:1046B0008093D70884E992E09093D6088093D50838
:1046C0008EEB90E09093D4088093D30880E293E03F
:1046D0009093D2088093D10884E893E09093D00817
:1046E0008093CF088EE492E09093CE088093CD081B
:1046F00063E171E084EA90E00E94430A6091D70888
:104700007091D80886EA90E00E94430A6091D5082B
:104710007091D60888EA90E00E94430A6091D3081D
:104720007091D4088AEA90E00E94430A6091D1080F
:104730007091D2088CEA90E00E94430A6091CF0801
:104740007091D0088EEA90E00E94430A6091CD08F3
:104750007091CE0880EB90E00E94430A0E94F6051B
:1047600081E595E00E94360A61E080E00E949E06A5
:1047700086E20E94E301EC0185E20E94E301DF93FF
:10478000CF939F938F9385E695E09F938F93CCEB88
:10479000DAE0DF93CF930E94500963E080E00E944B
:1047A0009E0686E00E94E301F82EE92E88E00E9432
:1047B000E301182F092F89E00E94E301EF92FF9295
:1047C0000F931F939F938F9385E795E09F938F930C
:1047D000DF93CF930E94500986E00E94E301EDB77A
:1047E000FEB772960FB6F894FEBF0FBEEDBF892BD1
:1047F00009F0FDC18AE090E00E9465080E94F6057C
:10480000DD24D39476E0C72EE5E0BE2EC8EED5E0D9
:104810000CEB1AE088E00E94E301892BA9F488E000
:104820000E94E301892BD9F362E370E080E090E01D
:104830000E945B03809105018F5F873008F0F0C113
:10484000809305010E94F60589E00E94E301892B0F
:10485000A1F489E00E94E301892BD9F362E370E0BF
:1048600080E090E00E945B0380910501815009F493
:10487000DAC1809305010E94F6058091050160E090
:10488000853008F0D3C182E00E949E068DE895E055
:104890000E94360A61E082E00E949E0684E995E06B
:1048A0000E94360A62E082E00E949E0683EA95E05A
:1048B0000E94360A63E082E00E949E0682EB95E049
:1048C0000E94360A60910501615080E00E949E06B8
:1048D0008BEC97E00E94360A80910501813009F047
:1048E00004C286E00E94E301892B09F0B2C186E090
:1048F0000E94E301892BD9F30E94F6058CED95E027
:104900000E94360A81E090E00E9465086CE370E046
:104910008CE390E00E94070740E060E080E00E94A6
:10492000BA06EC0140E060E081E00E94BA06C80FE0
:10493000D91F40E060E082E00E94BA06C80FD91F8C
:1049400040E060E083E00E94BA06C80FD91F40E053
:1049500060E084E00E94BA06C80FD91F40E060E022
:1049600085E00E94BA06C80FD91F40E060E086E0EB
:104970000E94BA06C80FD91F40E061E081E00E94A2
:10498000BA06C80FD91F40E061E082E00E94BA0673
:10499000C80FD91F40E061E083E00E94BA06C80F4B
:1049A000D91F40E061E084E00E94BA06C80FD91F19
:1049B00040E061E085E00E94BA06C80FD91F40E0E0
:1049C00061E086E00E94BA068C0F9D1F06970CF0EE
:1049D000A3CF6091E3087091E40877FF02C06F5F96
:1049E0007F4F7595679544EB50E08AE090E00E9418
:1049F0006C0703E010E00E94DB0788E990E00E946A
:104A0000530AEC0181E00E94690AE82E880FFF0832
:104A1000F0920901E092080182E00E94690A082EE2
:104A2000000C990B9093070180930601F7E0EF16B5
:104A3000F10411F40C949530EA94EF2849F570E0F4
:104A400060E090E080E00E94070781E090E00E9433
:104A5000650881E00E94690A813009F044C00E9423
:104A6000F60586E398E00E94360ACE01B8010E945E
:104A7000103644E650E08AE090E00E946C0746E978
:104A800050E0BE018BE090E00E946C070E948E1205
:104A90008091080190910901059729F570E060E087
:104AA00090E080E00E94070781E00E94690A85305B
:104AB00009F044C00E94F6058FE398E00E94360A90
:104AC000CE01B8010E94103644E650E08AE090E042
:104AD0000E946C0746E950E0BE018BE090E00E9426
:104AE0006C070E94C71080910801909109010297FC
:104AF00029F570E060E090E080E00E94070781E027
:104B00000E94690A823009F045C00E94F60588E4D7
:104B100098E00E94360ACE01B8010E94103644E6A1
:104B200050E08AE090E00E946C0746E950E0BE0148
:104B30008BE090E00E946C070E9442138091080174
:104B400090910901892B31F570E060E090E080E000
:104B50000E94070781E00E94690A811145C00E94F6
:104B6000F60584E598E00E94360ACE01B8010E945D
:104B7000103644E650E08AE090E00E946C0746E977
:104B800050E0BE018BE090E00E946C078BE090E06B
:104B90000E946A0F8091080190910901049721F504
:104BA00070E060E090E080E00E94070781E00E94F2
:104BB000690A8430C9F40E94F60589E598E00E94EC
:104BC000360ACE01B8010E94103644E650E08AE071
:104BD00090E00E946C0746E950E0BE018BE090E057
:104BE0000E946C070E9407120E949C0404CF88E078
:104BF0000E94E301892B09F4FDCD89E00E94E301C5
:104C0000892B09F4F7CD85E20E94E301892B09F491
:104C1000F1CD86E20E94E301892B09F4EBCDEECDC4
:104C2000D09205010FCEC092050125CE82E00E94F0
:104C30009E0681EC95E00E94360A61E082E00E94C7
:104C40009E068FEC95E00E94360A60910501655042
:104C50003CCE84E30E94EA02B89EB001B99E700D7A
:104C60001124072E000C880B990B0E94DF342AE9CF
:104C700039E94CEC52E40E94353426E636E646E447
:104C800050E40E948F350E94A734A62E972EE62E60
:104C9000F72E60E088E00E949E069F92AF92DF931D
:104CA000CF931F930F930E9450090F900F900F9076
:104CB0000F900F900F9039E6E316F1040CF0AACD97
:104CC00061E08DE00E940C0262E370E080E090E021
:104CD0000E945B0360E08DE00E940C0262E370E0E2
:104CE00080E090E00E945B0395CD823009F061C4C2
:104CF00086E00E94E301892B09F08CCD86E00E94BA
:104D0000E301892BD9F30E94F605CCEBDAE06BE0E6
:104D1000C62ED12CE12CF12C88E00E94E301892BD6
:104D2000A9F488E00E94E301892BD9F362E370E0E3
:104D300080E090E00E945B03809102018F5F8730EA
:104D40000CF05BC1809302010E94F60589E00E948D
:104D5000E301892BA9F489E00E94E301892BD9F3AF
:104D600062E370E080E090E00E945B0380910201CA
:104D7000815018160CF043C1809302010E94F60581
:104D80008AE00E94E301892B09F03BC168E270E0F0
:104D900088E290E00E94070780910201813009F0CB
:104DA00093C160E080E00E949E0640E063E082E004
:104DB0000E94BA06B82EA92E40E060E080E00E9472
:104DC000BA06182F092F40E062E082E00E94BA067E
:104DD000AF92BF920F931F939F938F9381EF95E0B4
:104DE0009F938F93DF93CF930E94500961E080E0FF
:104DF0000E949E0640E061E083E00E94BA06582EC1
:104E0000492E40E061E082E00E94BA06782E692EC9
:104E100040E061E081E00E94BA06982E892E40E0D1
:104E200060E081E00E94BA06B82EA92E40E060E062
:104E300082E00E94BA06182F092F40E060E083E06C
:104E40000E94BA064F925F926F927F928F929F92CA
:104E5000AF92BF920F931F939F938F9385E096E03D
:104E60009F938F93DF93CF930E94500962E080E07D
:104E70000E949E0640E061E086E00E94BA06382E5D
:104E8000292E40E061E085E00E94BA06582E492EA6
:104E900040E061E084E00E94BA06782E692EACB44E
:104EA000BDB440E060E084E00E94BA06982E892EEE
:104EB00040E060E085E00E94BA06182F092F40E02C
:104EC00060E086E00E94BA069C012F923F924F92CA
:104ED0005F926F927F92C50164E670E00E94FC359C
:104EE0007F936F938F929F920F931F933F932F9374
:104EF0008CE196E09F938F93DF93CF930E945009AC
:104F00008DB79EB78C960FB6F8949EBF0FBE8DBF1F
:104F100063E080E00E949E0640E060E087E00E943F
:104F2000BA06B82EA92E40E062E080E00E94BA06E0
:104F3000182F092F40E062E081E00E94BA06AF928C
:104F4000BF920F931F939F938F930CE216E01F93D2
:104F50000F93DF93CF930E94500963E08DE00E948E
:104F60009E0640E063E081E00E94BA06982E892EFA
:104F700040E063E080E00E94BA06B82EA92E40E02F
:104F800061E087E00E94BA068F929F92AF92BF9233
:104F90009F938F931F930F93DF93CF930E9450099A
:104FA00063E084E00E949E0681E00E94690AEDB7FA
:104FB000FEB774960FB6F894FEBF0FBEEDBF811119
:104FC0002FC084E894E00E94360A63E089E00E94E2
:104FD0009E0682E00E94690A811145C088E396E03E
:104FE0000E94360A86E00E94E301892B09F094CEE4
:104FF0001DBC1CBC1DBC1CBC8FCE81E0A3CE86E0BA
:10500000BBCE8BE00E94E301892B29F468ED7FEF92
:1050100088ED9FEFBFCE70E060E090E080E0BACE18
:1050200081E00E94690A813019F48BE994E0CBCFCA
:1050300081E00E94690A823019F48FE794E0C3CFBF
:1050400081E00E94690A843019F483E396E0BBCFC3
:1050500081E00E94690A853019F483EB94E0B3CFB4
:1050600088EB94E0B0CF82E00E94690A813019F4A5
:105070008CE396E0B5CF82E00E94690A823019F491
:1050800080E496E0ADCF82E00E94690A843019F492
:1050900084E496E0A5CF41E061E086E00E94BA0694
:1050A000BC01990F880B990B0E94DF3426E636E687
:1050B00046E65FE30E94303487FF03C088E496E051
:1050C0008FCF8CE496E08CCF823009F092C060E004
:1050D00080E00E949E0641E060E080E00E94BA0607
:1050E000182F092F41E062E082E00E94BA060F9378
:1050F0001F939F938F9380E596E09F938F93DF9309
:10510000CF930E94500961E085E00E949E0641E035
:1051100060E081E00E94BA06B82EA92E41E060E06E
:1051200082E00E94BA06182F092F41E060E083E078
:105130000E94BA06AF92BF920F931F939F938F93D3
:1051400085E696E09F938F93DF93CF930E9450095B
:1051500062E082E00E949E0641E060E084E00E94FE
:10516000BA06B82EA92E41E060E085E00E94BA069A
:10517000182F092F41E060E086E00E94BA06AF9246
:10518000BF920F931F939F938F9306E716E01F9391
:105190000F93DF93CF930E94500963E080E00E9459
:1051A0009E0641E060E087E00E94BA06982E892EB4
:1051B00041E062E080E00E94BA06B82EA92E41E0EC
:1051C00062E081E00E94BA068F929F92AF92BF92F6
:1051D0009F938F931F930F93DF93CF930E94500958
:1051E0008DB79EB786960FB6F8949EBF0FBE8DBF43
:1051F00093CD833009F091C060E080E00E949E066C
:1052000041E063E082E00E94BA06182F092F41E0D6
:1052100060E080E00E94BA060F931F939F938F93E4
:1052200088E896E09F938F93DF93CF930E94500975
:1052300061E082E00E949E0641E061E083E00E941E
:10524000BA06B82EA92E41E061E082E00E94BA06BB
:10525000182F092F41E061E081E00E94BA06AF9269
:10526000BF920F931F939F938F9306E716E01F93B0
:105270000F93DF93CF930E94500962E084E00E9475
:105280009E0641E061E086E00E94BA06982E892ED3
:1052900041E061E085E00E94BA06B82EA92E41E007
:1052A00061E084E00E94BA068F929F92AF92BF9213
:1052B0009F938F931F930F93DF93CF930E94500977
:1052C00063E086E00E949E0641E063E081E00E9488
:1052D000BA06982E892E41E063E080E00E94BA066B
:1052E000B82EA92E41E061E087E00E94BA068F92B5
:1052F0009F92AF92BF929F938F931F930F93DF93D1
:10530000CF930E9450092DB73EB72A5D3F4F0FB68D
:10531000F8943EBF0FBE2DBFFFCC843009F07EC095
:1053200060E080E00E949E0640E063E084E00E942E
:10533000BA06B82EA92E40E063E083E00E94BA06C8
:10534000182F092F40E062E084E00E94BA06AF9275
:10535000BF920F931F939F938F938DE996E09F9336
:105360008F93DF93CF930E94500961E080E00E9409
:105370009E0641E062E086E00E94BA06182F092FDF
:1053800040E062E086E00E94BA060F931F939F936D
:105390008F9380EB96E09F938F93DF93CF930E9440
:1053A000500962E080E00E949E0641E062E085E0F4
:1053B0000E94BA06182F092F40E062E085E00E94A3
:1053C000BA060F931F939F938F9381EC96E09F9360
:1053D0008F93DF93CF930E94500963E080E00E9497
:1053E0009E0686E20E94E301182F092F85E20E94A3
:1053F000E3010F931F939F938F9381ED96E09F930B
:105400008F93DF93CF930E9450098DB79EB78296FA
:105410000FB6F8949EBF0FBE8DBF7ECC853009F0CD
:105420009AC060E080E00E949E0661E089E10E94EF
:105430003A0260E089E10E940C0282E090E00E9462
:10544000F30261E089E10E940C028AE090E00E9490
:10545000F30260E089E10E940C0260E080E10E94BA
:105460003A02E1E0F1E06491ECECF0E08491E82FA5
:10547000F0E0EE0FFF1FE455FF4F859194910CE88B
:105480001DE72AE030E0462F0E94DA169B01AC01AE
:10549000211531054105510579F06F5F7F4F8F4F21
:1054A0009F4F44E0660F771F881F991F4A95D1F7D9
:1054B000A70196010E942436AAE0B0E00E947D3642
:1054C0002AE330E040E050E00E9446363F932F93BD
:1054D00022EE36E03F932F93DF93CF930E94500943
:1054E00061E080E00E949E0683E00E9424179F9363
:1054F0008F932CEE36E03F932F93DF93CF930E9450
:10550000500962E080E00E949E0681E00E9424171C
:10551000182F092F82E00E9424170F931F939F9347
:105520008F932BEF36E03F932F93DF93CF930E941F
:10553000500968EC70E080E090E00E945B030E94FC
:10554000F6052DB73EB72C5E3F4F0FB6F8943EBF21
:105550000FBE2DBFE1CB863009F0DECB60E080E0EE
:105560000E949E0683E090E00E94DA17B82EA92ED2
:1055700082E090E00E94DA17182F092F81E090E076
:105580000E94DA17AF92BF920F931F939F938F934E
:105590008CE097E09F938F93DF93CF930E94500905
:1055A0008DB79EB70A960FB6F8949EBF0FBE8DBFFB
:1055B000B3CB833009F044C286E00E94E301892B1B
:1055C00009F028C986E00E94E301892BD9F386E916
:1055D00090E00E94530A8C0188E990E00E94530AEF
:1055E0007C018AE990E00E94530A6C018CE990E00A
:1055F0000E94530A982E892E8EE990E00E94530A49
:10560000782E692E80EA90E00E94530A582E492E87
:1056100082EA90E00E94530A1C010E94F605CCEB3E
:10562000DAE088E00E94E301892BA9F488E00E9477
:10563000E301892BD9F362E370E080E090E00E94FF
:105640005B03809103018F5F89300CF08EC08093E3
:1056500003010E94F60589E00E94E301892BA9F469
:1056600089E00E94E301892BD9F362E370E080E0D6
:1056700090E00E945B0380910301815018160CF0AA
:1056800076C0809303010E94F60580910301853066
:105690000CF06FC060E082E00E949E061F930F93A3
:1056A000E2E2F7E0FF93EF93DF93CF930E9450097C
:1056B00061E082E00E949E06FF92EF92E1E3F7E054
:1056C000FF93EF93DF93CF930E94500962E082E053
:1056D0000E949E068AE990E00E94530A9F938F934E
:1056E000E0E4F7E0FF93EF93DF93CF930E9450093C
:1056F00063E082E00E949E06EFE4F7E0FF93EF9301
:10570000DF93CF930E94500960910301615080E0C4
:105710000E949E068FE597E00E94360AEDB7FEB71D
:1057200076960FB6F894FEBF0FBEEDBF80910301D1
:10573000813009F09CC08AE00E94E301892B09F0C6
:105740006CC068E770E080E090E00E945B03065F59
:105750001F4F0F3F110519F014F00FEF10E0B801C3
:1057600086E990E00E94430A5CCF81E070CF88E038
:1057700088CF8930DCF660E082E00E949E0681E0FE
:1057800090E00E94DA179F938F938F929F9221E669
:1057900037E03F932F93DF93CF930E94500961E04E
:1057A00082E00E949E066F927F9222E737E03F934D
:1057B0002F93DF93CF930E94500962E082E00E9412
:1057C0009E064F925F922AE737E03F932F93DF9335
:1057D000CF930E94500963E082E00E949E063F92B0
:1057E0002F9222E837E03F932F93DF93CF930E94CD
:1057F000500960910301655080E00E949E068FE58C
:1058000097E00E94360A2DB73EB7265E3F4F0FB68F
:10581000F8943EBF0FBE2DBF89CF8BE00E94E301FD
:10582000892B79F468E770E080E090E00E945B03E8
:105830000A5011090A3011050CF091CF0AE010E06E
:105840008ECF86E00E94E301892B09F0EACEB801F1
:10585000C8010E94070786E00E94E301892BD9F363
:1058600070E060E090E080E00E94070778CF82302F
:10587000D9F58AE00E94E301892B69F468EC70E0B5
:1058800080E090E00E945B033FEFE31AF30AB70168
:1058900088E990E067CF8BE00E94E301892B51F407
:1058A00068EC70E080E090E00E945B0381E0E81A21
:1058B000F108EDCF86E00E94E301892B09F0B1CE1B
:1058C00086E00E94E301892BD9F30E94F605B70117
:1058D00088E990E00E94430A48EC50E0B7018BE071
:1058E00090E00E946C079DCE833081F58AE00E9493
:1058F000E301892BA1F464E670E080E090E00E946F
:105900005B039FEFC91AD90AE1E5CE16D1041CF05A
:1059100030E5C32ED12CB6018AE990E023CF8BE08D
:105920000E94E301892B09F07CCE64E670E080E000
:1059300090E00E945B03F1E0CF1AD10825E0C21687
:10594000D1044CF725E0C22ED12CE5CF8430D1F420
:1059500086E00E94E3015C01892B09F062CE0E947F
:10596000F60586E00E94E301892BD9F360E0C501CA
:105970000E9423343FEFA31AB30A88ECA816B1049F
:10598000A9F74FCE8530B1F486E00E94E301892B60
:1059900009F047CE86E00E94E301892BD9F381E02C
:1059A00090E00E94DA17982E892E682F792F8CE9C3
:1059B00090E0D8CE8630A9F40E94E301892B09F04B
:1059C00030CE86E00E94E301892BD9F381E090E09C
:1059D0000E94DA17782E692E682F792F8EE990E0D1
:1059E000C1CE8730B1F486E00E94E301892B09F033
:1059F00018CE86E00E94E301892BD9F381E090E084
:105A00000E94DA17582E492E682F792F80EA90E0ED
:105A1000A9CE883009F005CE86E00E94E301892BEB
:105A200009F0FFCD86E00E94E301892BD9F370E0F5
:105A300060E082EA90E00E94430A212C312CF1CDF3
:105A4000843081F486E00E94E301892B11F00C94EC
:105A50000A240E94F60586E00E94E301892BD9F30F
:105A60000E94751B853071F486E00E94E301892B4A
:105A700011F00C940A2486E00E94E301892BD9F3EB
:105A80000E945318863011F00C940A240E94E301FE
:105A9000892B11F00C940A240E94F60586E00E94DE
:105AA000E301892BD9F368EC70E080E090E00E947C
:105AB0005B030E94F605812CC0E0912CA12CB12C37
:105AC000C12CD12CE12CF12C00E010E0D0E07724A7
:105AD00073949CE0692E88E00E94E301892B79F49D
