:020000040000FA
:100000000C94AF000C94D9000C94D9000C94D90036
:100010000C94D9000C94D9000C94D9000C94D900FC
:100020000C94D9000C94D9000C94D9000C94D900EC
:100030000C94D9000C94D9000C94D9000C94D900DC
:100040000C9438140C94D9000C940C150C94E214F4
:100050000C94D9000C94D9000C94D9000C94D900BC
:100060000C94D9000C94D9000C94D9000C94D900AC
:100070000C94D9000C94D9000C94AC140C948214F8
:100080000C94D9000C9442150C94D90000003A004D
:1000900037003400310022006100640000003B00A2
:1000A000380035003200230062006500000039008E
:1000B00036003300300021002000630005050505EF
:1000C00005050505020202020202020207070404F6
:1000D00004040404040407070303030303030303E2
:1000E00007010101010101010106060606060606D7
:1000F000060102040810204080010204081020407C
:10010000800810010204081020408001020102044E
:1001100008102040800480402010080402010102E1
:100120000408102040800000000A0B0C00000000B2
:1001300000000104050600000000000000000000AF
:1001400000000000000000000000000000000000AF
:100150000000000000000000000000003321112416
:100160001FBECFEFD0E1DEBFCDBF18E0A0E0B1E011
:10017000ECE2FCE600E00BBF02C007900D92A23655
:10018000B107D9F72AE0A2E6B8E001C01D92A73D69
:10019000B207E1F710E0CFEAD0E004C02197FE01FA
:1001A0000E94F135CE3AD107C9F70E94B0210C94D4
:1001B00014360C940000CF93DF93CDB7DEB7D25046
:1001C0000FB6F894DEBF0FBECDBF80E092E0EAE04C
:1001D000F1E0DE01119601900D920197E1F7ADE398
:1001E000B9E029E539E090E080E06D917D91582FEC
:1001F0004427E92FFF27E627EE0FFF1F81E090E05D
:100200008C0F9D1FE80FF91F80819181842795270E
:100210002A173B0751F7DE5F0FB6F894DEBF0FBE1B
:10022000CDBFDF91CF910895FB01A485B585ED91F8
:10023000FC9111970190F081E02D682FCD01099577
:1002400090E080E0089590913C0980913B092FEF68
:100250003FEF981748F4E92FF0E0E55EF64F208174
:1002600030E09F5F90933C09C901089590913C094B
:1002700080913B092FEF3FEF981748F4E92FF0E00A
:10028000E55EF64F208130E09F5F90933C09C90105
:100290000895282F90911A0981E0913208F042C008
:1002A0008091F6088111FCCF8091190932E03093DA
:1002B000F6082093F5082FEF2093F40829EF38E093
:1002C0003093F3082093F2081092F1089093F0080D
:1002D0001092EF089091EF08880F892B8093EF0818
:1002E0008091EE08813029F51092EE088091EF0898
:1002F000809373008091740083FDF8CF85EC809328
:1003000074008091F6088230E1F38091F4088F3F09
:1003100091F08091F408803281F08091F40880336C
:1003200071F084E01092F80810921A091092F70800
:10033000089585EEE4CF80E0F5CF82E0F3CF83E04F
:10034000F1CF91E09093F708809319091092F80883
:1003500010921A09089581E00C94490181508C3063
:1003600088F5E82FF0E0E954FE4F0C94F135DF01F9
:10037000DF01E201C301C701CA01CD01E201E201CF
:10038000D101D701DB018FB58F778FBD08958FB570
:100390008F7DFBCF8FB5877FF8CF85B58F7D85BDEE
:1003A000089580918B008F7780938B0008958091C2
:1003B0008B008F7DF9CF80918B00877FF5CF83B73E
:1003C0008F7D83BF0895CF93DF93282F30E0F9010D
:1003D000EA5DFE4F8491F901EF50FF4FD491F9018E
:1003E000E454FF4FC491CC23A1F081110E94AE01CF
:1003F000EC2FF0E0EE0FFF1FE455FF4FA591B491F5
:10040000EC91ED2381E090E009F480E0DF91CF9161
:10041000089580E090E0FACF1F93CF93DF93282FC9
:1004200030E0F901EA5DFE4F8491F901EF50FF4F92
:10043000D491F901E454FF4FC491CC23A9F0162FB5
:1004400081110E94AE01EC2FF0E0EE0FFF1FE45689
:10045000FF4FA591B4918FB7F894EC91111108C09A
:10046000D095DE23DC938FBFDF91CF911F9108954C
:10047000DE2BF8CFCF93DF9390E0FC01EF50FF4FDE
:10048000249184549F4FFC0184918823C9F090E00B
:10049000880F991FFC01E457FF4FA591B491FC010F
:1004A000E456FF4FC591D49161110DC09FB7F894E8
:1004B0008C91209582238C938881282328839FBF49
:1004C000DF91CF910895623051F49FB7F8943C9139
:1004D000822F809583238C93E8812E2BEFCF8FB7CB
:1004E000F894EC912E2B2C938FBFEACF1F93CF93D0
:1004F000DF93182FEB0161E00E943A02209739F454
:1005000060E0812FDF91CF911F910C940C02CF3FBF
:10051000D10511F461E0F5CFE12FF0E0EA5DFE4F87
:10052000E491E150EC3008F050C0F0E0E656FD4FA9
:100530000C94F135A602A602E502AE02B402BA029C
:10054000C202E502E502C702D102DB0283B7806284
:1005500083BFC1BFDF91CF911F9108958FB5806890
:100560008FBDDBBDCABDF6CF8FB580628FBDD9BD53
:10057000C8BDF0CF8FB588608FBDD0937900C09390
:100580007800E8CF85B5806285BDC3BDE3CF80919B
:100590008B00806880938B00D0938700C093860087
:1005A000D9CF80918B00806280938B00D09385009F
:1005B000C0938400CFCF80918B00886080938B00A4
:1005C000D0938300C0938200C5CFC038D1050CF012
:1005D000A1CF96CF8D52806487B9369A3699FECFD7
:1005E00084B195B108958130910539F0880F991F34
:1005F000880F991F05970197F1F708953FB7F89471
:100600008091EA089091EB08A091EC08B091ED0878
:1006100022B706B600FE05C02F3F19F00196A11DB6
:10062000B11D3FBFBA2FA92F982F8827BC01CD013C
:10063000620F711D811D911D42E0660F771F881F9B
:10064000991F4A95D1F708958F929F92AF92BF92CA
:10065000CF92DF92EF92FF924B015C010E94FE026B
:100660006B017C010E94FE026C197D098E099F09B5
:10067000683E734081059105A8F321E0821A910834
:10068000A108B10888EEC80E83E0D81EE11CF11C59
:1006900081149104A104B10429F7FF90EF90DF9039
:1006A000CF90BF90AF909F908F9008950895089538
:1006B000AF92BF92CF92DF92EF92FF920F931F9370
:1006C000CF93DF936C017B018B01040F151FEB01AE
:1006D0005E01AE18BF08C017D10759F06991D60165
:1006E000ED91FC910190F081E02DC6010995892BD7
:1006F00079F7C501DF91CF911F910F91FF90EF9096
:10070000DF90CF90BF90AF900895FC01538D448D42
:10071000252F30E0842F90E0821B930B541710F0AC
:10072000CF96089501970895FC01918D828D9817B9
:1007300061F0A28DAE0FBF2FB11D5D968C91928D91
:100740009F5F9F73928F90E008958FEF9FEF0895C2
:10075000FC01918D828D981731F0828DE80FF11D8B
:10076000858D90E008958FEF9FEF0895FC01918DA6
:10077000228D892F90E0805C9F4F821B91098F739F
:100780009927089589E799E00E94B60321E0892B13
:1007900009F420E0822F089586E19AE00E94B603D2
:1007A00021E0892B09F420E0822F0895FC01A48D1B
:1007B000A80FB92FB11DA35ABF4F2C91848D90E083
:1007C00001968F739927848FA689B7892C93A08966
:1007D000B1898C91837080648C93938D848D9813F0
:1007E00006C00288F389E02D80818F7D8083089583
:1007F000EF92FF920F931F93CF93DF93EC0181E071
:10080000888F9B8D8C8D98131AC0E889F989808117
:1008100085FF15C09FB7F894EE89FF896083E8894A
:10082000F98980818370806480839FBF81E090E03C
:10083000DF91CF911F910F91FF90EF900895F62EC9
:100840000B8D10E00F5F1F4F0F731127E02E8C8D63
:100850008E110CC00FB607FCFACFE889F9898081A8
:1008600085FFF5CFCE010E94D603F1CFEB8DEC0FC3
:10087000FD2FF11DE35AFF4FF0829FB7F8940B8FC5
:10088000EA89FB8980818062CFCFCF93DF93EC012F
:10089000888D8823B9F0AA89BB89E889F9898C9168
:1008A00085FD03C0808186FD0DC00FB607FCF7CF24
:1008B0008C9185FFF2CF808185FFEDCFCE010E9424
:1008C000D603E9CFDF91CF91089580E090E0892BA6
:1008D00029F00E94CC0381110E94000080E090E08A
:1008E000892B29F00E94C20381110C940000089505
:1008F00085ED809374008091740084FDFCCF10928C
:10090000F608089520919E08260F3327331F2132C1
:100910003105ECF42091F608FC0190E080E02430F1
:1009200069F082E00895A0919E082191AC0142589F
:10093000574FA40FB52FB11D2C930196861798F32E
:1009400080919E08680F60939E0880E0089581E082
:1009500008950895E0913C0980913B09E81730F42F
:10096000F0E0E55EF64F808190E008958FEF9FEF15
:10097000089580913B0990913C09891B990B08953A
:10098000CF92DF92EF92FF920F931F93CF93DF935B
:100990007C01CB018A012091F708222389F0EB0129
:1009A0006B01C40ED51ECC15DD0569F06991D70128
:1009B000ED91FC910190F081E02DC7010995F3CFF5
:1009C000642F0E948204C801DF91CF911F910F9183
:1009D000FF90EF90DF90CF900895CF93DF931F9219
:1009E000CDB7DEB769832091F7082223F9F0209173
:1009F0001A09203258F021E030E0FC0133832283D1
:100A000090E080E00F90DF91CF9108958091F808F9
:100A1000E82FF0E0E750F74F998190838F5F809344
:100A2000F80880931A0981E090E0ECCF61E0CE01F4
:100A300001960E948204F7CFCF93DF93EC0160E030
:100A40008E810E940C0281E090E00E94F30261E03E
:100A50008E810E940C0281E090E00E94F30260E02F
:100A60008E810E940C0284E690E0DF91CF910C947D
:100A7000F302CF92DF92EF92FF920F931F93CF93E7
:100A8000DF936C017C0187E0E80EF11CD0E0C0E050
:100A9000062F10E0B8010C2E02C0759567950A94D8
:100AA000E2F76170F70181917F010E940C022196AB
:100AB000C430D10579F7C601DF91CF911F910F9115
:100AC000FF90EF90DF90CF900C941C05CF92DF92B7
:100AD000EF92FF920F931F93CF93DF93EC01F62ECB
:100AE000642F8C810E940C028D818F3F19F060E091
:100AF0000E940C020F2D10E08F8584FF25C06E012F
:100B000087E0C80ED11CF12CE12CB8010E2C02C0DC
:100B1000759567950A94E2F76170F60181916F010E
:100B20000E940C02FFEFEF1AFF0A88E0E816F104BA
:100B300061F7CE01DF91CF911F910F91FF90EF9060
:100B4000DF90CF900C941C05B80184E075956795F3
:100B50008A95E1F7CE010E9439056F2DCE01DF9114
:100B6000CF911F910F91FF90EF90DF90CF900C9459
:100B7000390540E0682F8FEB9AE00C94660581E020
:100B80000E94B90580ED97E00C94F302CF93DF93B8
:100B9000613029F09091CE0A98609093CE0A6093CC
:100BA000D20A1092D30A90E49093D40A8093D50A83
:100BB000805C8093D60A61E08091C30A0E943A0269
:100BC0008091C40A8F3F19F061E00E943A0261E00F
:100BD0008091C50A0E943A02CFEBDAE09E012F5BBA
:100BE0003A408091CE0A84FD0BC084E090E02196CB
:100BF0002817390744F461E08E810E943A02EECF53
:100C000088E090E0F4CF80E593EC0E94F30260E08E
:100C10008091C30A0E940C0260E08091C50A0E9484
:100C20000C028091C40A8F3F19F060E00E940C0210
:100C30008091CE0A84FD35C063E08FEB9AE00E947C
:100C4000390584E991E10E94F30263E08FEB9AE0B9
:100C50000E94390584E991E10E94F30263E08FEB81
:100C60009AE00E94390586E990E00E94F30262E072
:100C70008FEB9AE00E9439058091CE0A80620E9433
:100C8000B90584E08093CF0A8CE00E94B9050E94E8
:100C9000BF0582E08093D00A86E0DF91CF910C946B
:100CA000B90580620E94B90584E991E10E94F302CE
:100CB0008091CE0A80620E94B90586E990E00E9488
:100CC000F3028091CE0A80620E94B905D5CF6430CC
:100CD00008F063E09091D20A691710F06FEF690F86
:100CE000E62FF0E0E154F54F9489890F80680C9469
:100CF000B90541E00E94660581E090E008950895FD
:100D000090E080E008951F93CF93DF93D82FC62FF4
:100D1000142F682F61708CE20E940C02D1FB6627B1
:100D200060F98BE20E940C026D2F659565958AE251
:100D30000E940C0211110FC08DE2CC2339F08EE21B
:100D4000C13021F08FE2C23009F080E3DF91CF9112
:100D50001F910C94E3018DE2CC2339F08EE2C13077
:100D600021F08FE2C23009F080E30E94EA0225E020
:100D7000289FB001299F700D1124072E000C880BAD
:100D8000990B0E946B342AE939E94CEC52E40E9439
:100D9000C1330E943334CB01DF91CF911F9108956D
:100DA0000F931F93CF93DF9300271127061B170B79
:100DB00081302FEF92070CF446C08F3F910509F068
:100DC000CCF5CC27DD27C81BD90B61302FEF72077C
:100DD0002CF16F3F710509F024F597FD29C060E003
:100DE00082E00E940C02662777276C1B7D0B83E054
:100DF0000E947602CC27DD27C01BD10B60E01016C5
:100E000011060CF461E084E00E940C02BE0185E052
:100E1000DF91CF911F910F910C9476020FEF10E0AC
:100E2000DCCF01E01FEFD9CF0FEF10E0CFEFD0E024
:100E300061E0D6CF61308FEF780784F40FEF10E0D8
:100E4000C1E0DFEFCCCF61302FEF72076CF36F3F63
:100E5000710561F35CF301E01FEFE8CF6F3F7105AF
:100E600079F374F301E01FEFEBCFCF92DF92EF92B3
:100E7000FF920F931F93CF93DF938B01EA011DBC69
:100E80001CBC8C309105C1F18D30910509F448C02E
:100E90000B97F1F034E6E32EF12C8CB59DB5B7013C
:100EA0000E9488356017710728F4BE01CE010E94A8
:100EB000D006F3CF70E060E090E080E0DF91CF916A
:100EC0001F910F91FF90EF90DF90CF900C94D00680
:100ED00024E6C22ED12CEE24FF24E41AF50A8CB5A8
:100EE0009DB5B6010E9488356017710718F7BE01DD
:100EF000C7010E94D006F3CF94E6C92ED12CEE2470
:100F0000FF24E41AF50A8CB59DB5B6010E94883518
:100F10006017710778F6B701CE010E94D006F3CFB3
:100F200084E6E82EF12CD195C195D1098CB59DB5FB
:100F3000B7010E9488356017710708F0BBCFBE016A
:100F4000CE010E94D006F2CF40E060E080E00E9437
:100F50008306019729F46FEF70E08FEF90E00BC0EC
:100F600040E061E081E00E948306019731F468E788
:100F700070E08CED90E00C94D00640E061E082E0FF
:100F80000E94830665E570E0019739F340E061E077
:100F900083E00E94830667E97FEF0197F1F240E06A
:100FA00061E084E00E94830661E57FEF0197A9F28A
:100FB00040E061E085E00E948306019719F461E05A
:100FC0007FEFCBCF40E061E086E00E94830601978F
:100FD000B1F340E060E081E00E948306019729F4CC
:100FE0006FEF70E08BE990E0C6CF40E060E082E018
:100FF0000E948306019729F46FEF70E085E590E089
:10100000BACF40E060E083E00E948306019729F4B4
:101010006FEF70E087E99FEFAECF40E060E084E0E3
:101020000E948306019729F46FEF70E081E59FEF3E
:10103000A2CF40E060E085E00E948306019729F49A
:101040006FEF70E081E09FEF96CF40E060E086E0D8
:101050000E948306019709F07ECFF2CF0F931F9372
:10106000CF93DF938C01D0E0C0E061E083E20E9487
:101070000C0262E370E080E090E00E94240360E0F4
:1010800083E20E940C0262E370E080E090E00E9444
:10109000240321960C171D0741F7DF91CF911F9173
:1010A0000F9108959FEF909368089093690880933B
:1010B0006A0887E080936B0883E080936C088EE178
:1010C00080936D0860936E0870936F08409370086A
:1010D0005093710861E086E10E940C02EAE6F8E0B4
:1010E00080E092E02191820F9F5F9A30D9F780953E
:1010F00080937208E8E6F8E080E090919B0095FF0D
:10110000FCCF919190939C008F5F8B30B1F78091D1
:101110009B0086FFFCCF6AE070E080E090E00C94DA
:1011200024030F931F93CF93DF938C01EB01AB014B
:10113000BC018BE00E9452086FEF73E0601B710BE3
:10114000AE018AE0DF91CF911F910F910C9452086C
:101150002FEF30E030933E0920933D093093400952
:1011600020933F092DEF30E030934209209341094D
:101170001092440910924309082E000C990B909389
:1011800046098093450989E090E09093480980934F
:10119000470910924A091092490983E090E0909320
:1011A0004C0980934B098EE190E090934E09809317
:1011B0004D091092500910924F09CB019927909335
:1011C0005209809351097093530910925409CA012E
:1011D0009927909356098093550950935709109277
:1011E00058090E94DB009C01332730935A09209351
:1011F000590990935B0910925C0961E086E10E94B5
:101200000C02EDE3F9E080919B0085FFFCCF80812B
:10121000329680939C0089E0ED35F807A1F7809124
:101220009B0086FFFCCF6FE070E080E090E00C94C4
:101230002403CF93DF93CDB7DEB72E970FB6F89484
:10124000DEBF0FBECDBF84E191E09A8789871C86FF
:101250001B8682E08C838FEB9AE09E878D87AE01A0
:10126000495E5F4F6D897E89CE0101960E940031F3
:101270002E960FB6F894DEBF0FBECDBFDF91CF9193
:101280000895AC018091F6088111FCCF962F81E082
:101290008093F6088093F5082FEF2093F4082BE154
:1012A00039E03093F3082093F2081092F1082FEF01
:1012B000260F2093F0088093EF082091EF08440F49
:1012C000551F822F842B8093EF088091EE08813088
:1012D000E9F41092EE088091EF08809373008091FA
:1012E000740083FDF8CF85EC809374008091F6083C
:1012F0008130E1F38091F108861710F49091F108A4
:1013000010923C0990933B09892F089585EEECCF0C
:101310008F929F92AF92BF920F931F93CF93DF93C1
:10132000CDB7DEB7A1970FB6F894DEBF0FBECDBF25
:1013300019A2423008F44AE08E010F5D1F4F842E3F
:10134000912CB12CA12CA50194010E94B035E62F5F
:10135000B901CA01EA3044F5E05DD801EE938D0190
:10136000232B242B252B79F790E080E0109769F050
:10137000FD0101900020E9F73197AF014A1B5B0B9B
:10138000BD018FEB9AE00E945803A1960FB6F89426
:10139000DEBF0FBECDBFDF91CF911F910F91BF90E8
:1013A000AF909F908F900895E95CD7CFCF92DF9256
:1013B000EF92FF926C01990FEE08FF08F7FE16C03E
:1013C00041E06DE28FEB9AE00E9466056627772781
:1013D000CB016C197D098E099F094AE00E9488099A
:1013E0000196FF90EF90DF90CF9008954AE0C701FB
:1013F000B601FF90EF90DF90CF900C948809FC012C
:1014000001900020E9F73197AF01481B590BBC014F
:101410008FEB9AE00C9458031F93CF93DF93EC016A
:10142000162F672F0E94AF33612FCE010196DF91F7
:10143000CF911F910C94AF330F931F93CF938C01D7
:101440000E94A733C82FC80101960E94A7332C2FF2
:1014500030E0322F2227820F932F911DCF911F91C1
:101460000F910895AF92BF92CF92DF92EF92FF92C9
:101470000F931F93CF93DF93D82E81E0D812F5C03E
:1014800060E08AE20E940C0260E08BE20E940C02A3
:1014900060E08CE20E940C028AE090E00E94F3027D
:1014A00089E30E94A10160E883EB9AE00E94ED04C9
:1014B00063E083EB9AE00E94ED040E94AB0189E3B4
:1014C0000E94A1016FE883EB9AE00E94ED0461E0C5
:1014D00083EB9AE00E94ED040E94AB0189E30E9435
:1014E000A10164E983EB9AE00E94ED040E94AB0144
:1014F00068E070E089E390E00E94410980913B0937
:1015000090913C09891B990B0897D4F10E943601F0
:10151000EC010E9436011FEFDD27819FC00DD11D18
:101520001124D093C608C093C5080E943601EC016F
:101530000E943601DD27819FC00DD11D1124D0935B
:10154000CC08C093CB080E943601EC010E94360102
:10155000DD27819FC00DD11D1124D093CA08C093EF
:10156000C9080E943601EC010E943601DD27819FE7
:10157000C00DD11D11242A97D093C808C093C70865
:10158000E090CB08F090CC080091C9081091CA08EF
:1015900081E0D812B1C1C090C708D090C8088AE9CC
:1015A00090E00E941C0AEC010E151F050CF075C09E
:1015B000CE14DF040CF0BAC084E190E00E941C0A53
:1015C0009C012C0F3D1FE216F3060CF0B3C08C1BE0
:1015D0009D0B8E159F050CF0ADC086E190E00E943A
:1015E0001C0A9C012C0F3D1F021713070CF0A2C010
:1015F0008C1B9D0B801791070CF09CC088E190E03C
:101600000E941C0A9C012C0F3D1FC216D3060CF031
:1016100091C08C1B9D0B8C159D050CF08BC08AE135
:1016200090E00E941C0A2091C5083091C608AC01C8
:101630004C0F5D1F241735070CF07CC08C1B9D0BD5
:10164000821793070CF076C010927D0810927C08E8
:1016500080917C08DF91CF911F910F91FF90EF90C7
:10166000DF90CF90BF90AF90089582E0D8120AC06B
:1016700060E08AE20E940C0260E08BE20E940C02B1
:1016800061E007CF61E08CE20E940C0261E08BE236
:101690000E940C0260E08AE2FDCEE016F1060CF03A
:1016A00045C0C016D1060CF041C08CE190E00E940C
:1016B0001C0A9C012C0F3D1FE216F306BCF58C1B87
:1016C0009D0B8E159F0594F58EE190E00E941C0AFB
:1016D0009C012C0F3D1F0217130744F58C1B9D0B1B
:1016E000801791071CF580E290E00E941C0A9E0181
:1016F000280F391FC216D306CCF48C1B9D0B8C15FA
:101700009D05A4F482E290E00E941C0A2091C50885
:101710003091C608AE01480F591F2417350734F41D
:101720008C1B9D0B821793070CF41DC2EC14FD0457
:101730000CF44FC08CE290E00E941C0A9E01280F1E
:10174000391FE216F3060CF497C084E390E00E9480
:101750001C0A9E01280F391F2E153F05BCF18C1B5A
:101760009D0BE816F90694F186E390E00E941C0AAE
:101770009C012C1B3D0B0217130744F18C0F9D1F7E
:10178000801791071CF188E390E00E941C0A9C01DD
:101790002C1B3D0BC216D306CCF08C0F9D1F8C1555
:1017A0009D05A4F08AE390E00E941C0A2091C508E0
:1017B0003091C608AE01480F591F4217530734F045
:1017C0008C1B9D0B281739070CF00EC287E090E0A8
:1017D0004EC00C151D050CF0ADCF84E290E00E94C8
:1017E0001C0A9E01280F391FE216F3060CF0A2CF47
:1017F0008C1B9D0B8E159F050CF09CCF86E290E014
:101800000E941C0A9E01280F391F021713070CF0B3
:1018100091CF8C1B9D0B801791070CF08BCF88E22A
:1018200090E00E941C0A9E01280F391FC216D306A1
:101830000CF080CF8C1B9D0B8C159D050CF07ACF86
:101840008AE290E00E941C0A2091C5083091C608E7
:10185000AE01480F591F241735070CF06BCF8C1BB6
:101860009D0B821793070CF065CF82E090E0909378
:101870007D0880937C08ECCE8C1B9D0B8E159F05FC
:101880000CF063CF8EE290E00E941C0A9E01280FAC
:10189000391F021713070CF058CF8C1B9D0B8017B4
:1018A00091070CF052CF80E390E00E941C0A9E0149
:1018B000280F391FC216D3060CF047CF8C1B9D0B87
:1018C0008C159D050CF041CF82E390E00E941C0A2C
:1018D0002091C5083091C608AE01480F591F241742
:1018E00035070CF032CF8C1B9D0B821793070CF041
:1018F0002CCF84E090E0BBCF82E0D81278C1C090BA
:10190000C708D090C8088AE990E00E941C0AEC0140
:101910000E151F050CF086C0CE14DF040CF086C037
:101920008CE390E00E941C0A9E01280F391FE216EA
:10193000F306BCF58C1B9D0B8E159F0594F58EE36D
:1019400090E00E941C0A9E01280F391F02171307FE
:1019500044F58C1B9D0B801791071CF580E490E0EB
:101960000E941C0A9E01280F391FC216D306CCF410
:101970008C1B9D0B8C159D05A4F482E490E00E94C5
:101980001C0A2091C5083091C608AE01480F591FA6
:101990002417350734F48C1B9D0B821793070CF426
:1019A00053CE84E590E00E941C0A9E01280F391F47
:1019B000E216F3060CF4DAC08CE590E00E941C0AF3
:1019C0009E01280F391F2E153F050CF4FFCE8C1BEE
:1019D0009D0BE816F9060CF4F9CE8EE590E00E9416
:1019E0001C0A9C012C1B3D0B021713070CF4EECEB6
:1019F0008C0F9D1F801791070CF4E8CE80E690E0D5
:101A00000E941C0A9C012C1B3D0BC216D3060CF431
:101A1000DDCE8C0F9D1F8C159D050CF4D7CE82E674
:101A200090E0C2CEE016F1060CF451C0EC14FD04B7
:101A30000CF0B7CF0C151D050CF0B3CF8CE490E083
:101A40000E941C0A9E01280F391FE216F3060CF0B3
:101A5000A8CF8C1B9D0B8E159F050CF0A2CF8EE49A
:101A600090E00E941C0A9E01280F391F02171307DD
:101A70000CF097CF8C1B9D0B801791070CF091CF2A
:101A800080E590E00E941C0A9E01280F391FC216B3
:101A9000D3060CF086CF8C1B9D0B8C159D050CF08E
:101AA00080CF82E590E00E941C0A2091C508309109
:101AB000C608AE01480F591F241735070CF071CF27
:101AC0008C1B9D0B821793070CF4CFCE6ACFC016E8
:101AD000D1060CF0ABCF84E490E00E941C0A9E017A
:101AE000280F391FE216F3060CF0A0CF8C1B9D0BBC
:101AF0008E159F050CF09ACF86E490E00E941C0A98
:101B00009E01280F391F021713070CF08FCF8C1B73
:101B10009D0B801791070CF089CF88E490E00E941C
:101B20001C0A9E01280F391FC216D3060CF07ECF67
:101B30008C1B9D0B8C159D050CF078CF8AE490E0F2
:101B40000E941C0A2091C5083091C608AE01480FBA
:101B5000591F241735070CF069CF8C1B9D0B82177A
:101B600093070CF063CF81E090E081CE8C1B9D0B3E
:101B70008E159F050CF020CF86E590E00E941C0A90
:101B80009E01280F391F021713070CF015CF8C1B6D
:101B90009D0B801791070CF00FCF88E590E00E9415
:101BA0001C0A9E01280F391FC216D3060CF004CF61
:101BB0008C1B9D0B8C159D050CF0FECE8AE590E0EC
:101BC0000E941C0A2091C5083091C608AE01480F3A
:101BD000591F241735070CF0EFCE8C1B9D0B821775
:101BE00093070CF486CEE8CE85E090E040CE0E154B
:101BF0001F050CF057C0C090C708D090C808CE147D
:101C0000DF040CF0E3CD84E690E00E941C0A5C0146
:101C10008AE990E00E941C0AEC01C5018C0F9D1F0F
:101C2000E816F9060CF0D2CDAC1ABD0AAE14BF040A
:101C30000CF0CCCD86E690E00E941C0A9E01280F95
:101C4000391F021713070CF0C1CD8C1B9D0B801799
:101C500091070CF0BBCD88E690E00E941C0A9E0123
:101C6000280F391FC216D3060CF0B0CD8C1B9D0B6C
:101C70008C159D050CF0AACD8AE690E00E941C0A06
:101C80002091C5083091C608AE01480F591F24178E
:101C900035070CF09BCD8C1B9D0B821793070CF422
:101CA000D3CC94CDE016F1060CF090CDC090C708CF
:101CB000D090C808C016D1060CF088CD8CE690E014
:101CC0000E941C0A5C018AE990E00E941C0AEC0157
:101CD000C5018C0F9D1FE816F9060CF077CDAC1AE4
:101CE000BD0AAE14BF040CF071CD8EE690E00E94E8
:101CF0001C0A9E01280F391F021713070CF066CD2E
:101D00008C1B9D0B801791070CF060CD80E790E055
:101D10000E941C0A9E01280F391FC216D3060CF020
:101D200055CD8C1B9D0B8C159D050CF04FCD82E77E
:101D300090E00E941C0A2091C5083091C608AE01AF
:101D4000480F591F241735070CF040CD8C1B9D0BF5
:101D5000821793070CF407CF39CD0F931F93CF93BE
:101D6000DF9388E990E00E941C0AEC0140E060E00B
:101D700080E00E948306892BB9F040E062E082E0B7
:101D80000E948306892BF1F040E060E080E00E9431
:101D90008306892B09F44DC040E063E082E00E9495
:101DA0008306892B79F014C040E060E081E00E9456
:101DB0008306892B11F740E061E081E00E948306F1
:101DC000892BD9F681E00E94320A873009F442C09B
:101DD000CE0163E070E00E949C358B0146E950E043
:101DE0008AE090E00E943507BE01DD0F880B990B59
:101DF0000E946B3426E636E646EA5FE30E94C13372
:101E00000E94333446E950E08BE090E00E943507B1
:101E100046E950E0B8018AE090E00E9435076CE3A3
:101E200070E08CE390E0DF91CF911F910F910C94C3
:101E3000D00640E060E081E00E948306892B09F033
:101E4000ABCF40E061E081E00E948306892B09F47A
:101E5000B9CFA2CF82E00E94320A873009F0B8CF12
:101E60000E94A40783CF8F929F92AF92BF92CF928E
:101E7000DF92EF92FF920F931F93CF93DF937C013A
:101E800088E990E00E941C0AEC010E94A40740E04F
:101E900060E080E00E948306892B09F482C040E064
:101EA00062E082E00E948306892B79F340E060E0E3
:101EB00080E00E948306892B09F484C040E063E03F
:101EC00082E00E948306892B01F3CE0163E070E07B
:101ED0000E949C3544E650E08AE090E00E9435077D
:101EE00044E650E0BE018CE0E816F10409F07BC046
:101EF0008CE090E00E943507CE0166E070E00E9421
:101F00009C356B0144E650E08AE090E00E94350782
:101F10006CE370E08CE390E00E94D00610E000E0FB
:101F20004E010D2E000CAA08BB080E94A40740E039
:101F300060E080E00E948306892B09F457C040E0EE
:101F400062E082E00E948306892B09F45FC040E0D2
:101F500060E080E00E948306892B09F4AEC040E077
:101F600062E082E00E948306892B09F0B7C0C501B8
:101F7000B4010E946B3420E030E040E250E40E9463
:101F8000C1330E94333444E650E08AE090E00E947E
:101F900035070F5F1F4F0E94BF05C8010E94D60979
:101FA00045C040E060E081E00E948306892B09F093
:101FB00076CF40E061E081E00E948306892B09F042
:101FC0006ECF63CF40E060E081E00E948306892B02
:101FD00009F074CF40E061E081E00E948306892B24
:101FE00009F06CCF52CF8BE090E084CF40E060E00E
:101FF00081E00E948306892B09F0A1CF40E061E0D7
:1020000081E00E948306892B09F099CF40E060E0CF
:1020100080E00E948306892B09F43EC040E063E023
:1020200082E00E948306892B09F091CF04301105CC
:1020300009F07BCF6CE370E08CE390E00E94D00667
:1020400044E650E0B6018AE090E00E94350744E69D
:1020500050E0BE018CE0E816F10409F05EC08CE0AF
:1020600090E00E943507D7FD2196BE0175956795D2
:1020700044E650E08AE090E00E943507DF91CF917E
:102080001F910F91FF90EF90DF90CF90BF90AF9096
:102090009F908F900C94AD0E40E060E081E00E9434
:1020A0008306892B09F0BACF40E061E081E00E940D
:1020B0008306892B09F0B2CFB9CF40E060E081E020
:1020C0000E948306892B09F04ACF40E061E081E05D
:1020D0000E948306892B09F042CF49CF40E060E09F
:1020E00080E00E948306892B49F040E063E082E0B3
:1020F0000E948306892B09F02ACF39CF40E060E0A7
:1021000081E00E948306892B81F740E061E081E055
:102110000E948306892B49F72ACF8BE090E0A1CF5C
:10212000CF92DF92EF92FF92CF93DF9388E990E016
:102130000E941C0AEC0140E060E080E00E948306FF
:10214000892B09F499C040E062E082E00E94830696
:10215000892B09F4A1C070E060E090E080E00E946B
:10216000D00682E090E00E942E08CE0166E070E08A
:102170000E949C3544E650E08AE090E00E943507DA
:1021800064E670E084E690E00E94D00640E060E003
:1021900080E00E948306892B09F49FC040E062E042
:1021A00082E00E948306892B59F340E060E080E0E2
:1021B0000E948306892B09F4A1C040E063E082E01D
:1021C0000E948306892BE1F26CE370E08CE390E0DF
:1021D0000E94D00640E060E080E00E948306892BE8
:1021E00009F49DC040E062E082E00E948306892BF2
:1021F00089F740E060E080E00E948306892B09F4C3
:102200009FC040E063E082E00E948306892B11F7C3
:10221000BE01DD0F880B990B0E946B346B017C01B2
:1022200020E030E040EC5FE30E941B350E94333435
:1022300046E950E08DE090E00E94350723E333E368
:1022400043EF5FE3C701B6010E941B350E943334A0
:1022500046E950E08BE090E00E9435076CE370E0C7
:102260008CE390E00E94D006DF91CF91FF90EF9039
:10227000DF90CF900C94AD0E40E060E081E00E94D2
:102280008306892B09F05FCF40E061E081E00E9486
:102290008306892B09F057CF40E060E080E00E9480
:1022A0008306892B59F040E063E082E00E948306B8
:1022B000892B09F050CF0E94A4073DCF40E060E099
:1022C00081E00E948306892B71F740E061E081E0A4
:1022D0000E948306892B39F7EECF40E060E081E071
:1022E0000E948306892B09F059CF40E061E081E02C
:1022F0000E948306892B09F051CF42CF40E060E075
:1023000081E00E948306892B09F057CF40E061E00D
:1023100081E00E948306892B09F04FCF31CF40E046
:1023200060E081E00E948306892B09F05BCF40E0EA
:1023300061E081E00E948306892B09F053CF59CFD9
:1023400040E060E081E00E948306892B09F059CFCC
:1023500040E061E081E00E948306892B09F051CFC3
:1023600057CFCF93DF9388E990E00E941C0AEC01DD
:1023700040E060E080E00E948306892B09F447C0BA
:1023800040E062E082E00E948306892B09F44FC09E
:1023900070E060E090E080E00E94D00683E090E092
:1023A0000E942E0848EE53E064E670E08FE10E9440
:1023B000A80861E070E080E090E00E94240360EDF6
:1023C00077E080E090E00E942403BE01D7FF02C0C6
:1023D0006D5F7F4F759567957595679548E750E0F8
:1023E0008DE090E00E943507BE01660F771F48E739
:1023F00050E08BE090E00E9435076CE370E08CE3E6
:1024000090E00E94D006DF91CF910C94AD0E40E099
:1024100060E081E00E948306892B09F0B1CF40E0A3
:1024200061E081E00E948306892B09F0A9CF40E09A
:1024300060E080E00E948306892B59F040E063E071
:1024400082E00E948306892B09F0A2CF0E94A40794
:102450008FCF40E060E081E00E948306892B71F716
:1024600040E061E081E00E948306892B39F7EECFDE
:10247000CF93DF9388E990E00E941C0AEC010E9450
:10248000A40740E060E080E00E948306892B09F405
:102490006CC040E062E082E00E948306892B79F301
:1024A00040E060E080E00E948306892B09F46EC062
:1024B00040E063E082E00E948306892B01F370E034
:1024C00060E090E080E00E94D006BE01D7FF02C02D
:1024D000695F7F4F93E0759567959A95E1F744E6BC
:1024E00050E08DE090E00E94350783E090E00E948C
:1024F0002E08BE01D7FF02C06D5F7F4F75956795AF
:10250000759567954CE350E08AE090E00E943507AE
:1025100068EE73E086E292E00E94910868EE73E054
:1025200080E090E00E94240364EF71E084E690E094
:102530000E94910868EE73E080E090E00E9424031E
:10254000CE0166E070E00E949C3544E650E08DE0EC
:1025500090E00E9435076CE370E08CE390E00E940D
:10256000D006DF91CF910C94AD0E40E060E081E0A9
:102570000E948306892B09F08CCF40E061E081E066
:102580000E948306892B09F084CF79CF40E060E078
:1025900081E00E948306892B09F08ACF40E061E048
:1025A00081E00E948306892B09F082CF68CFCF9209
:1025B000DF92EF92FF920F931F93CF93DF9388E9FF
:1025C00090E00E941C0AEC0162E370E080E090E081
:1025D0000E94240360E971E080E293E00E94910888
:1025E00064EF71E080E090E00E94240360E570E019
:1025F00080E590E00E94D0067E01D7FF03C08FEFF8
:10260000E81AF80AF594E794CE0165E070E00E94BC
:102610009C356B0110E000E00E94BF05C8010E94DC
:10262000D6090E94A40740E060E080E00E94830693
:10263000892B99F140E062E082E00E948306892BB9
:10264000D9F140E060E080E00E948306892B09F424
:1026500075C040E063E082E00E948306892B61F14F
:102660000115110509F0ABC062E370E082E390E070
:102670000E94D00640E060E080E00E948306892B43
:1026800009F46DC040E062E082E00E948306892B7D
:1026900009F076C001E010E0BFCF40E060E081E0EB
:1026A0000E948306892B31F640E061E081E00E94C0
:1026B0008306892B09F0BECF0230110509F0ACCF9B
:1026C00044E650E0B7018DE090E00E94350764EFEA
:1026D00071E089E591E00E9491086CE271E080E090
:1026E00090E00E94240342E350E0B6018AE090E0CB
:1026F0000E94350783E090E00E942E0882E090E07F
:102700000E94D6090E94BF0589ED93E00E94FF094F
:1027100068EC70E08CE093E00E9491086CED75E04D
:1027200080E090E00E94240344E650E0B7018AE094
:1027300090E00E94350703E010E06ECF40E060E0DB
:1027400081E00E948306892B09F083CF40E061E09D
:1027500081E00E948306892B09F07BCFADCF40E05A
:1027600060E081E00E948306892B09F08BCF40E076
:1027700061E081E00E948306892B09F083CF8ACF34
:1027800040E060E080E00E948306892B49F040E051
:1027900063E082E00E948306892B09F06BCF7ACF39
:1027A00040E060E081E00E948306892B81F740E0F1
:1027B00061E081E00E948306892B49F76BCF0130ED
:1027C000110539F470E060E090E080E00E94D006EE
:1027D00077CF0330110509F06FCF70E060E090E033
:1027E00080E00E94D006CE016DE070E00E949C3532
:1027F0004CE350E08DE090E00E9435070E94BF0559
:102800008CEC93E00E94FF0968EC70E089E591E0B0
:102810000E94910868EB7BE080E090E00E94240336
:10282000BE010D2E000C880B990B0E946B3420E02A
:1028300030E040EC5FE30E941B350E94333444E6F5
:1028400050E08DE090E00E943507BE01660F771FD3
:1028500046E950E08BE090E00E943507DF91CF9190
:102860001F910F91FF90EF90DF90CF900C94AD0EE1
:102870001F920F920FB60F9211242F933F938F93B5
:102880009F93AF93BF938091E6089091E708A09142
:10289000E808B091E9083091E50823E0230F2D37CF
:1028A00068F126E8230F0296A11DB11D2093E508CB
:1028B0008093E6089093E708A093E808B093E908AE
:1028C0008091EA089091EB08A091EC08B091ED0896
:1028D0000196A11DB11D8093EA089093EB08A09387
:1028E000EC08B093ED08BF91AF919F918F913F910C
:1028F0002F910F900FBE0F901F9018950196A11D5C
:10290000B11DD4CF1F920F920FB60F9211240BB6A8
:102910000F922F933F934F935F936F937F938F9378
:102920009F93AF93BF93EF93FF9389E799E00E9442
:10293000D603FF91EF91BF91AF919F918F917F91BE
:102940006F915F914F913F912F910F900BBE0F9020
:102950000FBE0F901F9018951F920F920FB60F92F7
:1029600011240BB60F922F938F939F93EF93FF93A6
:10297000E0918909F0918A098081E0918F09F091B5
:10298000900982FD1DC09081809192098F5F8F73A5
:1029900020919309821741F0E0919209F0E0E75805
:1029A000F64F958F80939209FF91EF919F918F91B0
:1029B0002F910F900BBE0F900FBE0F901F90189588
:1029C0008081F2CF1F920F920FB60F9211240BB697
:1029D0000F922F933F934F935F936F937F938F93B8
:1029E0009F93AF93BF93EF93FF9386E19AE00E948A
:1029F000D603FF91EF91BF91AF919F918F917F91FE
:102A00006F915F914F913F912F910F900BBE0F905F
:102A10000FBE0F901F9018951F920F920FB60F9236
:102A200011240BB60F922F938F939F93EF93FF93E5
:102A3000E091260AF091270A8081E0912C0AF0911A
:102A40002D0A82FD1DC0908180912F0A8F5F8F73A8
:102A50002091300A821741F0E0912F0AF0E0EA5EFF
:102A6000F54F958F80932F0AFF91EF919F918F9152
:102A70002F910F900BBE0F900FBE0F901F901895C7
:102A80008081F2CF1F920F920FB60F9211240BB6D6
:102A90000F922F933F934F935F936F937F938F93F7
:102AA0009F93AF93BF93EF93FF9380917100887FC3
:102AB000803609F44DC008F040C0883209F4A9C03E
:102AC00028F5803109F49DC0C8F4882309F407C1B2
:102AD000883009F496C0FF91EF91BF91AF919F911B
:102AE0008F917F916F915F914F913F912F910F90B7
:102AF0000BBE0F900FBE0F901F901895883109F4F0
:102B000088C0803241F78093F40814C0803409F4FF
:102B1000A5C040F48033B9F38833E9F68093F40814
:102B200085ECBCC0803509F489C0883509F49EC0A5
:102B3000883489F60E947804CECF883909F494C08D
:102B400038F5883729F050F4883611F0803719F6B7
:102B500083E08093F6081092C00857C0883809F4C3
:102B600083C0803919F0803809F0B5CF8091C00852
:102B7000803208F079C0E091C00881E08E0F809328
:102B8000C00880917300F0E0E056F74F80833DC0AD
:102B9000803B39F0E0F4803A09F485C0883A09F0C6
:102BA0009ACF84E08093F60810929F0810929E08B6
:102BB000E091C308F091C408099580919E088111A5
:102BC0000FC081E080939E0810927E0809C0803C6F
:102BD00009F4A6CF883C09F4A3CF883B09F07BCF4A
:102BE000E0919F0881E08E0F80939F08F0E0E2580B
:102BF000F74F80818093730090919F0880919E0889
:102C000031C08091EF088093730085EC809374004D
:102C100062CF9091F1088091F0089817B8F58091F3
:102C2000F2089091F308E091F10821E02E0F209333
:102C3000F108E80FF92FF11D8081E5CF2091F2080E
:102C40003091F308E091F10881E08E0F8093F10854
:102C500080917300E20FF32FF11D80839091F108B2
:102C60008091F008981788F285E8D0CF2091F2087B
:102C70003091F308E091F10881E08E0F8093F10824
:102C800080917300E20FF32FF11D80838091F5088E
:102C9000811150CF81E08093EE0884EA8093740024
:102CA0001092F60818CF85EC809374001092F60805
:102CB0008091C008803230F4E091C008F0E0E05626
:102CC000F74F10826091C00870E0E091C108F09168
:102CD000C20880EA98E009951092C008FCCE1092D4
:102CE000F40828CFCF92DF92EF92FF920F931F93B9
:102CF000E82FF92F05C0015011092109310961F1AF
:102D0000908196239417B9F305C001501109210948
:102D1000310911F1908196239413F7CFC12CD12C56
:102D2000E12CF12C0AC08FEFC81AD80AE80AF80A79
:102D30000C151D052E053F0579F08081862384172B
:102D400091F36C2D7D2D8E2D9F2D1F910F91FF9056
:102D5000EF90DF90CF90089560E070E080E090E029
:102D60001F910F91FF90EF90DF90CF900895682F03
:102D700083EB9AE00C94ED04CF93DF93C82F60E0CF
:102D8000813009F43FC061E08230E1F560E08CE21F
:102D90000E940C0260E08BE20E940C0261E08AE279
:102DA0000E940C0289E20E94A10190E080E00E9452
:102DB000B71681E090E00E94B7160E94AB016AE06E
:102DC00070E080E090E00E94240389E20E94A1016B
:102DD0008EE190E00E94B71680E00E94490162E017
:102DE00070E089E290E00E94410980913B09909156
:102DF0003C09891B990B029774F481E090E0DF9104
:102E0000CF9108958CE20E940C0261E08BE20E9457
:102E10000C0260E0C4CF0E943601D82F0E94360118
:102E200020E03D2FA901482BCA018431910539F7D3
:102E30006AE070E080E090E00E94240360E0C1302E
:102E400009F447C061E0C23009F043C060E08CE2A1
:102E50000E940C0260E08BE20E940C0261E08AE2B8
:102E60000E940C0289E20E94A10190E080E00E9491
:102E7000B71681E090E00E94B7160E94AB016AE0AD
:102E800070E080E090E00E94240389E20E94A101AA
:102E90008EE190E00E94B71680E00E94490162E056
:102EA00070E089E290E00E94410980913B09909195
:102EB0003C09891B990B02970CF49FCF0E943601A5
:102EC000C82F0E94360120E03C2FA901482BCA01DF
:102ED00096CF8CE20E940C0261E08BE20E940C0211
:102EE00060E0BDCFBF92CF92DF92EF92FF920F933F
:102EF0001F93CF93DF938C0161E08CE20E940C0260
:102F000061E08BE20E940C0260E08AE20E940C0207
:102F100080E60E94A10182E090E00E94B7160E9424
:102F2000AB0164E070E080E690E00E94410980918E
:102F30003B0990913C09891B990B049794F10E94DD
:102F40003601D82F20E0C22F0E9436018C2B9D2BFA
:102F50006AE070E00E949C358091DD089091DE0867
:102F6000EB01C81BD90B0E94360124EBD22E9C0129
:102F7000D29EC001D39E900D1124EE24EA94F12C30
:102F8000B7010E949C35B62EC72E0E9436019C01C7
:102F9000D29EC001D39E900D1124B7010E949C3592
:102FA0007B01D7FF02C0C859DE4F0130110529F05F
:102FB0000230110569F0CE2DDF2DCE01DF91CF91CA
:102FC0001F910F91FF90EF90DF90CF90BF900895E9
:102FD000CB2DDC2DF2CF0E94BF0584EA90E00E9449
:102FE0001C0A5C0186EA90E00E941C0A6C0188EAD7
:102FF00090E00E941C0A4C018AEA90E00E941C0AA0
:103000003C018CEA90E00E941C0A2C018EEA90E0C0
:103010000E941C0A7C0180EB90E00E941C0A8C013B
:10302000D0E0C0E08FEB282E8AE0382E88E00E94A6
:10303000E301892BA9F488E00E94E301892BD9F3ED
:1030400062E370E080E090E00E9424038091000140
:103050008F5F89300CF059C0809300010E94BF053A
:1030600089E00E94E301892BA9F489E00E94E30131
:10307000892BD9F362E370E080E090E00E942403A2
:1030800080910001815018160CF041C0809300011E
:103090000E94BF0580910001813009F044C060E0CA
:1030A00080E00E946706DF93CF93DF93CF938AE39C
:1030B00093E09F938F933F922F920E9419098AE089
:1030C0000E94E3012DB73EB7285F3F4F0FB6F8943B
:1030D0003EBF0FBE2DBF892BE1F4E29660E971E09F
:1030E00080E090E00E942403C1303FEFD30714F446
:1030F000C1E0DFEFCF3FD10519F014F0CFEFD0E002
:10310000BE01CE010E94D00691CF81E0A5CF88E01C
:10311000BDCF8BE00E94E301892B11F4E297DECF53
:10312000D0E0C0E0EDCF823009F055C060E080E033
:103130000E946706BF92AF921F928AE08F9387E446
:1031400093E09F938F933F922F920E94190986E0FC
:103150000E94E3012DB73EB7285F3F4F0FB6F894AA
:103160003EBF0FBE2DBF892B61F4B50184EA90E00C
:103170000E940C0A46E950E0B5018AE00E9452081C
:1031800055CF8AE00E94E301892B81F462E370E06D
:1031900080E090E00E94240338E0A31632E0B306FA
:1031A0000CF044CF85E0A80EB11C40CF8BE00E940C
:1031B000E301892B09F03ACF62E370E080E090E010
:1031C0000E9424039BEFA916B1040CF42FCF25E035
:1031D000A21AB1082BCF833009F052C060E080E022
:1031E0000E946706DF92CF921F928AE08F9388E554
:1031F00093E09F938F933F922F920E94190986E04C
:103200000E94E3012DB73EB7285F3F4F0FB6F894F9
:103210003EBF0FBE2DBF892B49F4B60186EA90E070
:103220000E940C0A46E950E0B601A7CF8AE00E944E
:10323000E301892B81F462E370E080E090E00E947A
:10324000240338E0C31632E0D3060CF0EFCE85E05D
:10325000C80ED11CEBCE8BE00E94E301892B09F054
:10326000E5CE62E370E080E090E00E9424039BEFF3
:10327000C916D1040CF4DACE25E0C21AD108D6CE94
:10328000843009F055C060E080E00E9467069F929C
:103290008F921F928AE08F938DE693E09F938F9396
:1032A0003F922F920E94190986E00E94E3012DB7F8
:1032B0003EB7285F3F4F0FB6F8943EBF0FBE2DBFFD
:1032C000892B61F446E950E0B4018BE00E9452087A
:1032D000B40188EA90E00E940C0AA8CE8AE00E941D
:1032E000E301892B81F462E370E080E090E00E94CA
:1032F000240330E2831633E093060CF097CE85E08A
:10330000880E911C93CE8BE00E94E301892B09F07B
:103310008DCE62E370E080E090E00E94240397E9A4
:10332000891691040CF482CE25E0821A91087ECE93
:10333000853009F053C060E080E00E9467067F920C
:103340006F921F928AE08F938FE793E09F938F9302
:103350003F922F920E94190986E00E94E3012DB747
:103360003EB7285F3F4F0FB6F8943EBF0FBE2DBF4C
:10337000892B51F4B3018AEA90E00E940C0A46E9D5
:1033800050E0B3018BE0FACE8AE00E94E301892B82
:1033900081F462E370E080E090E00E94240330E278
:1033A000631633E073060CF041CE85E0680E711CA5
:1033B0003DCE8BE00E94E301892B09F037CE62E31A
:1033C00070E080E090E00E94240397E969167104A0
:1033D0000CF42CCE25E0621A710828CE863009F054
:1033E00053C060E080E00E9467065F924F921F9298
:1033F0008AE08F938FE893E09F938F933F922F9271
:103400000E94190986E00E94E3012DB73EB7285FAC
:103410003F4F0FB6F8943EBF0FBE2DBF892B49F426
:10342000B2018CEA90E00E940C0A46E950E0B20139
:10343000A9CF8AE00E94E301892B81F462E370E066
:1034400080E090E00E94240338EE431633E05306F8
:103450000CF0ECCD85E0480E511CE8CD8BE00E94CD
:10346000E301892B09F0E2CD62E370E080E090E0B7
:103470000E9424039DE2491691E059060CF4D6CD32
:1034800025E0421A5108D2CD873009F065C060E0CE
:1034900080E00E946706FF92EF921F928AE08F936E
:1034A00083EA93E09F938F933F922F920E94190992
:1034B00086E00E94E3012DB73EB7285F3F4F0FB66D
:1034C000F8943EBF0FBE2DBF892BD9F4B7018EEA09
:1034D00090E00E940C0A44E650E0B7018EE10E94A1
:1034E000A80862E370E080E090E00E94240344E6D4
:1034F00050E065E474E06E197F098FE10E94A8082E
:1035000095CD8AE00E94E301892B81F462E370E0AB
:1035100080E090E00E9424033AE7E31633E0F306EC
:103520000CF084CD85E0E80EF11C80CD8BE00E948C
:10353000E301892B09F07ACD62E370E080E090E04E
:103540000E9424039BE3E91692E0F9060CF46ECD89
:1035500025E0E21AF1086ACD883009F067CD60E015
:1035600080E00E9467061F930F931F928AE08F935B
:1035700088EB93E09F938F933F922F920E941909BB
:1035800086E00E94E3012DB73EB7285F3F4F0FB69C
:10359000F8943EBF0FBE2DBF892BC1F4B80180EB5C
:1035A00090E00E940C0A44E650E0B8018EE10E94CF
:1035B000A80862E370E080E090E00E94240344E603
:1035C00050E065E474E0601B710B97CF8AE00E94C5
:1035D000E301892B71F462E370E080E090E00E94E7
:1035E00024030A3733E013070CF020CD0B5F1F4F85
:1035F0001DCD8BE00E94E301892B09F017CD62E31A
:1036000070E080E090E00E9424030B3382E0180712
:103610000CF40CCD0550110909CD0E94BF0585E0C1
:10362000882E84E0982ECFEBDAE099E8E92E94E03A
:10363000F92E2BECC22E24E0D22E39EDA32E34E04D
:10364000B32E0DE114E088E00E94E301892B79F4A8
:1036500088E00E94E301892BD9F3809101018F5FFB
:1036600089300CF0A8C0809301010E94BF0589E059
:103670000E94E301892B71F489E00E94E301892B08
:10368000D9F380910101815009F499C0809301011F
:103690000E94BF058AE00E94E301892B09F091C0D6
:1036A00068E270E088E290E00E94D006809101011B
:1036B000813009F0A8C160E080E00E94670684EED6
:1036C00093E00E94FF0961E080E00E94670680EFBE
:1036D00093E00E94FF0962E080E00E94670680910B
:1036E000C6088F938091C5088F938091C8088F93E7
:1036F0008091C7088F938091CA088F938091C908E1
:103700008F938091CC088F938091CB088F939F9259
:103710008F92DF93CF930E94190964E670E080E0F6
:1037200090E00E94240381E00E94320A2DB73EB748
:10373000245F3F4F0FB6F8943EBF0FBE2DBF8111DF
:103740004FC060E08CE00E94670686E194E00E9432
:10375000FF0963E080E00E9467068AE190E00E9432
:103760001C0A382E292E88E190E00E941C0A582E4F
:10377000492E86E190E00E941C0A782E692E84E191
:1037800090E00E941C0A2F923F924F925F926F929C
:103790007F929F938F931F930F93DF93CF930E94FA
:1037A00019092DB73EB7245F3F4F0FB6F8943EBFBF
:1037B0000FBE2DBF48CF21E02093010156CF88E0F6
:1037C00065CF8BE00E94E301892B29F468ED7FEF40
:1037D00088ED9FEF69CF70E060E090E080E064CF1B
:1037E00081E00E94320A8130D1F560E08CE00E94D5
:1037F00067068EE294E00E94FF0963E080E00E9489
:10380000670682E290E00E941C0A382E292E80E290
:1038100090E00E941C0A582E492E8EE190E00E94F2
:103820001C0A782E692E8CE190E00E941C0A2F92CF
:103830003F924F925F926F927F929F938F931F93CD
:103840000F93DF93CF930E9419092DB73EB7245FE2
:103850003F4F0FB6F8943EBF0FBE2DBFF4CE81E0B0
:103860000E94320A8230D1F560E08CE00E94670647
:1038700085E394E00E94FF0963E080E00E94670610
:103880008AE290E00E941C0A382E292E88E290E0FD
:103890000E941C0A582E492E86E290E00E941C0AC3
:1038A000782E692E84E290E00E941C0A2F923F92AB
:1038B0004F925F926F927F929F938F931F930F937C
:1038C000DF93CF930E9419092DB73EB7245F3F4F76
:1038D0000FB6F8943EBF0FBE2DBFB5CE81E00E945B
:1038E000320A8430D1F560E08CE00E9467068CE3F8
:1038F00094E00E94FF0963E080E00E94670682E393
:1039000090E00E941C0A382E292E80E390E00E944D
:103910001C0A582E492E8EE290E00E941C0A782E36
:10392000692E8CE290E00E941C0A2F923F924F92E7
:103930005F926F927F929F938F931F930F93DF936A
:10394000CF930E9419092DB73EB7245F3F4F0FB6A2
:10395000F8943EBF0FBE2DBF76CE81E00E94320AA2
:103960008530D1F560E08CE00E94670683E494E046
:103970000E94FF0963E080E00E9467068AE390E00E
:103980000E941C0A382E292E88E390E00E941C0A0F
:10399000582E492E86E390E00E941C0A782E692E4C
:1039A00084E390E00E941C0A2F923F924F925F9214
:1039B0006F927F929F938F931F930F93DF93CF9379
:1039C0000E9419092DB73EB7245F3F4F0FB6F894F8
:1039D0003EBF0FBE2DBF37CE81E00E94320A873036
:1039E00009F031CE60E08CE00E9467068AE494E042
:1039F0000E94FF0963E080E00E94670681E594E091
:103A00000E94FF0920CE823009F089C160E080E089
:103A10000E94670686E694E00E94FF0961E080E06C
:103A20000E94670683E794E00E94FF0962E080E05D
:103A30000E9467068091C6088F938091C5088F9376
:103A40008091C8088F938091C7088F938091CA088E
:103A50008F938091C9088F938091CC088F93809128
:103A6000CB088F939F928F92DF93CF930E94190977
:103A700060E08CE00E94670682E00E94320A2DB767
:103A80003EB7245F3F4F0FB6F8943EBF0FBE2DBF29
:103A900081113AC060E08CE00E94670684E894E0FF
:103AA0000E94FF0963E080E00E94670682E490E0E4
:103AB0000E941C0A382E292E80E490E00E941C0AE5
:103AC000582E492E8EE390E00E941C0A782E692E13
:103AD0008CE390E00E941C0A2F923F924F925F92DB
:103AE0006F927F929F938F93FF92EF92DF93CF938A
:103AF0000E9419092DB73EB7245F3F4F0FB6F894C7
:103B00003EBF0FBE2DBF9FCD82E00E94320A8130A2
:103B1000D1F560E08CE00E9467068BE994E00E949A
:103B2000FF0963E080E00E9467068AE490E00E945B
:103B30001C0A382E292E88E490E00E941C0A582E78
:103B4000492E86E490E00E941C0A782E692E84E4B7
:103B500090E00E941C0A2F923F924F925F926F92C8
:103B60007F929F938F93FF92EF92DF93CF930E9468
:103B700019092DB73EB7245F3F4F0FB6F8943EBFEB
:103B80000FBE2DBF60CD82E00E94320A8230D1F597
:103B900060E08CE00E94670680EA94E00E94FF09E2
:103BA00063E080E00E94670682E590E00E941C0AC4
:103BB000382E292E80E590E00E941C0A582E492EAE
:103BC0008EE490E00E941C0A782E692E8CE490E02E
:103BD0000E941C0A2F923F924F925F926F927F92A7
:103BE0009F938F931F930F93DF93CF930E94190995
:103BF0002DB73EB7245F3F4F0FB6F8943EBF0FBEC0
:103C00002DBF21CD82E00E94320A8430E1F560E0D0
:103C10008CE00E9467068CE394E00E94FF0963E059
:103C200080E00E9467068AE590E00E941C0A382E18
:103C3000292E88E590E00E941C0A582E492E86E520
:103C400090E00E941C0A782E692E84E590E00E9484
:103C50001C0A2F923F924F925F926F927F929F9396
:103C60008F9385EA94E09F938F93DF93CF930E9485
:103C700019092DB73EB7245F3F4F0FB6F8943EBFEA
:103C80000FBE2DBFE0CC82E00E94320A8530D1F514
:103C900060E08CE00E94670683EB94E00E94FF09DD
:103CA00063E080E00E94670682E690E00E941C0AC2
:103CB000382E292E80E690E00E941C0A582E492EAC
:103CC0008EE590E00E941C0A782E692E8CE590E02B
:103CD0000E941C0A2F923F924F925F926F927F92A6
:103CE0009F938F931F930F93DF93CF930E94190994
:103CF0002DB73EB7245F3F4F0FB6F8943EBF0FBEBF
:103D00002DBFA1CC82E00E94320A873009F09BCC03
:103D100060E08CE00E94670688EB94E069CE833017
:103D200009F059C060E080E00E9467068DEB94E0E6
:103D30000E94FF0961E080E00E94670683E794E04B
:103D40000E94FF0962E080E00E94670688E190E03F
:103D50000E941C0A582E492E86E190E00E941C0AFF
:103D6000782E692E84E190E00E941C0A4F925F92A7
:103D70006F927F929F938F93DF92CF92DF93CF9337
:103D80000E94190963E080E00E94670680E490E0E9
:103D90000E941C0A582E492E8EE390E00E941C0AB5
:103DA000782E692E8CE390E00E941C0A4F925F925D
:103DB0006F927F929F938F93BF92AF92DF93CF9337
:103DC0000E9419098DB79EB744960FB6F8949EBF0E
:103DD0000FBE8DBF38CC843009F05AC060E080E05F
:103DE0000E94670687EE94E00E94FF0961E080E090
:103DF0000E94670683E794E00E94FF0962E080E08A
:103E00000E94670680E290E00E941C0A582E492E0C
:103E10008EE190E00E941C0A782E692E8CE190E0E1
:103E20000E941C0A4F925F926F927F929F938F9392
:103E3000DF92CF92DF93CF930E94190963E080E075
:103E40000E94670688E490E00E941C0A582E492EC2
:103E500086E490E00E941C0A782E692E84E490E0AB
:103E60000E941C0A4F925F926F927F929F938F9352
:103E7000BF92AF92DF93CF930E9419092DB73EB73F
:103E80002C5E3F4F0FB6F8943EBF0FBE2DBFDBCB6D
:103E9000853009F059C060E080E00E94670685EF38
:103EA00094E00E94FF0961E080E00E94670683E7DA
:103EB00094E00E94FF0962E080E00E94670688E2C9
:103EC00090E00E941C0A582E492E86E290E00E9443
:103ED0001C0A782E692E84E290E00E941C0A4F9200
:103EE0005F926F927F929F938F93DF92CF92DF9337
:103EF000CF930E94190963E080E00E94670680E585
:103F000090E00E941C0A582E492E8EE490E00E94F8
:103F10001C0A782E692E8CE490E00E941C0A4F92B5
:103F20005F926F927F929F938F93BF92AF92DF9336
:103F3000CF930E9419098DB79EB744960FB6F89497
:103F40009EBF0FBE8DBF7FCB863009F05AC060E0A8
:103F500080E00E94670683E095E00E94FF0961E02F
:103F600080E00E94670683E794E00E94FF0962E018
:103F700080E00E94670680E390E00E941C0A582EB1
:103F8000492E8EE290E00E941C0A782E692E8CE267
:103F900090E00E941C0A4F925F926F927F929F93D3
:103FA0008F93DF92CF92DF93CF930E94190963E042
:103FB00080E00E94670688E590E00E941C0A582E67
:103FC000492E86E590E00E941C0A782E692E84E531
:103FD00090E00E941C0A4F925F926F927F929F9393
:103FE0008F93BF92AF92DF93CF930E9419092DB7A1
:103FF0003EB72C5E3F4F0FB6F8943EBF0FBE2DBFAD
:1040000022CB873009F06DC060E080E00E94670637
:1040100081E195E00E94FF0961E080E00E9467066F
:1040200083E794E00E94FF0962E080E00E94670657
:104030008AE390E00E941C0A382E292E88E390E043
:104040000E941C0A582E492E86E390E00E941C0A0A
:10405000782E692E84E390E00E941C0A2F923F92F2
:104060004F925F926F927F929F938F9382E295E03F
:104070009F938F93DF93CF930E94190963E080E0B1
:104080000E94670682E690E00E941C0A382E292EC4
:1040900080E690E00E941C0A582E492E8EE590E0A2
:1040A0000E941C0A782E692E8CE590E00E941C0A62
:1040B0002F923F924F925F926F927F929F938F9336
:1040C00023E335E03F932F93DF93CF930E941909A9
:1040D0008DB79EB748960FB6F8949EBF0FBE8DBFA2
:1040E000B2CA883009F0AFCA60E080E00E9467067B
:1040F00084E495E00E94FF0961E080E00E94670689
:1041000083E794E00E94FF0962E080E00E94670676
:104110008091C6088F938091C5088F938091C808BD
:104120008F938091C7088F938091CA088F93809155
:10413000C9088F938091CC088F938091CB088F937F
:104140009F928F92DF93CF930E94190960E08CE0D9
:104150000E94670683E00E94320A2DB73EB7245FB3
:104160003F4F0FB6F8943EBF0FBE2DBF81113AC02E
:1041700060E08CE00E94670684E894E00E94FF09FA
:1041800063E080E00E9467068AE690E00E941C0AD5
:10419000382E292E88E690E00E941C0A582E492EBF
:1041A00086E690E00E941C0A782E692E84E690E054
:1041B0000E941C0A2F923F924F925F926F927F92C1
:1041C0009F938F93FF92EF92DF93CF930E941909F1
:1041D0002DB73EB7245F3F4F0FB6F8943EBF0FBEDA
:1041E0002DBF31CA83E00E94320A8130D1F560E0F0
:1041F0008CE00E9467068BE994E00E94FF0963E06F
:1042000080E00E94670682E790E00E941C0A382E38
:10421000292E80E790E00E941C0A582E492E8EE637
:1042200090E00E941C0A782E692E8CE690E00E9495
:104230001C0A2F923F924F925F926F927F929F93B0
:104240008F93FF92EF92DF93CF930E9419092DB7BE
:104250003EB7245F3F4F0FB6F8943EBF0FBE2DBF51
:10426000F2C983E050CDE9E7F9E01382128288EECB
:1042700093E0A0E0B0E084839583A683B7832EE02B
:1042800033E03183208348E950E05587448749E98A
:1042900050E0578746874BE950E0518B408B4AE905
:1042A00050E0538B428B4DE950E0558B448B4CE9E9
:1042B00050E0578B468B118E128E138E148EE6E1D2
:1042C000FAE01382128284839583A683B7833183B5
:1042D000208320E930E03587248729E230E03787E2
:1042E00026872BE230E0318B208B2AE230E0338BC3
:1042F000228B25E930E0358B248B2CE230E0378BA4
:10430000268B118E128E138E148EE3EBFAE013823D
:10431000128284839583A683B78380E293E091839E
:104320008083EFEBFAE01382128282E393E09183C1
:1043300080838CE184838FEF85838EE186838FE198
:10434000878380E2808781E2818782E28287138689
:10435000148615861686178661E080E10C94C605E2
:10436000789483B78C6483BF87B7816087BFC2E0CE
:10437000CEBD8EB581608EBD8FB581608FBD85B598
:10438000846085BD85B5806485BD80918A00836029
:1043900080938A0080918B00816080938B0087E8F6
:1043A00086B91AB81FBC8FB58FBD8EB58EBD8EB5C0
:1043B00084608EBD61E08DE00E943A0261E08CE095
:1043C0000E943A0262E086E00E943A0261E083E2E3
:1043D0000E943A0262E085E20E943A0262E086E2CE
:1043E0000E943A0262E086E00E943A0262E088E0BF
:1043F0000E943A0262E089E00E943A0262E08AE0AA
:104400000E943A0262E08BE00E943A0261E08CE294
:104410000E943A0261E08BE20E943A0261E08AE285
:104420000E943A0210923C0910923B091092F8083F
:1044300010921A091092F60881E08093F508109204
:10444000EE0861E083E10E940C0261E082E10E94DB
:104450000C02809171008C7F8093710088E48093BE
:10446000700085E48093740086E593E09093C4081F
:104470008093C30887E593E09093C2088093C108B6
:10448000E091260AF091270AC083E091220AF09178
:10449000230A1082E091240AF091250A10E110838A
:1044A00010922E0AE0912A0AF0912B0AD6E0D083CE
:1044B000E091280AF091290A808188698083E0913F
:1044C000280AF091290A80818F7D808361E085E14F
:1044D0000E943A0261E086E10E943A02E091890975
:1044E000F0918A09C083E0918509F09186091082D4
:1044F000E0918709F0918809108310929109E09169
:104500008D09F0918E09D083E0918B09F0918C098F
:10451000808188698083E0918B09F0918C0980818A
:104520008F7D808364E084E10E94C60560E273E0D1
:1045300080E090E00E94240388E890E09093E408F3
:104540008093E3088FEF90E09093E2088093E10876
:1045500084E190E09093E0088093DF0868E870E0E1
:1045600088E990E00E940C0A6091E1087091E208ED
:1045700086E990E00E940C0A6091DF087091E008E3
:104580008AE990E00E940C0A80E690E09093DE08B1
:104590008093DD088CEB90E09093DC088093DB083F
:1045A00085E191E09093DA088093D90860E670E0A5
:1045B0008CE990E00E940C0A6091DB087091DC08A5
:1045C0008EE990E00E940C0A6091D9087091DA0897
:1045D00080EA90E00E940C0A84EF91E09093D80862
:1045E0008093D70884E992E09093D6088093D50809
:1045F0008EEB90E09093D4088093D30880E293E010
:104600009093D2088093D10884E893E09093D008E7
:104610008093CF088EE492E09093CE088093CD08EB
:1046200063E171E084EA90E00E940C0A6091D7088F
:104630007091D80886EA90E00E940C0A6091D50833
:104640007091D60888EA90E00E940C0A6091D30825
:104650007091D4088AEA90E00E940C0A6091D10817
:104660007091D2088CEA90E00E940C0A6091CF0809
:104670007091D0088EEA90E00E940C0A6091CD08FB
:104680007091CE0880EB90E00E940C0A0E94BF055A
:1046900081E595E00E94FF0961E080E00E946706E5
:1046A00086E20E94E301EC0185E20E94E301DF93D0
:1046B000CF939F938F9385E695E09F938F93CFEB56
:1046C000DAE0DF93CF930E94190963E080E00E9453
:1046D000670686E00E94E301F82EE92E88E00E943A
:1046E000E301182F092F89E00E94E301EF92FF9266
:1046F0000F931F939F938F9385E795E09F938F93DD
:10470000DF93CF930E94190986E00E94E301EDB781
:10471000FEB772960FB6F894FEBF0FBEEDBF892BA1
:1047200009F0FDC18AE090E00E942E080E94BF05BA
:10473000DD24D39466E0C62E75E0B72EC8EED5E032
:104740000FEB1AE088E00E94E301892BA9F488E0CE
:104750000E94E301892BD9F362E370E080E090E0EE
:104760000E942403809105018F5F873008F0F0C11B
:10477000809305010E94BF0589E00E94E301892B17
:10478000A1F489E00E94E301892BD9F362E370E090
:1047900080E090E00E94240380910501815009F49B
:1047A000DAC1809305010E94BF058091050160E098
:1047B000853008F0D3C182E00E9467068DE895E05D
:1047C0000E94FF0961E082E00E94670684E995E0AB
:1047D0000E94FF0962E082E00E94670683EA95E09A
:1047E0000E94FF0963E082E00E94670682EB95E089
:1047F0000E94FF0960910501615080E00E946706F8
:104800008BEC97E00E94FF0980910501813009F04F
:1048100004C286E00E94E301892B09F0B2C186E060
:104820000E94E301892BD9F30E94BF058CED95E02E
:104830000E94FF0981E090E00E942E086CE370E086
:104840008CE390E00E94D00640E060E080E00E94AF
:104850008306EC0140E060E081E00E948306C80F1F
:10486000D91F40E060E082E00E948306C80FD91F94
:1048700040E060E083E00E948306C80FD91F40E05B
:1048800060E084E00E948306C80FD91F40E060E02A
:1048900085E00E948306C80FD91F40E060E086E0F3
:1048A0000E948306C80FD91F40E061E081E00E94AA
:1048B0008306C80FD91F40E061E082E00E948306B2
:1048C000C80FD91F40E061E083E00E948306C80F53
:1048D000D91F40E061E084E00E948306C80FD91F21
:1048E00040E061E085E00E948306C80FD91F40E0E8
:1048F00061E086E00E9483068C0F9D1F06970CF0F6
:10490000A3CF6091E3087091E40877FF02C06F5F66
:104910007F4F7595679544EB50E08AE090E00E94E8
:10492000350703E010E00E94A40788E990E00E94A8
:104930001C0AEC0181E00E94320AE82E880FFF0871
:10494000F0920901E092080182E00E94320A082EEA
:10495000000C990B9093070180930601F7E0EF1686
:10496000F10411F40C942130EA94EF2849F570E039
:1049700060E090E080E00E94D00681E090E00E943C
:104980002E0881E00E94320A813009F044C00E9462
:10499000BF0586E398E00E94FF09CE01B8010E949E
:1049A0009C3544E650E08AE090E00E94350746E9F5
:1049B00050E0BE018BE090E00E9435070E94381263
:1049C0008091080190910901059729F570E060E058
:1049D00090E080E00E94D00681E00E94320A85309B
:1049E00009F044C00E94BF058FE398E00E94FF09D0
:1049F000CE01B8010E949C3544E650E08AE090E088
:104A00000E94350746E950E0BE018BE090E00E942D
:104A100035070E949010809108019091090102973A
:104A200029F570E060E090E080E00E94D00681E02F
:104A30000E94320A823009F045C00E94BF0588E416
:104A400098E00E94FF09CE01B8010E949C3544E61F
:104A500050E08AE090E00E94350746E950E0BE0150
:104A60008BE090E00E9435070E94D71280910801E8
:104A700090910901892B31F570E060E090E080E0D1
:104A80000E94D00681E00E94320A811145C00E9436
:104A9000BF0584E598E00E94FF09CE01B8010E949D
:104AA0009C3544E650E08AE090E00E94350746E9F4
:104AB00050E0BE018BE090E00E9435078BE090E073
:104AC0000E94330F8091080190910901049721F50C
:104AD00070E060E090E080E00E94D00681E00E94FB
:104AE000320A8430C9F40E94BF0589E598E00E942B
:104AF000FF09CE01B8010E949C3544E650E08AE0EF
:104B000090E00E94350746E950E0BE018BE090E05E
:104B10000E9435070E94B1110E94650404CF88E00D
:104B20000E94E301892B09F4FDCD89E00E94E30195
:104B3000892B09F4F7CD85E20E94E301892B09F462
:104B4000F1CD86E20E94E301892B09F4EBCDEECD95
:104B5000D09205010FCEC092050125CE82E00E94C1
:104B6000670681EC95E00E94FF0961E082E00E9407
:104B700067068FEC95E00E94FF0960910501655082
:104B80003CCE84E30E94EA02B89EB001B99E700D4B
:104B90001124072E000C880B990B0E946B342AE914
:104BA00039E94CEC52E40E94C13326E636E646E48D
:104BB00050E40E941B350E943334A62E972EE62E19
:104BC000F72E60E088E00E9467069F92AF92DF9325
:104BD000CF931F930F930E9419090F900F900F907E
:104BE0000F900F900F9039E6E316F1040CF0AACD68
:104BF00061E08DE00E940C0262E370E080E090E0F2
:104C00000E94240360E08DE00E940C0262E370E0E9
:104C100080E090E00E94240395CD823009F055C4D5
:104C200086E00E94E301892B09F08CCD86E00E948A
:104C3000E301892BD9F30E94BF05CFEBDAE05AE3F9
:104C4000C52ED12CE12CF12C88E00E94E301892BA8
:104C5000A9F488E00E94E301892BD9F362E370E0B4
:104C600080E090E00E942403809102018F5F8730F2
:104C70000CF05BC1809302010E94BF0589E00E9495
:104C8000E301892BA9F489E00E94E301892BD9F380
:104C900062E370E080E090E00E94240380910201D2
:104CA000815018160CF043C1809302010E94BF0589
:104CB0008AE00E94E301892B09F03BC168E270E0C1
:104CC00088E290E00E94D00680910201813009F0D4
:104CD00093C160E080E00E94670640E063E082E00C
:104CE0000E948306B82EA92E40E060E080E00E947A
:104CF0008306182F092F40E062E082E00E948306BD
:104D0000AF92BF920F931F939F938F9381EF95E084
:104D10009F938F93DF93CF930E94190961E080E006
:104D20000E94670640E061E083E00E948306582EFF
:104D3000492E40E061E082E00E948306782E692ED1
:104D400040E061E081E00E948306982E892E40E0D9
:104D500060E081E00E948306B82EA92E40E060E06A
:104D600082E00E948306182F092F40E060E083E074
:104D70000E9483064F925F926F927F928F929F92D2
:104D8000AF92BF920F931F939F938F9385E096E00E
:104D90009F938F93DF93CF930E94190962E080E085
:104DA0000E94670640E061E086E00E948306382E9C
:104DB000292E40E061E085E00E948306582E492EAE
:104DC00040E061E084E00E948306782E692EACB456
:104DD000BDB440E060E084E00E948306982E892EF6
:104DE00040E060E085E00E948306182F092F40E034
:104DF00060E086E00E9483069C012F923F924F92D2
:104E00005F926F927F92C50164E670E00E948835E0
:104E10007F936F938F929F920F931F933F932F9344
:104E20008CE196E09F938F93DF93CF930E941909B3
:104E30008DB79EB78C960FB6F8949EBF0FBE8DBFF0
:104E400063E080E00E94670640E060E087E00E9447
:104E50008306B82EA92E40E062E080E00E9483061F
:104E6000182F092F40E062E081E00E948306AF9294
:104E7000BF920F931F939F938F930CE216E01F93A3
:104E80000F93DF93CF930E94190963E08DE00E9496
:104E9000670640E063E081E00E948306982E892E39
:104EA00040E063E080E00E948306B82EA92E40E037
:104EB00061E087E00E9483068F929F92AF92BF923B
:104EC0009F938F931F930F93DF93CF930E941909A2
:104ED00063E084E00E94670681E00E94320AEDB739
:104EE000FEB774960FB6F894FEBF0FBEEDBF8111EA
:104EF0002FC084E894E00E94FF0963E089E00E94EB
:104F0000670682E00E94320A811145C088E396E07C
:104F10000E94FF0986E00E94E301892B09F094CEEC
:104F20001DBC1CBC1DBC1CBC8FCE81E0A3CE86E08A
:104F3000BBCE8BE00E94E301892B29F468ED7FEF63
:104F400088ED9FEFBFCE70E060E090E080E0BACEE9
:104F500081E00E94320A813019F48BE994E0CBCFD2
:104F600081E00E94320A823019F48FE794E0C3CFC7
:104F700081E00E94320A843019F483E396E0BBCFCB
:104F800081E00E94320A853019F483EB94E0B3CFBC
:104F900088EB94E0B0CF82E00E94320A813019F4AD
:104FA0008CE396E0B5CF82E00E94320A823019F499
:104FB00080E496E0ADCF82E00E94320A843019F49A
:104FC00084E496E0A5CF41E061E086E00E9483069C
:104FD000BC01990F880B990B0E946B3426E636E6CC
:104FE00046E65FE30E94BC3387FF03C088E496E097
:104FF0008FCF8CE496E08CCF823009F092C060E0D5
:1050000080E00E94670641E060E080E00E94830645
:10501000182F092F41E062E082E00E9483060F937F
:105020001F939F938F9380E596E09F938F93DF93D9
:10503000CF930E94190961E085E00E94670641E074
:1050400060E081E00E948306B82EA92E41E060E076
:1050500082E00E948306182F092F41E060E083E080
:105060000E948306AF92BF920F931F939F938F93DB
:1050700085E696E09F938F93DF93CF930E94190963
:1050800062E082E00E94670641E060E084E00E9406
:105090008306B82EA92E41E060E085E00E948306D9
:1050A000182F092F41E060E086E00E948306AF924E
:1050B000BF920F931F939F938F9306E716E01F9362
:1050C0000F93DF93CF930E94190963E080E00E9461
:1050D000670641E060E087E00E948306982E892EF3
:1050E00041E062E080E00E948306B82EA92E41E0F4
:1050F00062E081E00E9483068F929F92AF92BF92FE
:105100009F938F931F930F93DF93CF930E9419095F
:105110008DB79EB786960FB6F8949EBF0FBE8DBF13
:1051200093CD833009F090C060E080E00E94670674
:1051300041E063E082E00E948306182F092F41E0DE
:1051400060E080E00E9483060F931F939F938F93EC
:10515000E8E8F6E0FF93EF93DF93CF930E941909FD
:1051600061E082E00E94670641E061E083E00E9426
:105170008306B82EA92E41E061E082E00E948306FA
:10518000182F092F41E061E081E00E948306AF9271
:10519000BF920F931F939F938F9306E716E01F9381
:1051A0000F93DF93CF930E94190962E084E00E947D
:1051B000670641E061E086E00E948306982E892E12
:1051C00041E061E085E00E948306B82EA92E41E00F
:1051D00061E084E00E9483068F929F92AF92BF921B
:1051E0009F938F931F930F93DF93CF930E9419097F
:1051F00063E086E00E94670641E063E081E00E9490
:105200008306982E892E41E063E080E00E948306A9
:10521000B82EA92E41E061E087E00E9483068F92BC
:105220009F92AF92BF929F938F931F930F93DF93A1
:10523000CF930E941909EDB7FEB7B6960FB6F89452
:10524000FEBF0FBEEDBF00CD843009F07FC060E02F
:1052500080E00E94670640E063E084E00E948306ED
:10526000B82EA92E40E063E083E00E948306182F49
:10527000092F40E062E084E00E948306AF92BF9273
:105280000F931F939F938F932DE936E03F932F93B6
:10529000DF93CF930E94190961E080E00E946706C6
:1052A00041E062E086E00E948306182F092F40E06B
:1052B00062E086E00E9483060F931F939F938F9373
:1052C00020EB36E03F932F93DF93CF930E94190991
:1052D00062E080E00E94670641E062E085E00E94B3
:1052E0008306182F092F40E062E085E00E948306C4
:1052F0000F931F939F938F9321EC36E03F932F934F
:10530000DF93CF930E94190963E080E00E94670653
:1053100086E20E94E301182F092F85E20E94E30133
:105320000F931F939F938F9321ED36E03F932F931D
:10533000DF93CF930E9419092DB73EB72E5D3F4FE3
:105340000FB6F8943EBF0FBE2DBF7ECC853009F05E
:105350008EC060E080E00E94670661E089E10E9403
:105360003A0260E089E10E940C0282E090E00E9433
:10537000F30261E089E10E940C028AE090E00E9461
:10538000F30260E089E10E940C0260E080E10E948B
:105390003A02E1E0F1E06491ECECF0E08491E82F76
:1053A000F0E0EE0FFF1FE455FF4F8591949100E46C
:1053B00012E42FE030E0462F0E9472169B01AC01F0
:1053C000211531054105510529F02F5F3F4F4F4F02
:1053D0005F4F5F70AAE0B0E00E94FA35A701960126
:1053E0000E94D2353F932F9322EE36E03F932F93C6
:1053F000DF93CF930E94190961E080E00E94670665
:1054000083E00E94BC169F938F932CEE36E03F936F
:105410002F93DF93CF930E94190962E080E00E94EE
:10542000670681E00E94BC16182F092F82E00E94B7
:10543000BC160F931F939F938F932BEF36E03F93F0
:105440002F93DF93CF930E94190968EC70E080E0FE
:1054500090E00E9424030E94BF052DB73EB72C5E4A
:105460003F4F0FB6F8943EBF0FBE2DBFEDCB863039
:1054700009F0EACB60E080E00E94670683E090E0FC
:105480000E947217B82EA92E82E090E00E94721737
:10549000182F092F81E090E00E947217AF92BF92FF
:1054A0000F931F939F938F938CE097E09F938F931D
:1054B000DF93CF930E9419098DB79EB70A960FB656
:1054C000F8949EBF0FBE8DBFBFCB833009F044C29E
:1054D00086E00E94E301892B09F034C986E00E942E
:1054E000E301892BD9F386E990E00E941C0A8C0124
:1054F00088E990E00E941C0A7C018AE990E00E9401
:105500001C0A6C018CE990E00E941C0A982E892EDE
:105510008EE990E00E941C0A782E692E80EA90E0C5
:105520000E941C0A582E492E82EA90E00E941C0A12
:105530001C010E94BF05CFEBDAE088E00E94E30186
:10554000892BA9F488E00E94E301892BD9F362E357
:1055500070E080E090E00E942403809103018F5F5F
:1055600089300CF08EC0809303010E94BF0589E052
:105570000E94E301892BA9F489E00E94E301892BB1
:10558000D9F362E370E080E090E00E942403809110
:105590000301815018160CF076C0809303010E941D
:1055A000BF058091030185300CF06FC060E082E0A0
:1055B0000E9467061F930F93E2E2F7E0FF93EF93D9
:1055C000DF93CF930E94190961E082E00E94670691
:1055D000FF92EF92E1E3F7E0FF93EF93DF93CF9336
:1055E0000E94190962E082E00E9467068AE990E061
:1055F0000E941C0A9F938F93E0E4F7E0FF93EF93E0
:10560000DF93CF930E94190963E082E00E9467064E
:10561000EFE4F7E0FF93EF93DF93CF930E94190934
:1056200060910301615080E00E9467068FE597E07A
:105630000E94FF09EDB7FEB776960FB6F894FEBF4D
:105640000FBEEDBF80910301813009F09CC08AE05C
:105650000E94E301892B09F06CC068E770E080E0EC
:1056600090E00E942403065F1F4F0F3F110519F0C1
:1056700014F00FEF10E0B80186E990E00E940C0AE8
:105680005CCF81E070CF88E088CF8930DCF660E0C5
:1056900082E00E94670681E090E00E9472179F936B
:1056A0008F938F929F9221E637E03F932F93DF9362
:1056B000CF930E94190961E082E00E9467066F9211
:1056C0007F9222E737E03F932F93DF93CF930E949F
:1056D000190962E082E00E9467064F925F922AE712
:1056E00037E03F932F93DF93CF930E94190963E034
:1056F00082E00E9467063F922F9222E837E03F93B4
:105700002F93DF93CF930E94190960910301655095
:1057100080E00E9467068FE597E00E94FF092DB7A1
:105720003EB7265E3F4F0FB6F8943EBF0FBE2DBF6B
:1057300089CF8BE00E94E301892B79F468E770E060
:1057400080E090E00E9424030A5011090A301105FC
:105750000CF091CF0AE010E08ECF86E00E94E301CA
:10576000892B09F0EACEB801C8010E94D00686E074
:105770000E94E301892BD9F370E060E090E080E0C3
:105780000E94D00678CF8230D9F58AE00E94E301EA
:10579000892B69F468EC70E080E090E00E942403BB
:1057A0003FEFE31AF30AB70188E990E067CF8BE097
:1057B0000E94E301892B51F468EC70E080E090E0F6
:1057C0000E94240381E0E81AF108EDCF86E00E94F0
:1057D000E301892B09F0B1CE86E00E94E301892B19
:1057E000D9F30E94BF05B70188E990E00E940C0A36
:1057F00048EC50E0B7018BE090E00E9435079DCE69
:10580000833081F58AE00E94E301892BA1F464E6EC
:1058100070E080E090E00E9424039FEFC91AD90A4B
:10582000E1E5CE16D1041CF030E5C32ED12CB60133
:105830008AE990E023CF8BE00E94E301892B09F0F5
:105840007CCE64E670E080E090E00E942403F1E00A
:10585000CF1AD10825E0C216D1044CF725E0C22E9C
:10586000D12CE5CF8430D1F486E00E94E3015C01C5
:10587000892B09F062CE0E94BF0586E00E94E301F9
:10588000892BD9F360E0C5010E94AF333FEFA31A23
:10589000B30A88ECA816B104A9F74FCE8530B1F44D
:1058A00086E00E94E301892B09F047CE86E00E9442
:1058B000E301892BD9F381E090E00E947217982EC2
:1058C000892E682F792F8CE990E0D8CE8630A9F404
:1058D0000E94E301892B09F030CE86E00E94E301AB
:1058E000892BD9F381E090E00E947217782E692EFF
:1058F000682F792F8EE990E0C1CE8730B1F486E031
:105900000E94E301892B09F018CE86E00E94E30192
:10591000892BD9F381E090E00E947217582E492E0E
:10592000682F792F80EA90E0A9CE883009F005CE63
:1059300086E00E94E301892B09F0FFCD86E00E94FA
:10594000E301892BD9F370E060E082EA90E00E94E5
:105950000C0A212C312CF1CD843081F486E00E9498
:10596000E301892B11F00C94A2230E94BF0586E06D
:105970000E94E301892BD9F30E940D1B853071F43D
:1059800086E00E94E301892B11F00C94A22386E0AB
:105990000E94E301892BD9F30E94EB17863011F0A6
:1059A0000C94A2230E94E301892B11F00C94A223F2
:1059B0000E94BF0586E00E94E301892BD9F368ECC1
:1059C00070E080E090E00E9424030E94BF05812CDB
:1059D000C0E0912CA12CB12CC12CD12CE12CF12CAC
:1059E00000E010E0D0E0772473949CE0692E88E01A
:1059F0000E94E301892B79F488E00E94E301892B5E
:105A0000D9F3809104018F5F8D300CF09DC080939D
:105A100004010E94BF0589E00E94E301892B79F40B
:105A200089E00E94E301892BD9F380910401815020
:105A300018160CF08CC0809304010E94BF0586E00C
:105A40000E94E301892B41F40E94BF0568EC70E0DD
:105A500080E090E00E9424038091040160E08530A2
:105A60000CF078C083E00E94670681E997E00E940D
:105A7000FF09D13021F48EE997E00E94FF0961E02F
:105A800083E00E94670683EA97E00E94FF091130D5
:105A900021F48EE997E00E94FF0962E083E00E9412
:105AA000670680EB97E00E94FF09013021F48EE940
:105AB00097E00E94FF0963E083E00E9467068DEB98
:105AC00097E00E94FF0991E0F91204C08EE997E087
:105AD0000E94FF0960910401615080E00E94670606
